{
  "_format": "hh-sol-artifact-1",
  "contractName": "MyPGUpgradeable",
  "sourceName": "contracts/new.sol",
  "abi": [
    {
      "inputs": [],
      "stateMutability": "nonpayable",
      "type": "constructor"
    },
    {
      "anonymous": false,
      "inputs": [],
      "name": "InitV1R1_End",
      "type": "event"
    },
    {
      "anonymous": false,
      "inputs": [],
      "name": "InitV1R1_Start",
      "type": "event"
    },
    {
      "anonymous": false,
      "inputs": [
        {
          "indexed": true,
          "internalType": "address",
          "name": "previousOwner",
          "type": "address"
        },
        {
          "indexed": true,
          "internalType": "address",
          "name": "newOwner",
          "type": "address"
        }
      ],
      "name": "OwnershipTransferred",
      "type": "event"
    },
    {
      "inputs": [],
      "name": "balance",
      "outputs": [
        {
          "internalType": "uint256",
          "name": "",
          "type": "uint256"
        }
      ],
      "stateMutability": "view",
      "type": "function"
    },
    {
      "inputs": [],
      "name": "contractVersion",
      "outputs": [
        {
          "internalType": "uint32",
          "name": "",
          "type": "uint32"
        }
      ],
      "stateMutability": "view",
      "type": "function"
    },
    {
      "inputs": [],
      "name": "escrow",
      "outputs": [
        {
          "internalType": "contract EscrowUpgradeable",
          "name": "",
          "type": "address"
        }
      ],
      "stateMutability": "view",
      "type": "function"
    },
    {
      "inputs": [
        {
          "internalType": "address payable",
          "name": "_wallet",
          "type": "address"
        }
      ],
      "name": "initialize",
      "outputs": [],
      "stateMutability": "nonpayable",
      "type": "function"
    },
    {
      "inputs": [],
      "name": "owner",
      "outputs": [
        {
          "internalType": "address",
          "name": "",
          "type": "address"
        }
      ],
      "stateMutability": "view",
      "type": "function"
    },
    {
      "inputs": [],
      "name": "renounceOwnership",
      "outputs": [],
      "stateMutability": "nonpayable",
      "type": "function"
    },
    {
      "inputs": [],
      "name": "return5",
      "outputs": [
        {
          "internalType": "uint16",
          "name": "",
          "type": "uint16"
        }
      ],
      "stateMutability": "pure",
      "type": "function"
    },
    {
      "inputs": [],
      "name": "return6",
      "outputs": [
        {
          "internalType": "uint16",
          "name": "",
          "type": "uint16"
        }
      ],
      "stateMutability": "view",
      "type": "function"
    },
    {
      "inputs": [],
      "name": "sendPayment",
      "outputs": [],
      "stateMutability": "payable",
      "type": "function"
    },
    {
      "inputs": [
        {
          "internalType": "address",
          "name": "newOwner",
          "type": "address"
        }
      ],
      "name": "transferOwnership",
      "outputs": [],
      "stateMutability": "nonpayable",
      "type": "function"
    },
    {
      "inputs": [],
      "name": "wallet",
      "outputs": [
        {
          "internalType": "address payable",
          "name": "",
          "type": "address"
        }
      ],
      "stateMutability": "view",
      "type": "function"
    },
    {
      "inputs": [],
      "name": "withdraw",
      "outputs": [],
      "stateMutability": "nonpayable",
      "type": "function"
    }
  ],
  "bytecode": "0x608060405234801561001057600080fd5b506120b7806100206000396000f3fe6080604052600436106100a75760003560e01c80639d41579d116100645780639d41579d14610165578063a0a8e46014610190578063b69ef8a8146101bb578063c4d66de8146101e6578063e2fdcc171461020f578063f2fde38b1461023a576100a7565b80633ccfd60b146100ac578063521eb273146100c35780636720ceb1146100ee578063715018a6146100f85780638da5cb5b1461010f5780639c9354901461013a575b600080fd5b3480156100b857600080fd5b506100c1610263565b005b3480156100cf57600080fd5b506100d8610390565b6040516100e59190610df9565b60405180910390f35b6100f66103b6565b005b34801561010457600080fd5b5061010d610468565b005b34801561011b57600080fd5b506101246104f0565b6040516101319190610dc3565b60405180910390f35b34801561014657600080fd5b5061014f61051a565b60405161015c9190610eaf565b60405180910390f35b34801561017157600080fd5b5061017a61059f565b6040516101879190610eaf565b60405180910390f35b34801561019c57600080fd5b506101a56105a8565b6040516101b29190610ee5565b60405180910390f35b3480156101c757600080fd5b506101d06105be565b6040516101dd9190610eca565b60405180910390f35b3480156101f257600080fd5b5061020d60048036038101906102089190610c74565b61070e565b005b34801561021b57600080fd5b50610224610921565b6040516102319190610e14565b60405180910390f35b34801561024657600080fd5b50610261600480360381019061025c9190610c47565b610947565b005b61026b610a3f565b73ffffffffffffffffffffffffffffffffffffffff166102896104f0565b73ffffffffffffffffffffffffffffffffffffffff16146102df576040517f08c379a00000000000000000000000000000000000000000000000000000000081526004016102d690610e6f565b60405180910390fd5b606660009054906101000a900473ffffffffffffffffffffffffffffffffffffffff1673ffffffffffffffffffffffffffffffffffffffff166351cff8d9606560049054906101000a900473ffffffffffffffffffffffffffffffffffffffff166040518263ffffffff1660e01b815260040161035c9190610df9565b600060405180830381600087803b15801561037657600080fd5b505af115801561038a573d6000803e3d6000fd5b50505050565b606560049054906101000a900473ffffffffffffffffffffffffffffffffffffffff1681565b606660009054906101000a900473ffffffffffffffffffffffffffffffffffffffff1673ffffffffffffffffffffffffffffffffffffffff1663f340fa0134606560049054906101000a900473ffffffffffffffffffffffffffffffffffffffff166040518363ffffffff1660e01b81526004016104349190610dde565b6000604051808303818588803b15801561044d57600080fd5b505af1158015610461573d6000803e3d6000fd5b5050505050565b610470610a3f565b73ffffffffffffffffffffffffffffffffffffffff1661048e6104f0565b73ffffffffffffffffffffffffffffffffffffffff16146104e4576040517f08c379a00000000000000000000000000000000000000000000000000000000081526004016104db90610e6f565b60405180910390fd5b6104ee6000610a47565b565b6000603360009054906101000a900473ffffffffffffffffffffffffffffffffffffffff16905090565b6000610524610a3f565b73ffffffffffffffffffffffffffffffffffffffff166105426104f0565b73ffffffffffffffffffffffffffffffffffffffff1614610598576040517f08c379a000000000000000000000000000000000000000000000000000000000815260040161058f90610e6f565b60405180910390fd5b6006905090565b60006005905090565b606560009054906101000a900463ffffffff1681565b60006105c8610a3f565b73ffffffffffffffffffffffffffffffffffffffff166105e66104f0565b73ffffffffffffffffffffffffffffffffffffffff161461063c576040517f08c379a000000000000000000000000000000000000000000000000000000000815260040161063390610e6f565b60405180910390fd5b606660009054906101000a900473ffffffffffffffffffffffffffffffffffffffff1673ffffffffffffffffffffffffffffffffffffffff1663e3a9db1a606560049054906101000a900473ffffffffffffffffffffffffffffffffffffffff166040518263ffffffff1660e01b81526004016106b99190610dde565b60206040518083038186803b1580156106d157600080fd5b505afa1580156106e5573d6000803e3d6000fd5b505050506040513d601f19601f820116820180604052508101906107099190610ca1565b905090565b600060019054906101000a900460ff166107365760008054906101000a900460ff161561073f565b61073e610b0d565b5b61077e576040517f08c379a000000000000000000000000000000000000000000000000000000000815260040161077590610e4f565b60405180910390fd5b60008060019054906101000a900460ff1615905080156107ce576001600060016101000a81548160ff02191690831515021790555060016000806101000a81548160ff0219169083151502179055505b7ffa9e8c85f36791c1e4128e6a22d1a09140c0f3c3c970fa99f90b2b8564ebab6860405160405180910390a1610802610b1e565b62018704606560006101000a81548163ffffffff021916908363ffffffff16021790555081606560046101000a81548173ffffffffffffffffffffffffffffffffffffffff021916908373ffffffffffffffffffffffffffffffffffffffff16021790555060405161087390610bfb565b604051809103906000f08015801561088f573d6000803e3d6000fd5b50606660006101000a81548173ffffffffffffffffffffffffffffffffffffffff021916908373ffffffffffffffffffffffffffffffffffffffff1602179055507f9a4f6a75d2ee8c56cf3c990e1437ded6e6ffaeb96f8ae15816ce342b9916e24560405160405180910390a1801561091d5760008060016101000a81548160ff0219169083151502179055505b5050565b606660009054906101000a900473ffffffffffffffffffffffffffffffffffffffff1681565b61094f610a3f565b73ffffffffffffffffffffffffffffffffffffffff1661096d6104f0565b73ffffffffffffffffffffffffffffffffffffffff16146109c3576040517f08c379a00000000000000000000000000000000000000000000000000000000081526004016109ba90610e6f565b60405180910390fd5b600073ffffffffffffffffffffffffffffffffffffffff168173ffffffffffffffffffffffffffffffffffffffff161415610a33576040517f08c379a0000000000000000000000000000000000000000000000000000000008152600401610a2a90610e2f565b60405180910390fd5b610a3c81610a47565b50565b600033905090565b6000603360009054906101000a900473ffffffffffffffffffffffffffffffffffffffff16905081603360006101000a81548173ffffffffffffffffffffffffffffffffffffffff021916908373ffffffffffffffffffffffffffffffffffffffff1602179055508173ffffffffffffffffffffffffffffffffffffffff168173ffffffffffffffffffffffffffffffffffffffff167f8be0079c531659141344cd1fd0a4f28419497f9722a3daafe3b4186f6b6457e060405160405180910390a35050565b6000610b1830610b77565b15905090565b600060019054906101000a900460ff16610b6d576040517f08c379a0000000000000000000000000000000000000000000000000000000008152600401610b6490610e8f565b60405180910390fd5b610b75610b9a565b565b6000808273ffffffffffffffffffffffffffffffffffffffff163b119050919050565b600060019054906101000a900460ff16610be9576040517f08c379a0000000000000000000000000000000000000000000000000000000008152600401610be090610e8f565b60405180910390fd5b610bf9610bf4610a3f565b610a47565b565b610f5c8061112683390190565b600081359050610c17816110e0565b92915050565b600081359050610c2c816110f7565b92915050565b600081519050610c418161110e565b92915050565b600060208284031215610c5d57610c5c610fc5565b5b6000610c6b84828501610c08565b91505092915050565b600060208284031215610c8a57610c89610fc5565b5b6000610c9884828501610c1d565b91505092915050565b600060208284031215610cb757610cb6610fc5565b5b6000610cc584828501610c32565b91505092915050565b610cd781610f7d565b82525050565b610ce681610f23565b82525050565b610cf581610f11565b82525050565b610d0481610f8f565b82525050565b6000610d17602683610f00565b9150610d2282610fca565b604082019050919050565b6000610d3a602e83610f00565b9150610d4582611019565b604082019050919050565b6000610d5d602083610f00565b9150610d6882611068565b602082019050919050565b6000610d80602b83610f00565b9150610d8b82611091565b604082019050919050565b610d9f81610f35565b82525050565b610dae81610f63565b82525050565b610dbd81610f6d565b82525050565b6000602082019050610dd86000830184610cec565b92915050565b6000602082019050610df36000830184610cce565b92915050565b6000602082019050610e0e6000830184610cdd565b92915050565b6000602082019050610e296000830184610cfb565b92915050565b60006020820190508181036000830152610e4881610d0a565b9050919050565b60006020820190508181036000830152610e6881610d2d565b9050919050565b60006020820190508181036000830152610e8881610d50565b9050919050565b60006020820190508181036000830152610ea881610d73565b9050919050565b6000602082019050610ec46000830184610d96565b92915050565b6000602082019050610edf6000830184610da5565b92915050565b6000602082019050610efa6000830184610db4565b92915050565b600082825260208201905092915050565b6000610f1c82610f43565b9050919050565b6000610f2e82610f43565b9050919050565b600061ffff82169050919050565b600073ffffffffffffffffffffffffffffffffffffffff82169050919050565b6000819050919050565b600063ffffffff82169050919050565b6000610f8882610fa1565b9050919050565b6000610f9a82610fa1565b9050919050565b6000610fac82610fb3565b9050919050565b6000610fbe82610f43565b9050919050565b600080fd5b7f4f776e61626c653a206e6577206f776e657220697320746865207a65726f206160008201527f6464726573730000000000000000000000000000000000000000000000000000602082015250565b7f496e697469616c697a61626c653a20636f6e747261637420697320616c72656160008201527f647920696e697469616c697a6564000000000000000000000000000000000000602082015250565b7f4f776e61626c653a2063616c6c6572206973206e6f7420746865206f776e6572600082015250565b7f496e697469616c697a61626c653a20636f6e7472616374206973206e6f74206960008201527f6e697469616c697a696e67000000000000000000000000000000000000000000602082015250565b6110e981610f11565b81146110f457600080fd5b50565b61110081610f23565b811461110b57600080fd5b50565b61111781610f63565b811461112257600080fd5b5056fe608060405234801561001057600080fd5b50610f3c806100206000396000f3fe6080604052600436106100705760003560e01c80638da5cb5b1161004e5780638da5cb5b146100cc578063e3a9db1a146100f7578063f2fde38b14610134578063f340fa011461015d57610070565b806351cff8d914610075578063715018a61461009e5780638129fc1c146100b5575b600080fd5b34801561008157600080fd5b5061009c60048036038101906100979190610a08565b610179565b005b3480156100aa57600080fd5b506100b36102f9565b005b3480156100c157600080fd5b506100ca610381565b005b3480156100d857600080fd5b506100e161046d565b6040516100ee9190610b5d565b60405180910390f35b34801561010357600080fd5b5061011e600480360381019061011991906109db565b610497565b60405161012b9190610c38565b60405180910390f35b34801561014057600080fd5b5061015b600480360381019061015691906109db565b6104e0565b005b610177600480360381019061017291906109db565b6105d8565b005b610181610701565b73ffffffffffffffffffffffffffffffffffffffff1661019f61046d565b73ffffffffffffffffffffffffffffffffffffffff16146101f5576040517f08c379a00000000000000000000000000000000000000000000000000000000081526004016101ec90610bf8565b60405180910390fd5b6000606560008373ffffffffffffffffffffffffffffffffffffffff1673ffffffffffffffffffffffffffffffffffffffff1681526020019081526020016000205490506000606560008473ffffffffffffffffffffffffffffffffffffffff1673ffffffffffffffffffffffffffffffffffffffff168152602001908152602001600020819055506102a7818373ffffffffffffffffffffffffffffffffffffffff1661070990919063ffffffff16565b8173ffffffffffffffffffffffffffffffffffffffff167f7084f5476618d8e60b11ef0d7d3f06914655adb8793e28ff7f018d4c76d505d5826040516102ed9190610c38565b60405180910390a25050565b610301610701565b73ffffffffffffffffffffffffffffffffffffffff1661031f61046d565b73ffffffffffffffffffffffffffffffffffffffff1614610375576040517f08c379a000000000000000000000000000000000000000000000000000000000815260040161036c90610bf8565b60405180910390fd5b61037f60006107fd565b565b600060019054906101000a900460ff166103a95760008054906101000a900460ff16156103b2565b6103b16108c3565b5b6103f1576040517f08c379a00000000000000000000000000000000000000000000000000000000081526004016103e890610bd8565b60405180910390fd5b60008060019054906101000a900460ff161590508015610441576001600060016101000a81548160ff02191690831515021790555060016000806101000a81548160ff0219169083151502179055505b6104496108d4565b801561046a5760008060016101000a81548160ff0219169083151502179055505b50565b6000603360009054906101000a900473ffffffffffffffffffffffffffffffffffffffff16905090565b6000606560008373ffffffffffffffffffffffffffffffffffffffff1673ffffffffffffffffffffffffffffffffffffffff168152602001908152602001600020549050919050565b6104e8610701565b73ffffffffffffffffffffffffffffffffffffffff1661050661046d565b73ffffffffffffffffffffffffffffffffffffffff161461055c576040517f08c379a000000000000000000000000000000000000000000000000000000000815260040161055390610bf8565b60405180910390fd5b600073ffffffffffffffffffffffffffffffffffffffff168173ffffffffffffffffffffffffffffffffffffffff1614156105cc576040517f08c379a00000000000000000000000000000000000000000000000000000000081526004016105c390610b78565b60405180910390fd5b6105d5816107fd565b50565b6105e0610701565b73ffffffffffffffffffffffffffffffffffffffff166105fe61046d565b73ffffffffffffffffffffffffffffffffffffffff1614610654576040517f08c379a000000000000000000000000000000000000000000000000000000000815260040161064b90610bf8565b60405180910390fd5b600034905080606560008473ffffffffffffffffffffffffffffffffffffffff1673ffffffffffffffffffffffffffffffffffffffff16815260200190815260200160002060008282546106a89190610c6f565b925050819055508173ffffffffffffffffffffffffffffffffffffffff167f2da466a7b24304f47e87fa2e1e5a81b9831ce54fec19055ce277ca2f39ba42c4826040516106f59190610c38565b60405180910390a25050565b600033905090565b8047101561074c576040517f08c379a000000000000000000000000000000000000000000000000000000000815260040161074390610bb8565b60405180910390fd5b60008273ffffffffffffffffffffffffffffffffffffffff168260405161077290610b48565b60006040518083038185875af1925050503d80600081146107af576040519150601f19603f3d011682016040523d82523d6000602084013e6107b4565b606091505b50509050806107f8576040517f08c379a00000000000000000000000000000000000000000000000000000000081526004016107ef90610b98565b60405180910390fd5b505050565b6000603360009054906101000a900473ffffffffffffffffffffffffffffffffffffffff16905081603360006101000a81548173ffffffffffffffffffffffffffffffffffffffff021916908373ffffffffffffffffffffffffffffffffffffffff1602179055508173ffffffffffffffffffffffffffffffffffffffff168173ffffffffffffffffffffffffffffffffffffffff167f8be0079c531659141344cd1fd0a4f28419497f9722a3daafe3b4186f6b6457e060405160405180910390a35050565b60006108ce3061092d565b15905090565b600060019054906101000a900460ff16610923576040517f08c379a000000000000000000000000000000000000000000000000000000000815260040161091a90610c18565b60405180910390fd5b61092b610950565b565b6000808273ffffffffffffffffffffffffffffffffffffffff163b119050919050565b600060019054906101000a900460ff1661099f576040517f08c379a000000000000000000000000000000000000000000000000000000000815260040161099690610c18565b60405180910390fd5b6109af6109aa610701565b6107fd565b565b6000813590506109c081610ed8565b92915050565b6000813590506109d581610eef565b92915050565b6000602082840312156109f1576109f0610d42565b5b60006109ff848285016109b1565b91505092915050565b600060208284031215610a1e57610a1d610d42565b5b6000610a2c848285016109c6565b91505092915050565b610a3e81610cc5565b82525050565b6000610a51602683610c5e565b9150610a5c82610d47565b604082019050919050565b6000610a74603a83610c5e565b9150610a7f82610d96565b604082019050919050565b6000610a97601d83610c5e565b9150610aa282610de5565b602082019050919050565b6000610aba602e83610c5e565b9150610ac582610e0e565b604082019050919050565b6000610add602083610c5e565b9150610ae882610e5d565b602082019050919050565b6000610b00600083610c53565b9150610b0b82610e86565b600082019050919050565b6000610b23602b83610c5e565b9150610b2e82610e89565b604082019050919050565b610b4281610d09565b82525050565b6000610b5382610af3565b9150819050919050565b6000602082019050610b726000830184610a35565b92915050565b60006020820190508181036000830152610b9181610a44565b9050919050565b60006020820190508181036000830152610bb181610a67565b9050919050565b60006020820190508181036000830152610bd181610a8a565b9050919050565b60006020820190508181036000830152610bf181610aad565b9050919050565b60006020820190508181036000830152610c1181610ad0565b9050919050565b60006020820190508181036000830152610c3181610b16565b9050919050565b6000602082019050610c4d6000830184610b39565b92915050565b600081905092915050565b600082825260208201905092915050565b6000610c7a82610d09565b9150610c8583610d09565b9250827fffffffffffffffffffffffffffffffffffffffffffffffffffffffffffffffff03821115610cba57610cb9610d13565b5b828201905092915050565b6000610cd082610ce9565b9050919050565b6000610ce282610ce9565b9050919050565b600073ffffffffffffffffffffffffffffffffffffffff82169050919050565b6000819050919050565b7f4e487b7100000000000000000000000000000000000000000000000000000000600052601160045260246000fd5b600080fd5b7f4f776e61626c653a206e6577206f776e657220697320746865207a65726f206160008201527f6464726573730000000000000000000000000000000000000000000000000000602082015250565b7f416464726573733a20756e61626c6520746f2073656e642076616c75652c207260008201527f6563697069656e74206d61792068617665207265766572746564000000000000602082015250565b7f416464726573733a20696e73756666696369656e742062616c616e6365000000600082015250565b7f496e697469616c697a61626c653a20636f6e747261637420697320616c72656160008201527f647920696e697469616c697a6564000000000000000000000000000000000000602082015250565b7f4f776e61626c653a2063616c6c6572206973206e6f7420746865206f776e6572600082015250565b50565b7f496e697469616c697a61626c653a20636f6e7472616374206973206e6f74206960008201527f6e697469616c697a696e67000000000000000000000000000000000000000000602082015250565b610ee181610cc5565b8114610eec57600080fd5b50565b610ef881610cd7565b8114610f0357600080fd5b5056fea26469706673582212207ca0bf625d88367813e1d4ad51630ec92235e7a1c37d585d4a7facd46efa7f8c64736f6c63430008070033a2646970667358221220317f896c418642bf35081f423d2a9e65cff596aef07ec69460f89f0f351e2c0f64736f6c63430008070033",
  "linkReferences": {},
  "deployedLinkReferences": {}
}