{
  "contracts/Airdrop.sol": {
    "Airdrop": {
      "abi": [
        {
          "inputs": [
            {
              "internalType": "uint64",
              "name": "subscriptionId",
              "type": "uint64"
            },
            {
              "internalType": "address",
              "name": "vrfCoordinator",
              "type": "address"
            },
            {
              "internalType": "address",
              "name": "link",
              "type": "address"
            },
            {
              "internalType": "bytes32",
              "name": "keyHash",
              "type": "bytes32"
            },
            {
              "internalType": "address",
              "name": "_token",
              "type": "address"
            },
            {
              "internalType": "uint256",
              "name": "updateInterval",
              "type": "uint256"
            }
          ],
          "stateMutability": "nonpayable",
          "type": "constructor"
        },
        {
          "inputs": [
            {
              "internalType": "address",
              "name": "have",
              "type": "address"
            },
            {
              "internalType": "address",
              "name": "want",
              "type": "address"
            }
          ],
          "name": "OnlyCoordinatorCanFulfill",
          "type": "error"
        },
        {
          "anonymous": false,
          "inputs": [
            {
              "indexed": false,
              "internalType": "uint256[]",
              "name": "randomWords",
              "type": "uint256[]"
            }
          ],
          "name": "AirDropDone",
          "type": "event"
        },
        {
          "anonymous": false,
          "inputs": [
            {
              "indexed": true,
              "internalType": "address",
              "name": "previousOwner",
              "type": "address"
            }
          ],
          "name": "OwnershipRenounced",
          "type": "event"
        },
        {
          "anonymous": false,
          "inputs": [
            {
              "indexed": true,
              "internalType": "address",
              "name": "previousOwner",
              "type": "address"
            },
            {
              "indexed": true,
              "internalType": "address",
              "name": "newOwner",
              "type": "address"
            }
          ],
          "name": "OwnershipTransferred",
          "type": "event"
        },
        {
          "anonymous": false,
          "inputs": [
            {
              "indexed": false,
              "internalType": "uint256",
              "name": "requestId",
              "type": "uint256"
            },
            {
              "indexed": false,
              "internalType": "uint256[]",
              "name": "randomWords",
              "type": "uint256[]"
            }
          ],
          "name": "ReturnedRandomness",
          "type": "event"
        },
        {
          "inputs": [
            {
              "components": [
                {
                  "internalType": "address payable",
                  "name": "payee",
                  "type": "address"
                },
                {
                  "internalType": "uint256",
                  "name": "amount",
                  "type": "uint256"
                }
              ],
              "internalType": "struct Airdrop.PaymentInfo[]",
              "name": "info",
              "type": "tuple[]"
            }
          ],
          "name": "batchPayout",
          "outputs": [],
          "stateMutability": "nonpayable",
          "type": "function"
        },
        {
          "inputs": [
            {
              "internalType": "bytes",
              "name": "checkData",
              "type": "bytes"
            }
          ],
          "name": "checkUpkeep",
          "outputs": [
            {
              "internalType": "bool",
              "name": "upkeepNeeded",
              "type": "bool"
            },
            {
              "internalType": "bytes",
              "name": "performData",
              "type": "bytes"
            }
          ],
          "stateMutability": "view",
          "type": "function"
        },
        {
          "inputs": [],
          "name": "counter",
          "outputs": [
            {
              "internalType": "uint256",
              "name": "",
              "type": "uint256"
            }
          ],
          "stateMutability": "view",
          "type": "function"
        },
        {
          "inputs": [],
          "name": "interval",
          "outputs": [
            {
              "internalType": "uint256",
              "name": "",
              "type": "uint256"
            }
          ],
          "stateMutability": "view",
          "type": "function"
        },
        {
          "inputs": [],
          "name": "isOwner",
          "outputs": [
            {
              "internalType": "bool",
              "name": "",
              "type": "bool"
            }
          ],
          "stateMutability": "view",
          "type": "function"
        },
        {
          "inputs": [],
          "name": "lastTimeStamp",
          "outputs": [
            {
              "internalType": "uint256",
              "name": "",
              "type": "uint256"
            }
          ],
          "stateMutability": "view",
          "type": "function"
        },
        {
          "inputs": [],
          "name": "owner",
          "outputs": [
            {
              "internalType": "address",
              "name": "",
              "type": "address"
            }
          ],
          "stateMutability": "view",
          "type": "function"
        },
        {
          "inputs": [
            {
              "internalType": "bytes",
              "name": "",
              "type": "bytes"
            }
          ],
          "name": "performUpkeep",
          "outputs": [],
          "stateMutability": "nonpayable",
          "type": "function"
        },
        {
          "inputs": [
            {
              "internalType": "uint256",
              "name": "requestId",
              "type": "uint256"
            },
            {
              "internalType": "uint256[]",
              "name": "randomWords",
              "type": "uint256[]"
            }
          ],
          "name": "rawFulfillRandomWords",
          "outputs": [],
          "stateMutability": "nonpayable",
          "type": "function"
        },
        {
          "inputs": [],
          "name": "renounceOwnership",
          "outputs": [],
          "stateMutability": "nonpayable",
          "type": "function"
        },
        {
          "inputs": [],
          "name": "requestRandomWords",
          "outputs": [],
          "stateMutability": "nonpayable",
          "type": "function"
        },
        {
          "inputs": [
            {
              "internalType": "uint256",
              "name": "",
              "type": "uint256"
            }
          ],
          "name": "s_randomWords",
          "outputs": [
            {
              "internalType": "uint256",
              "name": "",
              "type": "uint256"
            }
          ],
          "stateMutability": "view",
          "type": "function"
        },
        {
          "inputs": [],
          "name": "s_requestId",
          "outputs": [
            {
              "internalType": "uint256",
              "name": "",
              "type": "uint256"
            }
          ],
          "stateMutability": "view",
          "type": "function"
        },
        {
          "inputs": [
            {
              "internalType": "address",
              "name": "to",
              "type": "address"
            },
            {
              "internalType": "uint256",
              "name": "amount",
              "type": "uint256"
            }
          ],
          "name": "transfer",
          "outputs": [],
          "stateMutability": "nonpayable",
          "type": "function"
        },
        {
          "inputs": [
            {
              "internalType": "address",
              "name": "newOwner",
              "type": "address"
            }
          ],
          "name": "transferOwnership",
          "outputs": [],
          "stateMutability": "nonpayable",
          "type": "function"
        }
      ],
      "evm": {
        "bytecode": {
          "linkReferences": {},
          "object": "6101e0604052620186a063ffffffff166101209063ffffffff1660e01b815250600361ffff166101409061ffff1660f01b815250600a63ffffffff166101609063ffffffff1660e01b815250600961ffff166101809061ffff1660f01b815250600061ffff166101a09061ffff1660f01b8152503480156200008057600080fd5b5060405162002030380380620020308339818101604052810190620000a69190620002b7565b848073ffffffffffffffffffffffffffffffffffffffff1660808173ffffffffffffffffffffffffffffffffffffffff1660601b8152505050336000806101000a81548173ffffffffffffffffffffffffffffffffffffffff021916908373ffffffffffffffffffffffffffffffffffffffff1602179055508473ffffffffffffffffffffffffffffffffffffffff1660a08173ffffffffffffffffffffffffffffffffffffffff1660601b815250508373ffffffffffffffffffffffffffffffffffffffff1660c08173ffffffffffffffffffffffffffffffffffffffff1660601b8152505082610100818152505033600460006101000a81548173ffffffffffffffffffffffffffffffffffffffff021916908373ffffffffffffffffffffffffffffffffffffffff1602179055508567ffffffffffffffff1660e08167ffffffffffffffff1660c01b8152505081600160006101000a81548173ffffffffffffffffffffffffffffffffffffffff021916908373ffffffffffffffffffffffffffffffffffffffff160217905550806101c081815250504260078190555060006006819055505050505050506200041c565b6000815190506200026c81620003b4565b92915050565b6000815190506200028381620003ce565b92915050565b6000815190506200029a81620003e8565b92915050565b600081519050620002b18162000402565b92915050565b60008060008060008060c08789031215620002d757620002d6620003af565b5b6000620002e789828a01620002a0565b9650506020620002fa89828a016200025b565b95505060406200030d89828a016200025b565b94505060606200032089828a0162000272565b93505060806200033389828a016200025b565b92505060a06200034689828a0162000289565b9150509295509295509295565b6000620003608262000371565b9050919050565b6000819050919050565b600073ffffffffffffffffffffffffffffffffffffffff82169050919050565b6000819050919050565b600067ffffffffffffffff82169050919050565b600080fd5b620003bf8162000353565b8114620003cb57600080fd5b50565b620003d98162000367565b8114620003e557600080fd5b50565b620003f38162000391565b8114620003ff57600080fd5b50565b6200040d816200039b565b81146200041957600080fd5b50565b60805160601c60a05160601c60c05160601c60e05160c01c610100516101205160e01c6101405160f01c6101605160e01c6101805160f01c6101a05160f01c6101c051611b59620004d7600039600081816106550152818161071b01526108d201526000818161037c01526103a3015260006103c401526000610a8c01526000610a4a01526000610a6b01526000610a0801526000610a2901526000505060006109cc01526000818161058f01526105e30152611b596000f3fe608060405234801561001057600080fd5b50600436106100f55760003560e01c80638da5cb5b11610097578063e0c8628911610066578063e0c862891461023b578063e89e106a14610245578063f2fde38b14610263578063f6eaffc81461027f576100f5565b80638da5cb5b146101c55780638f32d59b146101e3578063947a36fb14610201578063a9059cbb1461021f576100f5565b80634585e33b116100d35780634585e33b1461015057806361bc221a1461016c5780636e04ff0d1461018a578063715018a6146101bb576100f5565b8063122a5ff2146100fa5780631fe543e3146101165780633f3b3b2714610132575b600080fd5b610114600480360381019061010f9190610f8f565b6102af565b005b610130600480360381019061012b91906110b0565b61058d565b005b61013a61064d565b604051610147919061152d565b60405180910390f35b61016a60048036038101906101659190611009565b610653565b005b61017461070f565b604051610181919061152d565b60405180910390f35b6101a4600480360381019061019f9190611009565b610715565b6040516101b292919061148a565b60405180910390f35b6101c3610799565b005b6101cd610850565b6040516101da9190611395565b60405180910390f35b6101eb610879565b6040516101f8919061146f565b60405180910390f35b6102096108d0565b604051610216919061152d565b60405180910390f35b61023960048036038101906102349190610f4f565b6108f4565b005b6102436109b9565b005b61024d610b25565b60405161025a919061152d565b60405180910390f35b61027d60048036038101906102789190610ef5565b610b2b565b005b61029960048036038101906102949190611056565b610b48565b6040516102a6919061152d565b60405180910390f35b6102b7610879565b6102c057600080fd5b3073ffffffffffffffffffffffffffffffffffffffff1663e0c862896040518163ffffffff1660e01b8152600401600060405180830381600087803b15801561030857600080fd5b505af115801561031c573d6000803e3d6000fd5b50505050600a60028054905014610368576040517f08c379a000000000000000000000000000000000000000000000000000000000815260040161035f9061150d565b60405180910390fd5b60005b6002805490508110156105425760007f000000000000000000000000000000000000000000000000000000000000000061ffff1660017f00000000000000000000000000000000000000000000000000000000000000007f00000000000000000000000000000000000000000000000000000000000000006103ed9190611728565b6103f7919061169a565b61ffff166002848154811061040f5761040e6119f6565b5b90600052602060002001546104249190611967565b61042e91906116d2565b9050600160009054906101000a900473ffffffffffffffffffffffffffffffffffffffff1673ffffffffffffffffffffffffffffffffffffffff1663a9059cbb85858461ffff16818110610485576104846119f6565b5b905060400201600001602081019061049d9190610f22565b86868561ffff168181106104b4576104b36119f6565b5b905060400201602001356040518363ffffffff1660e01b81526004016104db9291906113b0565b602060405180830381600087803b1580156104f557600080fd5b505af1158015610509573d6000803e3d6000fd5b505050506040513d601f19601f8201168201806040525081019061052d9190610fdc565b5050808061053a9061191e565b91505061036b565b507f5f2caec44462cc776617b709f7771f868cda0d89f546036217da26657bc3bef26002604051610573919061144d565b60405180910390a1600260006105899190610cb7565b5050565b7f000000000000000000000000000000000000000000000000000000000000000073ffffffffffffffffffffffffffffffffffffffff163373ffffffffffffffffffffffffffffffffffffffff161461063f57337f00000000000000000000000000000000000000000000000000000000000000006040517f1cf993f40000000000000000000000000000000000000000000000000000000081526004016106369291906113d9565b60405180910390fd5b6106498282610b6c565b5050565b60075481565b7f000000000000000000000000000000000000000000000000000000000000000060075442610682919061175c565b111561070b5742600781905550600a600580549050111561070a573073ffffffffffffffffffffffffffffffffffffffff1663122a5ff260056040518263ffffffff1660e01b81526004016106d7919061142b565b600060405180830381600087803b1580156106f157600080fd5b505af1158015610705573d6000803e3d6000fd5b505050505b5b5050565b60065481565b600060607f000000000000000000000000000000000000000000000000000000000000000060075442610748919061175c565b11915083838080601f016020809104026020016040519081016040528093929190818152602001838380828437600081840152601f19601f8201169050808301925050505050505090509250929050565b6107a1610879565b6107aa57600080fd5b60008054906101000a900473ffffffffffffffffffffffffffffffffffffffff1673ffffffffffffffffffffffffffffffffffffffff167ff8df31144d9c2f0f6b59d69b8b98abd5459d07f2742c4df920b25aae33c6482060405160405180910390a260008060006101000a81548173ffffffffffffffffffffffffffffffffffffffff021916908373ffffffffffffffffffffffffffffffffffffffff160217905550565b60008060009054906101000a900473ffffffffffffffffffffffffffffffffffffffff16905090565b60008060009054906101000a900473ffffffffffffffffffffffffffffffffffffffff1673ffffffffffffffffffffffffffffffffffffffff163373ffffffffffffffffffffffffffffffffffffffff1614905090565b7f000000000000000000000000000000000000000000000000000000000000000081565b6108fc610879565b61090557600080fd5b600160009054906101000a900473ffffffffffffffffffffffffffffffffffffffff1673ffffffffffffffffffffffffffffffffffffffff1663a9059cbb83836040518363ffffffff1660e01b8152600401610962929190611402565b602060405180830381600087803b15801561097c57600080fd5b505af1158015610990573d6000803e3d6000fd5b505050506040513d601f19601f820116820180604052508101906109b49190610fdc565b505050565b6109c1610879565b6109ca57600080fd5b7f000000000000000000000000000000000000000000000000000000000000000073ffffffffffffffffffffffffffffffffffffffff16635d3b1d307f00000000000000000000000000000000000000000000000000000000000000007f00000000000000000000000000000000000000000000000000000000000000007f00000000000000000000000000000000000000000000000000000000000000007f00000000000000000000000000000000000000000000000000000000000000007f00000000000000000000000000000000000000000000000000000000000000006040518663ffffffff1660e01b8152600401610acb9594939291906114ba565b602060405180830381600087803b158015610ae557600080fd5b505af1158015610af9573d6000803e3d6000fd5b505050506040513d601f19601f82011682018060405250810190610b1d9190611083565b600381905550565b60035481565b610b33610879565b610b3c57600080fd5b610b4581610bc0565b50565b60028181548110610b5857600080fd5b906000526020600020016000915090505481565b8060029080519060200190610b82929190610cd8565b507f68f6adf8851f96fb54bce56dbb5ff1bc6b368aeaf5d3d1aedc38fb1548d354678282604051610bb4929190611548565b60405180910390a15050565b600073ffffffffffffffffffffffffffffffffffffffff168173ffffffffffffffffffffffffffffffffffffffff161415610bfa57600080fd5b8073ffffffffffffffffffffffffffffffffffffffff1660008054906101000a900473ffffffffffffffffffffffffffffffffffffffff1673ffffffffffffffffffffffffffffffffffffffff167f8be0079c531659141344cd1fd0a4f28419497f9722a3daafe3b4186f6b6457e060405160405180910390a3806000806101000a81548173ffffffffffffffffffffffffffffffffffffffff021916908373ffffffffffffffffffffffffffffffffffffffff16021790555050565b5080546000825590600052602060002090810190610cd59190610d25565b50565b828054828255906000526020600020908101928215610d14579160200282015b82811115610d13578251825591602001919060010190610cf8565b5b509050610d219190610d25565b5090565b5b80821115610d3e576000816000905550600101610d26565b5090565b6000610d55610d508461159d565b611578565b90508083825260208201905082856020860282011115610d7857610d77611a71565b5b60005b85811015610da85781610d8e8882610ecb565b845260208401935060208301925050600181019050610d7b565b5050509392505050565b600081359050610dc181611ac7565b92915050565b600081359050610dd681611ade565b92915050565b60008083601f840112610df257610df1611a6c565b5b8235905067ffffffffffffffff811115610e0f57610e0e611a67565b5b602083019150836040820283011115610e2b57610e2a611a71565b5b9250929050565b600082601f830112610e4757610e46611a6c565b5b8135610e57848260208601610d42565b91505092915050565b600081519050610e6f81611af5565b92915050565b60008083601f840112610e8b57610e8a611a6c565b5b8235905067ffffffffffffffff811115610ea857610ea7611a67565b5b602083019150836001820283011115610ec457610ec3611a71565b5b9250929050565b600081359050610eda81611b0c565b92915050565b600081519050610eef81611b0c565b92915050565b600060208284031215610f0b57610f0a611a7b565b5b6000610f1984828501610db2565b91505092915050565b600060208284031215610f3857610f37611a7b565b5b6000610f4684828501610dc7565b91505092915050565b60008060408385031215610f6657610f65611a7b565b5b6000610f7485828601610db2565b9250506020610f8585828601610ecb565b9150509250929050565b60008060208385031215610fa657610fa5611a7b565b5b600083013567ffffffffffffffff811115610fc457610fc3611a76565b5b610fd085828601610ddc565b92509250509250929050565b600060208284031215610ff257610ff1611a7b565b5b600061100084828501610e60565b91505092915050565b600080602083850312156110205761101f611a7b565b5b600083013567ffffffffffffffff81111561103e5761103d611a76565b5b61104a85828601610e75565b92509250509250929050565b60006020828403121561106c5761106b611a7b565b5b600061107a84828501610ecb565b91505092915050565b60006020828403121561109957611098611a7b565b5b60006110a784828501610ee0565b91505092915050565b600080604083850312156110c7576110c6611a7b565b5b60006110d585828601610ecb565b925050602083013567ffffffffffffffff8111156110f6576110f5611a76565b5b61110285828601610e32565b9150509250929050565b60006111188383611303565b60408301905092915050565b60006111308383611359565b60208301905092915050565b61114581611850565b82525050565b611154816117cc565b82525050565b611163816117ba565b82525050565b600061117482611603565b61117e8185611656565b9350611189836115c9565b8060005b838110156111b957816111a0888261110c565b97506111ab8361162f565b92505060018101905061118d565b5085935050505092915050565b60006111d18261160e565b6111db8185611667565b93506111e6836115de565b8060005b838110156112175781516111fe8882611124565b97506112098361163c565b9250506001810190506111ea565b5085935050505092915050565b600061122f82611619565b6112398185611667565b9350611244836115ee565b8060005b8381101561127c5761125982611a54565b6112638882611124565b975061126e83611649565b925050600181019050611248565b5085935050505092915050565b611292816117de565b82525050565b6112a1816117ea565b82525050565b60006112b282611624565b6112bc8185611678565b93506112cc818560208601611886565b6112d581611a80565b840191505092915050565b60006112ed601883611689565b91506112f882611a9e565b602082019050919050565b604082016000808301549050611318816118b9565b611325600086018261114b565b5060018301549050611336816118d3565b6113436020860182611359565b5050505050565b611353816117f4565b82525050565b61136281611822565b82525050565b61137181611822565b82525050565b6113808161182c565b82525050565b61138f8161183c565b82525050565b60006020820190506113aa600083018461115a565b92915050565b60006040820190506113c5600083018561113c565b6113d26020830184611368565b9392505050565b60006040820190506113ee600083018561115a565b6113fb602083018461115a565b9392505050565b6000604082019050611417600083018561115a565b6114246020830184611368565b9392505050565b600060208201905081810360008301526114458184611169565b905092915050565b600060208201905081810360008301526114678184611224565b905092915050565b60006020820190506114846000830184611289565b92915050565b600060408201905061149f6000830185611289565b81810360208301526114b181846112a7565b90509392505050565b600060a0820190506114cf6000830188611298565b6114dc6020830187611386565b6114e9604083018661134a565b6114f66060830185611377565b6115036080830184611377565b9695505050505050565b60006020820190508181036000830152611526816112e0565b9050919050565b60006020820190506115426000830184611368565b92915050565b600060408201905061155d6000830185611368565b818103602083015261156f81846111c6565b90509392505050565b6000611582611593565b905061158e82826118ed565b919050565b6000604051905090565b600067ffffffffffffffff8211156115b8576115b7611a25565b5b602082029050602081019050919050565b60008190508160005260206000209050919050565b6000819050602082019050919050565b60008190508160005260206000209050919050565b600081549050919050565b600081519050919050565b600081549050919050565b600081519050919050565b6000600282019050919050565b6000602082019050919050565b6000600182019050919050565b600082825260208201905092915050565b600082825260208201905092915050565b600082825260208201905092915050565b600082825260208201905092915050565b60006116a5826117f4565b91506116b0836117f4565b92508261ffff038211156116c7576116c6611998565b5b828201905092915050565b60006116dd82611822565b91506116e883611822565b9250827fffffffffffffffffffffffffffffffffffffffffffffffffffffffffffffffff0382111561171d5761171c611998565b5b828201905092915050565b6000611733826117f4565b915061173e836117f4565b92508282101561175157611750611998565b5b828203905092915050565b600061176782611822565b915061177283611822565b92508282101561178557611784611998565b5b828203905092915050565b600073ffffffffffffffffffffffffffffffffffffffff82169050919050565b6000819050919050565b60006117c582611802565b9050919050565b60006117d782611802565b9050919050565b60008115159050919050565b6000819050919050565b600061ffff82169050919050565b600073ffffffffffffffffffffffffffffffffffffffff82169050919050565b6000819050919050565b600063ffffffff82169050919050565b600067ffffffffffffffff82169050919050565b600061185b82611862565b9050919050565b600061186d82611874565b9050919050565b600061187f82611802565b9050919050565b60005b838110156118a4578082015181840152602081019050611889565b838111156118b3576000848401525b50505050565b60006118cc6118c783611a91565b611790565b9050919050565b60006118e66118e183611a91565b6117b0565b9050919050565b6118f682611a80565b810181811067ffffffffffffffff8211171561191557611914611a25565b5b80604052505050565b600061192982611822565b91507fffffffffffffffffffffffffffffffffffffffffffffffffffffffffffffffff82141561195c5761195b611998565b5b600182019050919050565b600061197282611822565b915061197d83611822565b92508261198d5761198c6119c7565b5b828206905092915050565b7f4e487b7100000000000000000000000000000000000000000000000000000000600052601160045260246000fd5b7f4e487b7100000000000000000000000000000000000000000000000000000000600052601260045260246000fd5b7f4e487b7100000000000000000000000000000000000000000000000000000000600052603260045260246000fd5b7f4e487b7100000000000000000000000000000000000000000000000000000000600052604160045260246000fd5b6000611a6082546118d3565b9050919050565b600080fd5b600080fd5b600080fd5b600080fd5b600080fd5b6000601f19601f8301169050919050565b60008160001c9050919050565b7f52616e646f6d20636f756e74206d7573742062652031302e0000000000000000600082015250565b611ad0816117ba565b8114611adb57600080fd5b50565b611ae7816117cc565b8114611af257600080fd5b50565b611afe816117de565b8114611b0957600080fd5b50565b611b1581611822565b8114611b2057600080fd5b5056fea26469706673582212202500822b94609fa9469e19237ad12a7073cf6156a4fb053f77c77809e4bf353264736f6c63430008070033",
          "opcodes": "PUSH2 0x1E0 PUSH1 0x40 MSTORE PUSH3 0x186A0 PUSH4 0xFFFFFFFF AND PUSH2 0x120 SWAP1 PUSH4 0xFFFFFFFF AND PUSH1 0xE0 SHL DUP2 MSTORE POP PUSH1 0x3 PUSH2 0xFFFF AND PUSH2 0x140 SWAP1 PUSH2 0xFFFF AND PUSH1 0xF0 SHL DUP2 MSTORE POP PUSH1 0xA PUSH4 0xFFFFFFFF AND PUSH2 0x160 SWAP1 PUSH4 0xFFFFFFFF AND PUSH1 0xE0 SHL DUP2 MSTORE POP PUSH1 0x9 PUSH2 0xFFFF AND PUSH2 0x180 SWAP1 PUSH2 0xFFFF AND PUSH1 0xF0 SHL DUP2 MSTORE POP PUSH1 0x0 PUSH2 0xFFFF AND PUSH2 0x1A0 SWAP1 PUSH2 0xFFFF AND PUSH1 0xF0 SHL DUP2 MSTORE POP CALLVALUE DUP1 ISZERO PUSH3 0x80 JUMPI PUSH1 0x0 DUP1 REVERT JUMPDEST POP PUSH1 0x40 MLOAD PUSH3 0x2030 CODESIZE SUB DUP1 PUSH3 0x2030 DUP4 CODECOPY DUP2 DUP2 ADD PUSH1 0x40 MSTORE DUP2 ADD SWAP1 PUSH3 0xA6 SWAP2 SWAP1 PUSH3 0x2B7 JUMP JUMPDEST DUP5 DUP1 PUSH20 0xFFFFFFFFFFFFFFFFFFFFFFFFFFFFFFFFFFFFFFFF AND PUSH1 0x80 DUP2 PUSH20 0xFFFFFFFFFFFFFFFFFFFFFFFFFFFFFFFFFFFFFFFF AND PUSH1 0x60 SHL DUP2 MSTORE POP POP POP CALLER PUSH1 0x0 DUP1 PUSH2 0x100 EXP DUP2 SLOAD DUP2 PUSH20 0xFFFFFFFFFFFFFFFFFFFFFFFFFFFFFFFFFFFFFFFF MUL NOT AND SWAP1 DUP4 PUSH20 0xFFFFFFFFFFFFFFFFFFFFFFFFFFFFFFFFFFFFFFFF AND MUL OR SWAP1 SSTORE POP DUP5 PUSH20 0xFFFFFFFFFFFFFFFFFFFFFFFFFFFFFFFFFFFFFFFF AND PUSH1 0xA0 DUP2 PUSH20 0xFFFFFFFFFFFFFFFFFFFFFFFFFFFFFFFFFFFFFFFF AND PUSH1 0x60 SHL DUP2 MSTORE POP POP DUP4 PUSH20 0xFFFFFFFFFFFFFFFFFFFFFFFFFFFFFFFFFFFFFFFF AND PUSH1 0xC0 DUP2 PUSH20 0xFFFFFFFFFFFFFFFFFFFFFFFFFFFFFFFFFFFFFFFF AND PUSH1 0x60 SHL DUP2 MSTORE POP POP DUP3 PUSH2 0x100 DUP2 DUP2 MSTORE POP POP CALLER PUSH1 0x4 PUSH1 0x0 PUSH2 0x100 EXP DUP2 SLOAD DUP2 PUSH20 0xFFFFFFFFFFFFFFFFFFFFFFFFFFFFFFFFFFFFFFFF MUL NOT AND SWAP1 DUP4 PUSH20 0xFFFFFFFFFFFFFFFFFFFFFFFFFFFFFFFFFFFFFFFF AND MUL OR SWAP1 SSTORE POP DUP6 PUSH8 0xFFFFFFFFFFFFFFFF AND PUSH1 0xE0 DUP2 PUSH8 0xFFFFFFFFFFFFFFFF AND PUSH1 0xC0 SHL DUP2 MSTORE POP POP DUP2 PUSH1 0x1 PUSH1 0x0 PUSH2 0x100 EXP DUP2 SLOAD DUP2 PUSH20 0xFFFFFFFFFFFFFFFFFFFFFFFFFFFFFFFFFFFFFFFF MUL NOT AND SWAP1 DUP4 PUSH20 0xFFFFFFFFFFFFFFFFFFFFFFFFFFFFFFFFFFFFFFFF AND MUL OR SWAP1 SSTORE POP DUP1 PUSH2 0x1C0 DUP2 DUP2 MSTORE POP POP TIMESTAMP PUSH1 0x7 DUP2 SWAP1 SSTORE POP PUSH1 0x0 PUSH1 0x6 DUP2 SWAP1 SSTORE POP POP POP POP POP POP POP PUSH3 0x41C JUMP JUMPDEST PUSH1 0x0 DUP2 MLOAD SWAP1 POP PUSH3 0x26C DUP2 PUSH3 0x3B4 JUMP JUMPDEST SWAP3 SWAP2 POP POP JUMP JUMPDEST PUSH1 0x0 DUP2 MLOAD SWAP1 POP PUSH3 0x283 DUP2 PUSH3 0x3CE JUMP JUMPDEST SWAP3 SWAP2 POP POP JUMP JUMPDEST PUSH1 0x0 DUP2 MLOAD SWAP1 POP PUSH3 0x29A DUP2 PUSH3 0x3E8 JUMP JUMPDEST SWAP3 SWAP2 POP POP JUMP JUMPDEST PUSH1 0x0 DUP2 MLOAD SWAP1 POP PUSH3 0x2B1 DUP2 PUSH3 0x402 JUMP JUMPDEST SWAP3 SWAP2 POP POP JUMP JUMPDEST PUSH1 0x0 DUP1 PUSH1 0x0 DUP1 PUSH1 0x0 DUP1 PUSH1 0xC0 DUP8 DUP10 SUB SLT ISZERO PUSH3 0x2D7 JUMPI PUSH3 0x2D6 PUSH3 0x3AF JUMP JUMPDEST JUMPDEST PUSH1 0x0 PUSH3 0x2E7 DUP10 DUP3 DUP11 ADD PUSH3 0x2A0 JUMP JUMPDEST SWAP7 POP POP PUSH1 0x20 PUSH3 0x2FA DUP10 DUP3 DUP11 ADD PUSH3 0x25B JUMP JUMPDEST SWAP6 POP POP PUSH1 0x40 PUSH3 0x30D DUP10 DUP3 DUP11 ADD PUSH3 0x25B JUMP JUMPDEST SWAP5 POP POP PUSH1 0x60 PUSH3 0x320 DUP10 DUP3 DUP11 ADD PUSH3 0x272 JUMP JUMPDEST SWAP4 POP POP PUSH1 0x80 PUSH3 0x333 DUP10 DUP3 DUP11 ADD PUSH3 0x25B JUMP JUMPDEST SWAP3 POP POP PUSH1 0xA0 PUSH3 0x346 DUP10 DUP3 DUP11 ADD PUSH3 0x289 JUMP JUMPDEST SWAP2 POP POP SWAP3 SWAP6 POP SWAP3 SWAP6 POP SWAP3 SWAP6 JUMP JUMPDEST PUSH1 0x0 PUSH3 0x360 DUP3 PUSH3 0x371 JUMP JUMPDEST SWAP1 POP SWAP2 SWAP1 POP JUMP JUMPDEST PUSH1 0x0 DUP2 SWAP1 POP SWAP2 SWAP1 POP JUMP JUMPDEST PUSH1 0x0 PUSH20 0xFFFFFFFFFFFFFFFFFFFFFFFFFFFFFFFFFFFFFFFF DUP3 AND SWAP1 POP SWAP2 SWAP1 POP JUMP JUMPDEST PUSH1 0x0 DUP2 SWAP1 POP SWAP2 SWAP1 POP JUMP JUMPDEST PUSH1 0x0 PUSH8 0xFFFFFFFFFFFFFFFF DUP3 AND SWAP1 POP SWAP2 SWAP1 POP JUMP JUMPDEST PUSH1 0x0 DUP1 REVERT JUMPDEST PUSH3 0x3BF DUP2 PUSH3 0x353 JUMP JUMPDEST DUP2 EQ PUSH3 0x3CB JUMPI PUSH1 0x0 DUP1 REVERT JUMPDEST POP JUMP JUMPDEST PUSH3 0x3D9 DUP2 PUSH3 0x367 JUMP JUMPDEST DUP2 EQ PUSH3 0x3E5 JUMPI PUSH1 0x0 DUP1 REVERT JUMPDEST POP JUMP JUMPDEST PUSH3 0x3F3 DUP2 PUSH3 0x391 JUMP JUMPDEST DUP2 EQ PUSH3 0x3FF JUMPI PUSH1 0x0 DUP1 REVERT JUMPDEST POP JUMP JUMPDEST PUSH3 0x40D DUP2 PUSH3 0x39B JUMP JUMPDEST DUP2 EQ PUSH3 0x419 JUMPI PUSH1 0x0 DUP1 REVERT JUMPDEST POP JUMP JUMPDEST PUSH1 0x80 MLOAD PUSH1 0x60 SHR PUSH1 0xA0 MLOAD PUSH1 0x60 SHR PUSH1 0xC0 MLOAD PUSH1 0x60 SHR PUSH1 0xE0 MLOAD PUSH1 0xC0 SHR PUSH2 0x100 MLOAD PUSH2 0x120 MLOAD PUSH1 0xE0 SHR PUSH2 0x140 MLOAD PUSH1 0xF0 SHR PUSH2 0x160 MLOAD PUSH1 0xE0 SHR PUSH2 0x180 MLOAD PUSH1 0xF0 SHR PUSH2 0x1A0 MLOAD PUSH1 0xF0 SHR PUSH2 0x1C0 MLOAD PUSH2 0x1B59 PUSH3 0x4D7 PUSH1 0x0 CODECOPY PUSH1 0x0 DUP2 DUP2 PUSH2 0x655 ADD MSTORE DUP2 DUP2 PUSH2 0x71B ADD MSTORE PUSH2 0x8D2 ADD MSTORE PUSH1 0x0 DUP2 DUP2 PUSH2 0x37C ADD MSTORE PUSH2 0x3A3 ADD MSTORE PUSH1 0x0 PUSH2 0x3C4 ADD MSTORE PUSH1 0x0 PUSH2 0xA8C ADD MSTORE PUSH1 0x0 PUSH2 0xA4A ADD MSTORE PUSH1 0x0 PUSH2 0xA6B ADD MSTORE PUSH1 0x0 PUSH2 0xA08 ADD MSTORE PUSH1 0x0 PUSH2 0xA29 ADD MSTORE PUSH1 0x0 POP POP PUSH1 0x0 PUSH2 0x9CC ADD MSTORE PUSH1 0x0 DUP2 DUP2 PUSH2 0x58F ADD MSTORE PUSH2 0x5E3 ADD MSTORE PUSH2 0x1B59 PUSH1 0x0 RETURN INVALID PUSH1 0x80 PUSH1 0x40 MSTORE CALLVALUE DUP1 ISZERO PUSH2 0x10 JUMPI PUSH1 0x0 DUP1 REVERT JUMPDEST POP PUSH1 0x4 CALLDATASIZE LT PUSH2 0xF5 JUMPI PUSH1 0x0 CALLDATALOAD PUSH1 0xE0 SHR DUP1 PUSH4 0x8DA5CB5B GT PUSH2 0x97 JUMPI DUP1 PUSH4 0xE0C86289 GT PUSH2 0x66 JUMPI DUP1 PUSH4 0xE0C86289 EQ PUSH2 0x23B JUMPI DUP1 PUSH4 0xE89E106A EQ PUSH2 0x245 JUMPI DUP1 PUSH4 0xF2FDE38B EQ PUSH2 0x263 JUMPI DUP1 PUSH4 0xF6EAFFC8 EQ PUSH2 0x27F JUMPI PUSH2 0xF5 JUMP JUMPDEST DUP1 PUSH4 0x8DA5CB5B EQ PUSH2 0x1C5 JUMPI DUP1 PUSH4 0x8F32D59B EQ PUSH2 0x1E3 JUMPI DUP1 PUSH4 0x947A36FB EQ PUSH2 0x201 JUMPI DUP1 PUSH4 0xA9059CBB EQ PUSH2 0x21F JUMPI PUSH2 0xF5 JUMP JUMPDEST DUP1 PUSH4 0x4585E33B GT PUSH2 0xD3 JUMPI DUP1 PUSH4 0x4585E33B EQ PUSH2 0x150 JUMPI DUP1 PUSH4 0x61BC221A EQ PUSH2 0x16C JUMPI DUP1 PUSH4 0x6E04FF0D EQ PUSH2 0x18A JUMPI DUP1 PUSH4 0x715018A6 EQ PUSH2 0x1BB JUMPI PUSH2 0xF5 JUMP JUMPDEST DUP1 PUSH4 0x122A5FF2 EQ PUSH2 0xFA JUMPI DUP1 PUSH4 0x1FE543E3 EQ PUSH2 0x116 JUMPI DUP1 PUSH4 0x3F3B3B27 EQ PUSH2 0x132 JUMPI JUMPDEST PUSH1 0x0 DUP1 REVERT JUMPDEST PUSH2 0x114 PUSH1 0x4 DUP1 CALLDATASIZE SUB DUP2 ADD SWAP1 PUSH2 0x10F SWAP2 SWAP1 PUSH2 0xF8F JUMP JUMPDEST PUSH2 0x2AF JUMP JUMPDEST STOP JUMPDEST PUSH2 0x130 PUSH1 0x4 DUP1 CALLDATASIZE SUB DUP2 ADD SWAP1 PUSH2 0x12B SWAP2 SWAP1 PUSH2 0x10B0 JUMP JUMPDEST PUSH2 0x58D JUMP JUMPDEST STOP JUMPDEST PUSH2 0x13A PUSH2 0x64D JUMP JUMPDEST PUSH1 0x40 MLOAD PUSH2 0x147 SWAP2 SWAP1 PUSH2 0x152D JUMP JUMPDEST PUSH1 0x40 MLOAD DUP1 SWAP2 SUB SWAP1 RETURN JUMPDEST PUSH2 0x16A PUSH1 0x4 DUP1 CALLDATASIZE SUB DUP2 ADD SWAP1 PUSH2 0x165 SWAP2 SWAP1 PUSH2 0x1009 JUMP JUMPDEST PUSH2 0x653 JUMP JUMPDEST STOP JUMPDEST PUSH2 0x174 PUSH2 0x70F JUMP JUMPDEST PUSH1 0x40 MLOAD PUSH2 0x181 SWAP2 SWAP1 PUSH2 0x152D JUMP JUMPDEST PUSH1 0x40 MLOAD DUP1 SWAP2 SUB SWAP1 RETURN JUMPDEST PUSH2 0x1A4 PUSH1 0x4 DUP1 CALLDATASIZE SUB DUP2 ADD SWAP1 PUSH2 0x19F SWAP2 SWAP1 PUSH2 0x1009 JUMP JUMPDEST PUSH2 0x715 JUMP JUMPDEST PUSH1 0x40 MLOAD PUSH2 0x1B2 SWAP3 SWAP2 SWAP1 PUSH2 0x148A JUMP JUMPDEST PUSH1 0x40 MLOAD DUP1 SWAP2 SUB SWAP1 RETURN JUMPDEST PUSH2 0x1C3 PUSH2 0x799 JUMP JUMPDEST STOP JUMPDEST PUSH2 0x1CD PUSH2 0x850 JUMP JUMPDEST PUSH1 0x40 MLOAD PUSH2 0x1DA SWAP2 SWAP1 PUSH2 0x1395 JUMP JUMPDEST PUSH1 0x40 MLOAD DUP1 SWAP2 SUB SWAP1 RETURN JUMPDEST PUSH2 0x1EB PUSH2 0x879 JUMP JUMPDEST PUSH1 0x40 MLOAD PUSH2 0x1F8 SWAP2 SWAP1 PUSH2 0x146F JUMP JUMPDEST PUSH1 0x40 MLOAD DUP1 SWAP2 SUB SWAP1 RETURN JUMPDEST PUSH2 0x209 PUSH2 0x8D0 JUMP JUMPDEST PUSH1 0x40 MLOAD PUSH2 0x216 SWAP2 SWAP1 PUSH2 0x152D JUMP JUMPDEST PUSH1 0x40 MLOAD DUP1 SWAP2 SUB SWAP1 RETURN JUMPDEST PUSH2 0x239 PUSH1 0x4 DUP1 CALLDATASIZE SUB DUP2 ADD SWAP1 PUSH2 0x234 SWAP2 SWAP1 PUSH2 0xF4F JUMP JUMPDEST PUSH2 0x8F4 JUMP JUMPDEST STOP JUMPDEST PUSH2 0x243 PUSH2 0x9B9 JUMP JUMPDEST STOP JUMPDEST PUSH2 0x24D PUSH2 0xB25 JUMP JUMPDEST PUSH1 0x40 MLOAD PUSH2 0x25A SWAP2 SWAP1 PUSH2 0x152D JUMP JUMPDEST PUSH1 0x40 MLOAD DUP1 SWAP2 SUB SWAP1 RETURN JUMPDEST PUSH2 0x27D PUSH1 0x4 DUP1 CALLDATASIZE SUB DUP2 ADD SWAP1 PUSH2 0x278 SWAP2 SWAP1 PUSH2 0xEF5 JUMP JUMPDEST PUSH2 0xB2B JUMP JUMPDEST STOP JUMPDEST PUSH2 0x299 PUSH1 0x4 DUP1 CALLDATASIZE SUB DUP2 ADD SWAP1 PUSH2 0x294 SWAP2 SWAP1 PUSH2 0x1056 JUMP JUMPDEST PUSH2 0xB48 JUMP JUMPDEST PUSH1 0x40 MLOAD PUSH2 0x2A6 SWAP2 SWAP1 PUSH2 0x152D JUMP JUMPDEST PUSH1 0x40 MLOAD DUP1 SWAP2 SUB SWAP1 RETURN JUMPDEST PUSH2 0x2B7 PUSH2 0x879 JUMP JUMPDEST PUSH2 0x2C0 JUMPI PUSH1 0x0 DUP1 REVERT JUMPDEST ADDRESS PUSH20 0xFFFFFFFFFFFFFFFFFFFFFFFFFFFFFFFFFFFFFFFF AND PUSH4 0xE0C86289 PUSH1 0x40 MLOAD DUP2 PUSH4 0xFFFFFFFF AND PUSH1 0xE0 SHL DUP2 MSTORE PUSH1 0x4 ADD PUSH1 0x0 PUSH1 0x40 MLOAD DUP1 DUP4 SUB DUP2 PUSH1 0x0 DUP8 DUP1 EXTCODESIZE ISZERO DUP1 ISZERO PUSH2 0x308 JUMPI PUSH1 0x0 DUP1 REVERT JUMPDEST POP GAS CALL ISZERO DUP1 ISZERO PUSH2 0x31C JUMPI RETURNDATASIZE PUSH1 0x0 DUP1 RETURNDATACOPY RETURNDATASIZE PUSH1 0x0 REVERT JUMPDEST POP POP POP POP PUSH1 0xA PUSH1 0x2 DUP1 SLOAD SWAP1 POP EQ PUSH2 0x368 JUMPI PUSH1 0x40 MLOAD PUSH32 0x8C379A000000000000000000000000000000000000000000000000000000000 DUP2 MSTORE PUSH1 0x4 ADD PUSH2 0x35F SWAP1 PUSH2 0x150D JUMP JUMPDEST PUSH1 0x40 MLOAD DUP1 SWAP2 SUB SWAP1 REVERT JUMPDEST PUSH1 0x0 JUMPDEST PUSH1 0x2 DUP1 SLOAD SWAP1 POP DUP2 LT ISZERO PUSH2 0x542 JUMPI PUSH1 0x0 PUSH32 0x0 PUSH2 0xFFFF AND PUSH1 0x1 PUSH32 0x0 PUSH32 0x0 PUSH2 0x3ED SWAP2 SWAP1 PUSH2 0x1728 JUMP JUMPDEST PUSH2 0x3F7 SWAP2 SWAP1 PUSH2 0x169A JUMP JUMPDEST PUSH2 0xFFFF AND PUSH1 0x2 DUP5 DUP2 SLOAD DUP2 LT PUSH2 0x40F JUMPI PUSH2 0x40E PUSH2 0x19F6 JUMP JUMPDEST JUMPDEST SWAP1 PUSH1 0x0 MSTORE PUSH1 0x20 PUSH1 0x0 KECCAK256 ADD SLOAD PUSH2 0x424 SWAP2 SWAP1 PUSH2 0x1967 JUMP JUMPDEST PUSH2 0x42E SWAP2 SWAP1 PUSH2 0x16D2 JUMP JUMPDEST SWAP1 POP PUSH1 0x1 PUSH1 0x0 SWAP1 SLOAD SWAP1 PUSH2 0x100 EXP SWAP1 DIV PUSH20 0xFFFFFFFFFFFFFFFFFFFFFFFFFFFFFFFFFFFFFFFF AND PUSH20 0xFFFFFFFFFFFFFFFFFFFFFFFFFFFFFFFFFFFFFFFF AND PUSH4 0xA9059CBB DUP6 DUP6 DUP5 PUSH2 0xFFFF AND DUP2 DUP2 LT PUSH2 0x485 JUMPI PUSH2 0x484 PUSH2 0x19F6 JUMP JUMPDEST JUMPDEST SWAP1 POP PUSH1 0x40 MUL ADD PUSH1 0x0 ADD PUSH1 0x20 DUP2 ADD SWAP1 PUSH2 0x49D SWAP2 SWAP1 PUSH2 0xF22 JUMP JUMPDEST DUP7 DUP7 DUP6 PUSH2 0xFFFF AND DUP2 DUP2 LT PUSH2 0x4B4 JUMPI PUSH2 0x4B3 PUSH2 0x19F6 JUMP JUMPDEST JUMPDEST SWAP1 POP PUSH1 0x40 MUL ADD PUSH1 0x20 ADD CALLDATALOAD PUSH1 0x40 MLOAD DUP4 PUSH4 0xFFFFFFFF AND PUSH1 0xE0 SHL DUP2 MSTORE PUSH1 0x4 ADD PUSH2 0x4DB SWAP3 SWAP2 SWAP1 PUSH2 0x13B0 JUMP JUMPDEST PUSH1 0x20 PUSH1 0x40 MLOAD DUP1 DUP4 SUB DUP2 PUSH1 0x0 DUP8 DUP1 EXTCODESIZE ISZERO DUP1 ISZERO PUSH2 0x4F5 JUMPI PUSH1 0x0 DUP1 REVERT JUMPDEST POP GAS CALL ISZERO DUP1 ISZERO PUSH2 0x509 JUMPI RETURNDATASIZE PUSH1 0x0 DUP1 RETURNDATACOPY RETURNDATASIZE PUSH1 0x0 REVERT JUMPDEST POP POP POP POP PUSH1 0x40 MLOAD RETURNDATASIZE PUSH1 0x1F NOT PUSH1 0x1F DUP3 ADD AND DUP3 ADD DUP1 PUSH1 0x40 MSTORE POP DUP2 ADD SWAP1 PUSH2 0x52D SWAP2 SWAP1 PUSH2 0xFDC JUMP JUMPDEST POP POP DUP1 DUP1 PUSH2 0x53A SWAP1 PUSH2 0x191E JUMP JUMPDEST SWAP2 POP POP PUSH2 0x36B JUMP JUMPDEST POP PUSH32 0x5F2CAEC44462CC776617B709F7771F868CDA0D89F546036217DA26657BC3BEF2 PUSH1 0x2 PUSH1 0x40 MLOAD PUSH2 0x573 SWAP2 SWAP1 PUSH2 0x144D JUMP JUMPDEST PUSH1 0x40 MLOAD DUP1 SWAP2 SUB SWAP1 LOG1 PUSH1 0x2 PUSH1 0x0 PUSH2 0x589 SWAP2 SWAP1 PUSH2 0xCB7 JUMP JUMPDEST POP POP JUMP JUMPDEST PUSH32 0x0 PUSH20 0xFFFFFFFFFFFFFFFFFFFFFFFFFFFFFFFFFFFFFFFF AND CALLER PUSH20 0xFFFFFFFFFFFFFFFFFFFFFFFFFFFFFFFFFFFFFFFF AND EQ PUSH2 0x63F JUMPI CALLER PUSH32 0x0 PUSH1 0x40 MLOAD PUSH32 0x1CF993F400000000000000000000000000000000000000000000000000000000 DUP2 MSTORE PUSH1 0x4 ADD PUSH2 0x636 SWAP3 SWAP2 SWAP1 PUSH2 0x13D9 JUMP JUMPDEST PUSH1 0x40 MLOAD DUP1 SWAP2 SUB SWAP1 REVERT JUMPDEST PUSH2 0x649 DUP3 DUP3 PUSH2 0xB6C JUMP JUMPDEST POP POP JUMP JUMPDEST PUSH1 0x7 SLOAD DUP2 JUMP JUMPDEST PUSH32 0x0 PUSH1 0x7 SLOAD TIMESTAMP PUSH2 0x682 SWAP2 SWAP1 PUSH2 0x175C JUMP JUMPDEST GT ISZERO PUSH2 0x70B JUMPI TIMESTAMP PUSH1 0x7 DUP2 SWAP1 SSTORE POP PUSH1 0xA PUSH1 0x5 DUP1 SLOAD SWAP1 POP GT ISZERO PUSH2 0x70A JUMPI ADDRESS PUSH20 0xFFFFFFFFFFFFFFFFFFFFFFFFFFFFFFFFFFFFFFFF AND PUSH4 0x122A5FF2 PUSH1 0x5 PUSH1 0x40 MLOAD DUP3 PUSH4 0xFFFFFFFF AND PUSH1 0xE0 SHL DUP2 MSTORE PUSH1 0x4 ADD PUSH2 0x6D7 SWAP2 SWAP1 PUSH2 0x142B JUMP JUMPDEST PUSH1 0x0 PUSH1 0x40 MLOAD DUP1 DUP4 SUB DUP2 PUSH1 0x0 DUP8 DUP1 EXTCODESIZE ISZERO DUP1 ISZERO PUSH2 0x6F1 JUMPI PUSH1 0x0 DUP1 REVERT JUMPDEST POP GAS CALL ISZERO DUP1 ISZERO PUSH2 0x705 JUMPI RETURNDATASIZE PUSH1 0x0 DUP1 RETURNDATACOPY RETURNDATASIZE PUSH1 0x0 REVERT JUMPDEST POP POP POP POP JUMPDEST JUMPDEST POP POP JUMP JUMPDEST PUSH1 0x6 SLOAD DUP2 JUMP JUMPDEST PUSH1 0x0 PUSH1 0x60 PUSH32 0x0 PUSH1 0x7 SLOAD TIMESTAMP PUSH2 0x748 SWAP2 SWAP1 PUSH2 0x175C JUMP JUMPDEST GT SWAP2 POP DUP4 DUP4 DUP1 DUP1 PUSH1 0x1F ADD PUSH1 0x20 DUP1 SWAP2 DIV MUL PUSH1 0x20 ADD PUSH1 0x40 MLOAD SWAP1 DUP2 ADD PUSH1 0x40 MSTORE DUP1 SWAP4 SWAP3 SWAP2 SWAP1 DUP2 DUP2 MSTORE PUSH1 0x20 ADD DUP4 DUP4 DUP1 DUP3 DUP5 CALLDATACOPY PUSH1 0x0 DUP2 DUP5 ADD MSTORE PUSH1 0x1F NOT PUSH1 0x1F DUP3 ADD AND SWAP1 POP DUP1 DUP4 ADD SWAP3 POP POP POP POP POP POP POP SWAP1 POP SWAP3 POP SWAP3 SWAP1 POP JUMP JUMPDEST PUSH2 0x7A1 PUSH2 0x879 JUMP JUMPDEST PUSH2 0x7AA JUMPI PUSH1 0x0 DUP1 REVERT JUMPDEST PUSH1 0x0 DUP1 SLOAD SWAP1 PUSH2 0x100 EXP SWAP1 DIV PUSH20 0xFFFFFFFFFFFFFFFFFFFFFFFFFFFFFFFFFFFFFFFF AND PUSH20 0xFFFFFFFFFFFFFFFFFFFFFFFFFFFFFFFFFFFFFFFF AND PUSH32 0xF8DF31144D9C2F0F6B59D69B8B98ABD5459D07F2742C4DF920B25AAE33C64820 PUSH1 0x40 MLOAD PUSH1 0x40 MLOAD DUP1 SWAP2 SUB SWAP1 LOG2 PUSH1 0x0 DUP1 PUSH1 0x0 PUSH2 0x100 EXP DUP2 SLOAD DUP2 PUSH20 0xFFFFFFFFFFFFFFFFFFFFFFFFFFFFFFFFFFFFFFFF MUL NOT AND SWAP1 DUP4 PUSH20 0xFFFFFFFFFFFFFFFFFFFFFFFFFFFFFFFFFFFFFFFF AND MUL OR SWAP1 SSTORE POP JUMP JUMPDEST PUSH1 0x0 DUP1 PUSH1 0x0 SWAP1 SLOAD SWAP1 PUSH2 0x100 EXP SWAP1 DIV PUSH20 0xFFFFFFFFFFFFFFFFFFFFFFFFFFFFFFFFFFFFFFFF AND SWAP1 POP SWAP1 JUMP JUMPDEST PUSH1 0x0 DUP1 PUSH1 0x0 SWAP1 SLOAD SWAP1 PUSH2 0x100 EXP SWAP1 DIV PUSH20 0xFFFFFFFFFFFFFFFFFFFFFFFFFFFFFFFFFFFFFFFF AND PUSH20 0xFFFFFFFFFFFFFFFFFFFFFFFFFFFFFFFFFFFFFFFF AND CALLER PUSH20 0xFFFFFFFFFFFFFFFFFFFFFFFFFFFFFFFFFFFFFFFF AND EQ SWAP1 POP SWAP1 JUMP JUMPDEST PUSH32 0x0 DUP2 JUMP JUMPDEST PUSH2 0x8FC PUSH2 0x879 JUMP JUMPDEST PUSH2 0x905 JUMPI PUSH1 0x0 DUP1 REVERT JUMPDEST PUSH1 0x1 PUSH1 0x0 SWAP1 SLOAD SWAP1 PUSH2 0x100 EXP SWAP1 DIV PUSH20 0xFFFFFFFFFFFFFFFFFFFFFFFFFFFFFFFFFFFFFFFF AND PUSH20 0xFFFFFFFFFFFFFFFFFFFFFFFFFFFFFFFFFFFFFFFF AND PUSH4 0xA9059CBB DUP4 DUP4 PUSH1 0x40 MLOAD DUP4 PUSH4 0xFFFFFFFF AND PUSH1 0xE0 SHL DUP2 MSTORE PUSH1 0x4 ADD PUSH2 0x962 SWAP3 SWAP2 SWAP1 PUSH2 0x1402 JUMP JUMPDEST PUSH1 0x20 PUSH1 0x40 MLOAD DUP1 DUP4 SUB DUP2 PUSH1 0x0 DUP8 DUP1 EXTCODESIZE ISZERO DUP1 ISZERO PUSH2 0x97C JUMPI PUSH1 0x0 DUP1 REVERT JUMPDEST POP GAS CALL ISZERO DUP1 ISZERO PUSH2 0x990 JUMPI RETURNDATASIZE PUSH1 0x0 DUP1 RETURNDATACOPY RETURNDATASIZE PUSH1 0x0 REVERT JUMPDEST POP POP POP POP PUSH1 0x40 MLOAD RETURNDATASIZE PUSH1 0x1F NOT PUSH1 0x1F DUP3 ADD AND DUP3 ADD DUP1 PUSH1 0x40 MSTORE POP DUP2 ADD SWAP1 PUSH2 0x9B4 SWAP2 SWAP1 PUSH2 0xFDC JUMP JUMPDEST POP POP POP JUMP JUMPDEST PUSH2 0x9C1 PUSH2 0x879 JUMP JUMPDEST PUSH2 0x9CA JUMPI PUSH1 0x0 DUP1 REVERT JUMPDEST PUSH32 0x0 PUSH20 0xFFFFFFFFFFFFFFFFFFFFFFFFFFFFFFFFFFFFFFFF AND PUSH4 0x5D3B1D30 PUSH32 0x0 PUSH32 0x0 PUSH32 0x0 PUSH32 0x0 PUSH32 0x0 PUSH1 0x40 MLOAD DUP7 PUSH4 0xFFFFFFFF AND PUSH1 0xE0 SHL DUP2 MSTORE PUSH1 0x4 ADD PUSH2 0xACB SWAP6 SWAP5 SWAP4 SWAP3 SWAP2 SWAP1 PUSH2 0x14BA JUMP JUMPDEST PUSH1 0x20 PUSH1 0x40 MLOAD DUP1 DUP4 SUB DUP2 PUSH1 0x0 DUP8 DUP1 EXTCODESIZE ISZERO DUP1 ISZERO PUSH2 0xAE5 JUMPI PUSH1 0x0 DUP1 REVERT JUMPDEST POP GAS CALL ISZERO DUP1 ISZERO PUSH2 0xAF9 JUMPI RETURNDATASIZE PUSH1 0x0 DUP1 RETURNDATACOPY RETURNDATASIZE PUSH1 0x0 REVERT JUMPDEST POP POP POP POP PUSH1 0x40 MLOAD RETURNDATASIZE PUSH1 0x1F NOT PUSH1 0x1F DUP3 ADD AND DUP3 ADD DUP1 PUSH1 0x40 MSTORE POP DUP2 ADD SWAP1 PUSH2 0xB1D SWAP2 SWAP1 PUSH2 0x1083 JUMP JUMPDEST PUSH1 0x3 DUP2 SWAP1 SSTORE POP JUMP JUMPDEST PUSH1 0x3 SLOAD DUP2 JUMP JUMPDEST PUSH2 0xB33 PUSH2 0x879 JUMP JUMPDEST PUSH2 0xB3C JUMPI PUSH1 0x0 DUP1 REVERT JUMPDEST PUSH2 0xB45 DUP2 PUSH2 0xBC0 JUMP JUMPDEST POP JUMP JUMPDEST PUSH1 0x2 DUP2 DUP2 SLOAD DUP2 LT PUSH2 0xB58 JUMPI PUSH1 0x0 DUP1 REVERT JUMPDEST SWAP1 PUSH1 0x0 MSTORE PUSH1 0x20 PUSH1 0x0 KECCAK256 ADD PUSH1 0x0 SWAP2 POP SWAP1 POP SLOAD DUP2 JUMP JUMPDEST DUP1 PUSH1 0x2 SWAP1 DUP1 MLOAD SWAP1 PUSH1 0x20 ADD SWAP1 PUSH2 0xB82 SWAP3 SWAP2 SWAP1 PUSH2 0xCD8 JUMP JUMPDEST POP PUSH32 0x68F6ADF8851F96FB54BCE56DBB5FF1BC6B368AEAF5D3D1AEDC38FB1548D35467 DUP3 DUP3 PUSH1 0x40 MLOAD PUSH2 0xBB4 SWAP3 SWAP2 SWAP1 PUSH2 0x1548 JUMP JUMPDEST PUSH1 0x40 MLOAD DUP1 SWAP2 SUB SWAP1 LOG1 POP POP JUMP JUMPDEST PUSH1 0x0 PUSH20 0xFFFFFFFFFFFFFFFFFFFFFFFFFFFFFFFFFFFFFFFF AND DUP2 PUSH20 0xFFFFFFFFFFFFFFFFFFFFFFFFFFFFFFFFFFFFFFFF AND EQ ISZERO PUSH2 0xBFA JUMPI PUSH1 0x0 DUP1 REVERT JUMPDEST DUP1 PUSH20 0xFFFFFFFFFFFFFFFFFFFFFFFFFFFFFFFFFFFFFFFF AND PUSH1 0x0 DUP1 SLOAD SWAP1 PUSH2 0x100 EXP SWAP1 DIV PUSH20 0xFFFFFFFFFFFFFFFFFFFFFFFFFFFFFFFFFFFFFFFF AND PUSH20 0xFFFFFFFFFFFFFFFFFFFFFFFFFFFFFFFFFFFFFFFF AND PUSH32 0x8BE0079C531659141344CD1FD0A4F28419497F9722A3DAAFE3B4186F6B6457E0 PUSH1 0x40 MLOAD PUSH1 0x40 MLOAD DUP1 SWAP2 SUB SWAP1 LOG3 DUP1 PUSH1 0x0 DUP1 PUSH2 0x100 EXP DUP2 SLOAD DUP2 PUSH20 0xFFFFFFFFFFFFFFFFFFFFFFFFFFFFFFFFFFFFFFFF MUL NOT AND SWAP1 DUP4 PUSH20 0xFFFFFFFFFFFFFFFFFFFFFFFFFFFFFFFFFFFFFFFF AND MUL OR SWAP1 SSTORE POP POP JUMP JUMPDEST POP DUP1 SLOAD PUSH1 0x0 DUP3 SSTORE SWAP1 PUSH1 0x0 MSTORE PUSH1 0x20 PUSH1 0x0 KECCAK256 SWAP1 DUP2 ADD SWAP1 PUSH2 0xCD5 SWAP2 SWAP1 PUSH2 0xD25 JUMP JUMPDEST POP JUMP JUMPDEST DUP3 DUP1 SLOAD DUP3 DUP3 SSTORE SWAP1 PUSH1 0x0 MSTORE PUSH1 0x20 PUSH1 0x0 KECCAK256 SWAP1 DUP2 ADD SWAP3 DUP3 ISZERO PUSH2 0xD14 JUMPI SWAP2 PUSH1 0x20 MUL DUP3 ADD JUMPDEST DUP3 DUP2 GT ISZERO PUSH2 0xD13 JUMPI DUP3 MLOAD DUP3 SSTORE SWAP2 PUSH1 0x20 ADD SWAP2 SWAP1 PUSH1 0x1 ADD SWAP1 PUSH2 0xCF8 JUMP JUMPDEST JUMPDEST POP SWAP1 POP PUSH2 0xD21 SWAP2 SWAP1 PUSH2 0xD25 JUMP JUMPDEST POP SWAP1 JUMP JUMPDEST JUMPDEST DUP1 DUP3 GT ISZERO PUSH2 0xD3E JUMPI PUSH1 0x0 DUP2 PUSH1 0x0 SWAP1 SSTORE POP PUSH1 0x1 ADD PUSH2 0xD26 JUMP JUMPDEST POP SWAP1 JUMP JUMPDEST PUSH1 0x0 PUSH2 0xD55 PUSH2 0xD50 DUP5 PUSH2 0x159D JUMP JUMPDEST PUSH2 0x1578 JUMP JUMPDEST SWAP1 POP DUP1 DUP4 DUP3 MSTORE PUSH1 0x20 DUP3 ADD SWAP1 POP DUP3 DUP6 PUSH1 0x20 DUP7 MUL DUP3 ADD GT ISZERO PUSH2 0xD78 JUMPI PUSH2 0xD77 PUSH2 0x1A71 JUMP JUMPDEST JUMPDEST PUSH1 0x0 JUMPDEST DUP6 DUP2 LT ISZERO PUSH2 0xDA8 JUMPI DUP2 PUSH2 0xD8E DUP9 DUP3 PUSH2 0xECB JUMP JUMPDEST DUP5 MSTORE PUSH1 0x20 DUP5 ADD SWAP4 POP PUSH1 0x20 DUP4 ADD SWAP3 POP POP PUSH1 0x1 DUP2 ADD SWAP1 POP PUSH2 0xD7B JUMP JUMPDEST POP POP POP SWAP4 SWAP3 POP POP POP JUMP JUMPDEST PUSH1 0x0 DUP2 CALLDATALOAD SWAP1 POP PUSH2 0xDC1 DUP2 PUSH2 0x1AC7 JUMP JUMPDEST SWAP3 SWAP2 POP POP JUMP JUMPDEST PUSH1 0x0 DUP2 CALLDATALOAD SWAP1 POP PUSH2 0xDD6 DUP2 PUSH2 0x1ADE JUMP JUMPDEST SWAP3 SWAP2 POP POP JUMP JUMPDEST PUSH1 0x0 DUP1 DUP4 PUSH1 0x1F DUP5 ADD SLT PUSH2 0xDF2 JUMPI PUSH2 0xDF1 PUSH2 0x1A6C JUMP JUMPDEST JUMPDEST DUP3 CALLDATALOAD SWAP1 POP PUSH8 0xFFFFFFFFFFFFFFFF DUP2 GT ISZERO PUSH2 0xE0F JUMPI PUSH2 0xE0E PUSH2 0x1A67 JUMP JUMPDEST JUMPDEST PUSH1 0x20 DUP4 ADD SWAP2 POP DUP4 PUSH1 0x40 DUP3 MUL DUP4 ADD GT ISZERO PUSH2 0xE2B JUMPI PUSH2 0xE2A PUSH2 0x1A71 JUMP JUMPDEST JUMPDEST SWAP3 POP SWAP3 SWAP1 POP JUMP JUMPDEST PUSH1 0x0 DUP3 PUSH1 0x1F DUP4 ADD SLT PUSH2 0xE47 JUMPI PUSH2 0xE46 PUSH2 0x1A6C JUMP JUMPDEST JUMPDEST DUP2 CALLDATALOAD PUSH2 0xE57 DUP5 DUP3 PUSH1 0x20 DUP7 ADD PUSH2 0xD42 JUMP JUMPDEST SWAP2 POP POP SWAP3 SWAP2 POP POP JUMP JUMPDEST PUSH1 0x0 DUP2 MLOAD SWAP1 POP PUSH2 0xE6F DUP2 PUSH2 0x1AF5 JUMP JUMPDEST SWAP3 SWAP2 POP POP JUMP JUMPDEST PUSH1 0x0 DUP1 DUP4 PUSH1 0x1F DUP5 ADD SLT PUSH2 0xE8B JUMPI PUSH2 0xE8A PUSH2 0x1A6C JUMP JUMPDEST JUMPDEST DUP3 CALLDATALOAD SWAP1 POP PUSH8 0xFFFFFFFFFFFFFFFF DUP2 GT ISZERO PUSH2 0xEA8 JUMPI PUSH2 0xEA7 PUSH2 0x1A67 JUMP JUMPDEST JUMPDEST PUSH1 0x20 DUP4 ADD SWAP2 POP DUP4 PUSH1 0x1 DUP3 MUL DUP4 ADD GT ISZERO PUSH2 0xEC4 JUMPI PUSH2 0xEC3 PUSH2 0x1A71 JUMP JUMPDEST JUMPDEST SWAP3 POP SWAP3 SWAP1 POP JUMP JUMPDEST PUSH1 0x0 DUP2 CALLDATALOAD SWAP1 POP PUSH2 0xEDA DUP2 PUSH2 0x1B0C JUMP JUMPDEST SWAP3 SWAP2 POP POP JUMP JUMPDEST PUSH1 0x0 DUP2 MLOAD SWAP1 POP PUSH2 0xEEF DUP2 PUSH2 0x1B0C JUMP JUMPDEST SWAP3 SWAP2 POP POP JUMP JUMPDEST PUSH1 0x0 PUSH1 0x20 DUP3 DUP5 SUB SLT ISZERO PUSH2 0xF0B JUMPI PUSH2 0xF0A PUSH2 0x1A7B JUMP JUMPDEST JUMPDEST PUSH1 0x0 PUSH2 0xF19 DUP5 DUP3 DUP6 ADD PUSH2 0xDB2 JUMP JUMPDEST SWAP2 POP POP SWAP3 SWAP2 POP POP JUMP JUMPDEST PUSH1 0x0 PUSH1 0x20 DUP3 DUP5 SUB SLT ISZERO PUSH2 0xF38 JUMPI PUSH2 0xF37 PUSH2 0x1A7B JUMP JUMPDEST JUMPDEST PUSH1 0x0 PUSH2 0xF46 DUP5 DUP3 DUP6 ADD PUSH2 0xDC7 JUMP JUMPDEST SWAP2 POP POP SWAP3 SWAP2 POP POP JUMP JUMPDEST PUSH1 0x0 DUP1 PUSH1 0x40 DUP4 DUP6 SUB SLT ISZERO PUSH2 0xF66 JUMPI PUSH2 0xF65 PUSH2 0x1A7B JUMP JUMPDEST JUMPDEST PUSH1 0x0 PUSH2 0xF74 DUP6 DUP3 DUP7 ADD PUSH2 0xDB2 JUMP JUMPDEST SWAP3 POP POP PUSH1 0x20 PUSH2 0xF85 DUP6 DUP3 DUP7 ADD PUSH2 0xECB JUMP JUMPDEST SWAP2 POP POP SWAP3 POP SWAP3 SWAP1 POP JUMP JUMPDEST PUSH1 0x0 DUP1 PUSH1 0x20 DUP4 DUP6 SUB SLT ISZERO PUSH2 0xFA6 JUMPI PUSH2 0xFA5 PUSH2 0x1A7B JUMP JUMPDEST JUMPDEST PUSH1 0x0 DUP4 ADD CALLDATALOAD PUSH8 0xFFFFFFFFFFFFFFFF DUP2 GT ISZERO PUSH2 0xFC4 JUMPI PUSH2 0xFC3 PUSH2 0x1A76 JUMP JUMPDEST JUMPDEST PUSH2 0xFD0 DUP6 DUP3 DUP7 ADD PUSH2 0xDDC JUMP JUMPDEST SWAP3 POP SWAP3 POP POP SWAP3 POP SWAP3 SWAP1 POP JUMP JUMPDEST PUSH1 0x0 PUSH1 0x20 DUP3 DUP5 SUB SLT ISZERO PUSH2 0xFF2 JUMPI PUSH2 0xFF1 PUSH2 0x1A7B JUMP JUMPDEST JUMPDEST PUSH1 0x0 PUSH2 0x1000 DUP5 DUP3 DUP6 ADD PUSH2 0xE60 JUMP JUMPDEST SWAP2 POP POP SWAP3 SWAP2 POP POP JUMP JUMPDEST PUSH1 0x0 DUP1 PUSH1 0x20 DUP4 DUP6 SUB SLT ISZERO PUSH2 0x1020 JUMPI PUSH2 0x101F PUSH2 0x1A7B JUMP JUMPDEST JUMPDEST PUSH1 0x0 DUP4 ADD CALLDATALOAD PUSH8 0xFFFFFFFFFFFFFFFF DUP2 GT ISZERO PUSH2 0x103E JUMPI PUSH2 0x103D PUSH2 0x1A76 JUMP JUMPDEST JUMPDEST PUSH2 0x104A DUP6 DUP3 DUP7 ADD PUSH2 0xE75 JUMP JUMPDEST SWAP3 POP SWAP3 POP POP SWAP3 POP SWAP3 SWAP1 POP JUMP JUMPDEST PUSH1 0x0 PUSH1 0x20 DUP3 DUP5 SUB SLT ISZERO PUSH2 0x106C JUMPI PUSH2 0x106B PUSH2 0x1A7B JUMP JUMPDEST JUMPDEST PUSH1 0x0 PUSH2 0x107A DUP5 DUP3 DUP6 ADD PUSH2 0xECB JUMP JUMPDEST SWAP2 POP POP SWAP3 SWAP2 POP POP JUMP JUMPDEST PUSH1 0x0 PUSH1 0x20 DUP3 DUP5 SUB SLT ISZERO PUSH2 0x1099 JUMPI PUSH2 0x1098 PUSH2 0x1A7B JUMP JUMPDEST JUMPDEST PUSH1 0x0 PUSH2 0x10A7 DUP5 DUP3 DUP6 ADD PUSH2 0xEE0 JUMP JUMPDEST SWAP2 POP POP SWAP3 SWAP2 POP POP JUMP JUMPDEST PUSH1 0x0 DUP1 PUSH1 0x40 DUP4 DUP6 SUB SLT ISZERO PUSH2 0x10C7 JUMPI PUSH2 0x10C6 PUSH2 0x1A7B JUMP JUMPDEST JUMPDEST PUSH1 0x0 PUSH2 0x10D5 DUP6 DUP3 DUP7 ADD PUSH2 0xECB JUMP JUMPDEST SWAP3 POP POP PUSH1 0x20 DUP4 ADD CALLDATALOAD PUSH8 0xFFFFFFFFFFFFFFFF DUP2 GT ISZERO PUSH2 0x10F6 JUMPI PUSH2 0x10F5 PUSH2 0x1A76 JUMP JUMPDEST JUMPDEST PUSH2 0x1102 DUP6 DUP3 DUP7 ADD PUSH2 0xE32 JUMP JUMPDEST SWAP2 POP POP SWAP3 POP SWAP3 SWAP1 POP JUMP JUMPDEST PUSH1 0x0 PUSH2 0x1118 DUP4 DUP4 PUSH2 0x1303 JUMP JUMPDEST PUSH1 0x40 DUP4 ADD SWAP1 POP SWAP3 SWAP2 POP POP JUMP JUMPDEST PUSH1 0x0 PUSH2 0x1130 DUP4 DUP4 PUSH2 0x1359 JUMP JUMPDEST PUSH1 0x20 DUP4 ADD SWAP1 POP SWAP3 SWAP2 POP POP JUMP JUMPDEST PUSH2 0x1145 DUP2 PUSH2 0x1850 JUMP JUMPDEST DUP3 MSTORE POP POP JUMP JUMPDEST PUSH2 0x1154 DUP2 PUSH2 0x17CC JUMP JUMPDEST DUP3 MSTORE POP POP JUMP JUMPDEST PUSH2 0x1163 DUP2 PUSH2 0x17BA JUMP JUMPDEST DUP3 MSTORE POP POP JUMP JUMPDEST PUSH1 0x0 PUSH2 0x1174 DUP3 PUSH2 0x1603 JUMP JUMPDEST PUSH2 0x117E DUP2 DUP6 PUSH2 0x1656 JUMP JUMPDEST SWAP4 POP PUSH2 0x1189 DUP4 PUSH2 0x15C9 JUMP JUMPDEST DUP1 PUSH1 0x0 JUMPDEST DUP4 DUP2 LT ISZERO PUSH2 0x11B9 JUMPI DUP2 PUSH2 0x11A0 DUP9 DUP3 PUSH2 0x110C JUMP JUMPDEST SWAP8 POP PUSH2 0x11AB DUP4 PUSH2 0x162F JUMP JUMPDEST SWAP3 POP POP PUSH1 0x1 DUP2 ADD SWAP1 POP PUSH2 0x118D JUMP JUMPDEST POP DUP6 SWAP4 POP POP POP POP SWAP3 SWAP2 POP POP JUMP JUMPDEST PUSH1 0x0 PUSH2 0x11D1 DUP3 PUSH2 0x160E JUMP JUMPDEST PUSH2 0x11DB DUP2 DUP6 PUSH2 0x1667 JUMP JUMPDEST SWAP4 POP PUSH2 0x11E6 DUP4 PUSH2 0x15DE JUMP JUMPDEST DUP1 PUSH1 0x0 JUMPDEST DUP4 DUP2 LT ISZERO PUSH2 0x1217 JUMPI DUP2 MLOAD PUSH2 0x11FE DUP9 DUP3 PUSH2 0x1124 JUMP JUMPDEST SWAP8 POP PUSH2 0x1209 DUP4 PUSH2 0x163C JUMP JUMPDEST SWAP3 POP POP PUSH1 0x1 DUP2 ADD SWAP1 POP PUSH2 0x11EA JUMP JUMPDEST POP DUP6 SWAP4 POP POP POP POP SWAP3 SWAP2 POP POP JUMP JUMPDEST PUSH1 0x0 PUSH2 0x122F DUP3 PUSH2 0x1619 JUMP JUMPDEST PUSH2 0x1239 DUP2 DUP6 PUSH2 0x1667 JUMP JUMPDEST SWAP4 POP PUSH2 0x1244 DUP4 PUSH2 0x15EE JUMP JUMPDEST DUP1 PUSH1 0x0 JUMPDEST DUP4 DUP2 LT ISZERO PUSH2 0x127C JUMPI PUSH2 0x1259 DUP3 PUSH2 0x1A54 JUMP JUMPDEST PUSH2 0x1263 DUP9 DUP3 PUSH2 0x1124 JUMP JUMPDEST SWAP8 POP PUSH2 0x126E DUP4 PUSH2 0x1649 JUMP JUMPDEST SWAP3 POP POP PUSH1 0x1 DUP2 ADD SWAP1 POP PUSH2 0x1248 JUMP JUMPDEST POP DUP6 SWAP4 POP POP POP POP SWAP3 SWAP2 POP POP JUMP JUMPDEST PUSH2 0x1292 DUP2 PUSH2 0x17DE JUMP JUMPDEST DUP3 MSTORE POP POP JUMP JUMPDEST PUSH2 0x12A1 DUP2 PUSH2 0x17EA JUMP JUMPDEST DUP3 MSTORE POP POP JUMP JUMPDEST PUSH1 0x0 PUSH2 0x12B2 DUP3 PUSH2 0x1624 JUMP JUMPDEST PUSH2 0x12BC DUP2 DUP6 PUSH2 0x1678 JUMP JUMPDEST SWAP4 POP PUSH2 0x12CC DUP2 DUP6 PUSH1 0x20 DUP7 ADD PUSH2 0x1886 JUMP JUMPDEST PUSH2 0x12D5 DUP2 PUSH2 0x1A80 JUMP JUMPDEST DUP5 ADD SWAP2 POP POP SWAP3 SWAP2 POP POP JUMP JUMPDEST PUSH1 0x0 PUSH2 0x12ED PUSH1 0x18 DUP4 PUSH2 0x1689 JUMP JUMPDEST SWAP2 POP PUSH2 0x12F8 DUP3 PUSH2 0x1A9E JUMP JUMPDEST PUSH1 0x20 DUP3 ADD SWAP1 POP SWAP2 SWAP1 POP JUMP JUMPDEST PUSH1 0x40 DUP3 ADD PUSH1 0x0 DUP1 DUP4 ADD SLOAD SWAP1 POP PUSH2 0x1318 DUP2 PUSH2 0x18B9 JUMP JUMPDEST PUSH2 0x1325 PUSH1 0x0 DUP7 ADD DUP3 PUSH2 0x114B JUMP JUMPDEST POP PUSH1 0x1 DUP4 ADD SLOAD SWAP1 POP PUSH2 0x1336 DUP2 PUSH2 0x18D3 JUMP JUMPDEST PUSH2 0x1343 PUSH1 0x20 DUP7 ADD DUP3 PUSH2 0x1359 JUMP JUMPDEST POP POP POP POP POP JUMP JUMPDEST PUSH2 0x1353 DUP2 PUSH2 0x17F4 JUMP JUMPDEST DUP3 MSTORE POP POP JUMP JUMPDEST PUSH2 0x1362 DUP2 PUSH2 0x1822 JUMP JUMPDEST DUP3 MSTORE POP POP JUMP JUMPDEST PUSH2 0x1371 DUP2 PUSH2 0x1822 JUMP JUMPDEST DUP3 MSTORE POP POP JUMP JUMPDEST PUSH2 0x1380 DUP2 PUSH2 0x182C JUMP JUMPDEST DUP3 MSTORE POP POP JUMP JUMPDEST PUSH2 0x138F DUP2 PUSH2 0x183C JUMP JUMPDEST DUP3 MSTORE POP POP JUMP JUMPDEST PUSH1 0x0 PUSH1 0x20 DUP3 ADD SWAP1 POP PUSH2 0x13AA PUSH1 0x0 DUP4 ADD DUP5 PUSH2 0x115A JUMP JUMPDEST SWAP3 SWAP2 POP POP JUMP JUMPDEST PUSH1 0x0 PUSH1 0x40 DUP3 ADD SWAP1 POP PUSH2 0x13C5 PUSH1 0x0 DUP4 ADD DUP6 PUSH2 0x113C JUMP JUMPDEST PUSH2 0x13D2 PUSH1 0x20 DUP4 ADD DUP5 PUSH2 0x1368 JUMP JUMPDEST SWAP4 SWAP3 POP POP POP JUMP JUMPDEST PUSH1 0x0 PUSH1 0x40 DUP3 ADD SWAP1 POP PUSH2 0x13EE PUSH1 0x0 DUP4 ADD DUP6 PUSH2 0x115A JUMP JUMPDEST PUSH2 0x13FB PUSH1 0x20 DUP4 ADD DUP5 PUSH2 0x115A JUMP JUMPDEST SWAP4 SWAP3 POP POP POP JUMP JUMPDEST PUSH1 0x0 PUSH1 0x40 DUP3 ADD SWAP1 POP PUSH2 0x1417 PUSH1 0x0 DUP4 ADD DUP6 PUSH2 0x115A JUMP JUMPDEST PUSH2 0x1424 PUSH1 0x20 DUP4 ADD DUP5 PUSH2 0x1368 JUMP JUMPDEST SWAP4 SWAP3 POP POP POP JUMP JUMPDEST PUSH1 0x0 PUSH1 0x20 DUP3 ADD SWAP1 POP DUP2 DUP2 SUB PUSH1 0x0 DUP4 ADD MSTORE PUSH2 0x1445 DUP2 DUP5 PUSH2 0x1169 JUMP JUMPDEST SWAP1 POP SWAP3 SWAP2 POP POP JUMP JUMPDEST PUSH1 0x0 PUSH1 0x20 DUP3 ADD SWAP1 POP DUP2 DUP2 SUB PUSH1 0x0 DUP4 ADD MSTORE PUSH2 0x1467 DUP2 DUP5 PUSH2 0x1224 JUMP JUMPDEST SWAP1 POP SWAP3 SWAP2 POP POP JUMP JUMPDEST PUSH1 0x0 PUSH1 0x20 DUP3 ADD SWAP1 POP PUSH2 0x1484 PUSH1 0x0 DUP4 ADD DUP5 PUSH2 0x1289 JUMP JUMPDEST SWAP3 SWAP2 POP POP JUMP JUMPDEST PUSH1 0x0 PUSH1 0x40 DUP3 ADD SWAP1 POP PUSH2 0x149F PUSH1 0x0 DUP4 ADD DUP6 PUSH2 0x1289 JUMP JUMPDEST DUP2 DUP2 SUB PUSH1 0x20 DUP4 ADD MSTORE PUSH2 0x14B1 DUP2 DUP5 PUSH2 0x12A7 JUMP JUMPDEST SWAP1 POP SWAP4 SWAP3 POP POP POP JUMP JUMPDEST PUSH1 0x0 PUSH1 0xA0 DUP3 ADD SWAP1 POP PUSH2 0x14CF PUSH1 0x0 DUP4 ADD DUP9 PUSH2 0x1298 JUMP JUMPDEST PUSH2 0x14DC PUSH1 0x20 DUP4 ADD DUP8 PUSH2 0x1386 JUMP JUMPDEST PUSH2 0x14E9 PUSH1 0x40 DUP4 ADD DUP7 PUSH2 0x134A JUMP JUMPDEST PUSH2 0x14F6 PUSH1 0x60 DUP4 ADD DUP6 PUSH2 0x1377 JUMP JUMPDEST PUSH2 0x1503 PUSH1 0x80 DUP4 ADD DUP5 PUSH2 0x1377 JUMP JUMPDEST SWAP7 SWAP6 POP POP POP POP POP POP JUMP JUMPDEST PUSH1 0x0 PUSH1 0x20 DUP3 ADD SWAP1 POP DUP2 DUP2 SUB PUSH1 0x0 DUP4 ADD MSTORE PUSH2 0x1526 DUP2 PUSH2 0x12E0 JUMP JUMPDEST SWAP1 POP SWAP2 SWAP1 POP JUMP JUMPDEST PUSH1 0x0 PUSH1 0x20 DUP3 ADD SWAP1 POP PUSH2 0x1542 PUSH1 0x0 DUP4 ADD DUP5 PUSH2 0x1368 JUMP JUMPDEST SWAP3 SWAP2 POP POP JUMP JUMPDEST PUSH1 0x0 PUSH1 0x40 DUP3 ADD SWAP1 POP PUSH2 0x155D PUSH1 0x0 DUP4 ADD DUP6 PUSH2 0x1368 JUMP JUMPDEST DUP2 DUP2 SUB PUSH1 0x20 DUP4 ADD MSTORE PUSH2 0x156F DUP2 DUP5 PUSH2 0x11C6 JUMP JUMPDEST SWAP1 POP SWAP4 SWAP3 POP POP POP JUMP JUMPDEST PUSH1 0x0 PUSH2 0x1582 PUSH2 0x1593 JUMP JUMPDEST SWAP1 POP PUSH2 0x158E DUP3 DUP3 PUSH2 0x18ED JUMP JUMPDEST SWAP2 SWAP1 POP JUMP JUMPDEST PUSH1 0x0 PUSH1 0x40 MLOAD SWAP1 POP SWAP1 JUMP JUMPDEST PUSH1 0x0 PUSH8 0xFFFFFFFFFFFFFFFF DUP3 GT ISZERO PUSH2 0x15B8 JUMPI PUSH2 0x15B7 PUSH2 0x1A25 JUMP JUMPDEST JUMPDEST PUSH1 0x20 DUP3 MUL SWAP1 POP PUSH1 0x20 DUP2 ADD SWAP1 POP SWAP2 SWAP1 POP JUMP JUMPDEST PUSH1 0x0 DUP2 SWAP1 POP DUP2 PUSH1 0x0 MSTORE PUSH1 0x20 PUSH1 0x0 KECCAK256 SWAP1 POP SWAP2 SWAP1 POP JUMP JUMPDEST PUSH1 0x0 DUP2 SWAP1 POP PUSH1 0x20 DUP3 ADD SWAP1 POP SWAP2 SWAP1 POP JUMP JUMPDEST PUSH1 0x0 DUP2 SWAP1 POP DUP2 PUSH1 0x0 MSTORE PUSH1 0x20 PUSH1 0x0 KECCAK256 SWAP1 POP SWAP2 SWAP1 POP JUMP JUMPDEST PUSH1 0x0 DUP2 SLOAD SWAP1 POP SWAP2 SWAP1 POP JUMP JUMPDEST PUSH1 0x0 DUP2 MLOAD SWAP1 POP SWAP2 SWAP1 POP JUMP JUMPDEST PUSH1 0x0 DUP2 SLOAD SWAP1 POP SWAP2 SWAP1 POP JUMP JUMPDEST PUSH1 0x0 DUP2 MLOAD SWAP1 POP SWAP2 SWAP1 POP JUMP JUMPDEST PUSH1 0x0 PUSH1 0x2 DUP3 ADD SWAP1 POP SWAP2 SWAP1 POP JUMP JUMPDEST PUSH1 0x0 PUSH1 0x20 DUP3 ADD SWAP1 POP SWAP2 SWAP1 POP JUMP JUMPDEST PUSH1 0x0 PUSH1 0x1 DUP3 ADD SWAP1 POP SWAP2 SWAP1 POP JUMP JUMPDEST PUSH1 0x0 DUP3 DUP3 MSTORE PUSH1 0x20 DUP3 ADD SWAP1 POP SWAP3 SWAP2 POP POP JUMP JUMPDEST PUSH1 0x0 DUP3 DUP3 MSTORE PUSH1 0x20 DUP3 ADD SWAP1 POP SWAP3 SWAP2 POP POP JUMP JUMPDEST PUSH1 0x0 DUP3 DUP3 MSTORE PUSH1 0x20 DUP3 ADD SWAP1 POP SWAP3 SWAP2 POP POP JUMP JUMPDEST PUSH1 0x0 DUP3 DUP3 MSTORE PUSH1 0x20 DUP3 ADD SWAP1 POP SWAP3 SWAP2 POP POP JUMP JUMPDEST PUSH1 0x0 PUSH2 0x16A5 DUP3 PUSH2 0x17F4 JUMP JUMPDEST SWAP2 POP PUSH2 0x16B0 DUP4 PUSH2 0x17F4 JUMP JUMPDEST SWAP3 POP DUP3 PUSH2 0xFFFF SUB DUP3 GT ISZERO PUSH2 0x16C7 JUMPI PUSH2 0x16C6 PUSH2 0x1998 JUMP JUMPDEST JUMPDEST DUP3 DUP3 ADD SWAP1 POP SWAP3 SWAP2 POP POP JUMP JUMPDEST PUSH1 0x0 PUSH2 0x16DD DUP3 PUSH2 0x1822 JUMP JUMPDEST SWAP2 POP PUSH2 0x16E8 DUP4 PUSH2 0x1822 JUMP JUMPDEST SWAP3 POP DUP3 PUSH32 0xFFFFFFFFFFFFFFFFFFFFFFFFFFFFFFFFFFFFFFFFFFFFFFFFFFFFFFFFFFFFFFFF SUB DUP3 GT ISZERO PUSH2 0x171D JUMPI PUSH2 0x171C PUSH2 0x1998 JUMP JUMPDEST JUMPDEST DUP3 DUP3 ADD SWAP1 POP SWAP3 SWAP2 POP POP JUMP JUMPDEST PUSH1 0x0 PUSH2 0x1733 DUP3 PUSH2 0x17F4 JUMP JUMPDEST SWAP2 POP PUSH2 0x173E DUP4 PUSH2 0x17F4 JUMP JUMPDEST SWAP3 POP DUP3 DUP3 LT ISZERO PUSH2 0x1751 JUMPI PUSH2 0x1750 PUSH2 0x1998 JUMP JUMPDEST JUMPDEST DUP3 DUP3 SUB SWAP1 POP SWAP3 SWAP2 POP POP JUMP JUMPDEST PUSH1 0x0 PUSH2 0x1767 DUP3 PUSH2 0x1822 JUMP JUMPDEST SWAP2 POP PUSH2 0x1772 DUP4 PUSH2 0x1822 JUMP JUMPDEST SWAP3 POP DUP3 DUP3 LT ISZERO PUSH2 0x1785 JUMPI PUSH2 0x1784 PUSH2 0x1998 JUMP JUMPDEST JUMPDEST DUP3 DUP3 SUB SWAP1 POP SWAP3 SWAP2 POP POP JUMP JUMPDEST PUSH1 0x0 PUSH20 0xFFFFFFFFFFFFFFFFFFFFFFFFFFFFFFFFFFFFFFFF DUP3 AND SWAP1 POP SWAP2 SWAP1 POP JUMP JUMPDEST PUSH1 0x0 DUP2 SWAP1 POP SWAP2 SWAP1 POP JUMP JUMPDEST PUSH1 0x0 PUSH2 0x17C5 DUP3 PUSH2 0x1802 JUMP JUMPDEST SWAP1 POP SWAP2 SWAP1 POP JUMP JUMPDEST PUSH1 0x0 PUSH2 0x17D7 DUP3 PUSH2 0x1802 JUMP JUMPDEST SWAP1 POP SWAP2 SWAP1 POP JUMP JUMPDEST PUSH1 0x0 DUP2 ISZERO ISZERO SWAP1 POP SWAP2 SWAP1 POP JUMP JUMPDEST PUSH1 0x0 DUP2 SWAP1 POP SWAP2 SWAP1 POP JUMP JUMPDEST PUSH1 0x0 PUSH2 0xFFFF DUP3 AND SWAP1 POP SWAP2 SWAP1 POP JUMP JUMPDEST PUSH1 0x0 PUSH20 0xFFFFFFFFFFFFFFFFFFFFFFFFFFFFFFFFFFFFFFFF DUP3 AND SWAP1 POP SWAP2 SWAP1 POP JUMP JUMPDEST PUSH1 0x0 DUP2 SWAP1 POP SWAP2 SWAP1 POP JUMP JUMPDEST PUSH1 0x0 PUSH4 0xFFFFFFFF DUP3 AND SWAP1 POP SWAP2 SWAP1 POP JUMP JUMPDEST PUSH1 0x0 PUSH8 0xFFFFFFFFFFFFFFFF DUP3 AND SWAP1 POP SWAP2 SWAP1 POP JUMP JUMPDEST PUSH1 0x0 PUSH2 0x185B DUP3 PUSH2 0x1862 JUMP JUMPDEST SWAP1 POP SWAP2 SWAP1 POP JUMP JUMPDEST PUSH1 0x0 PUSH2 0x186D DUP3 PUSH2 0x1874 JUMP JUMPDEST SWAP1 POP SWAP2 SWAP1 POP JUMP JUMPDEST PUSH1 0x0 PUSH2 0x187F DUP3 PUSH2 0x1802 JUMP JUMPDEST SWAP1 POP SWAP2 SWAP1 POP JUMP JUMPDEST PUSH1 0x0 JUMPDEST DUP4 DUP2 LT ISZERO PUSH2 0x18A4 JUMPI DUP1 DUP3 ADD MLOAD DUP2 DUP5 ADD MSTORE PUSH1 0x20 DUP2 ADD SWAP1 POP PUSH2 0x1889 JUMP JUMPDEST DUP4 DUP2 GT ISZERO PUSH2 0x18B3 JUMPI PUSH1 0x0 DUP5 DUP5 ADD MSTORE JUMPDEST POP POP POP POP JUMP JUMPDEST PUSH1 0x0 PUSH2 0x18CC PUSH2 0x18C7 DUP4 PUSH2 0x1A91 JUMP JUMPDEST PUSH2 0x1790 JUMP JUMPDEST SWAP1 POP SWAP2 SWAP1 POP JUMP JUMPDEST PUSH1 0x0 PUSH2 0x18E6 PUSH2 0x18E1 DUP4 PUSH2 0x1A91 JUMP JUMPDEST PUSH2 0x17B0 JUMP JUMPDEST SWAP1 POP SWAP2 SWAP1 POP JUMP JUMPDEST PUSH2 0x18F6 DUP3 PUSH2 0x1A80 JUMP JUMPDEST DUP2 ADD DUP2 DUP2 LT PUSH8 0xFFFFFFFFFFFFFFFF DUP3 GT OR ISZERO PUSH2 0x1915 JUMPI PUSH2 0x1914 PUSH2 0x1A25 JUMP JUMPDEST JUMPDEST DUP1 PUSH1 0x40 MSTORE POP POP POP JUMP JUMPDEST PUSH1 0x0 PUSH2 0x1929 DUP3 PUSH2 0x1822 JUMP JUMPDEST SWAP2 POP PUSH32 0xFFFFFFFFFFFFFFFFFFFFFFFFFFFFFFFFFFFFFFFFFFFFFFFFFFFFFFFFFFFFFFFF DUP3 EQ ISZERO PUSH2 0x195C JUMPI PUSH2 0x195B PUSH2 0x1998 JUMP JUMPDEST JUMPDEST PUSH1 0x1 DUP3 ADD SWAP1 POP SWAP2 SWAP1 POP JUMP JUMPDEST PUSH1 0x0 PUSH2 0x1972 DUP3 PUSH2 0x1822 JUMP JUMPDEST SWAP2 POP PUSH2 0x197D DUP4 PUSH2 0x1822 JUMP JUMPDEST SWAP3 POP DUP3 PUSH2 0x198D JUMPI PUSH2 0x198C PUSH2 0x19C7 JUMP JUMPDEST JUMPDEST DUP3 DUP3 MOD SWAP1 POP SWAP3 SWAP2 POP POP JUMP JUMPDEST PUSH32 0x4E487B7100000000000000000000000000000000000000000000000000000000 PUSH1 0x0 MSTORE PUSH1 0x11 PUSH1 0x4 MSTORE PUSH1 0x24 PUSH1 0x0 REVERT JUMPDEST PUSH32 0x4E487B7100000000000000000000000000000000000000000000000000000000 PUSH1 0x0 MSTORE PUSH1 0x12 PUSH1 0x4 MSTORE PUSH1 0x24 PUSH1 0x0 REVERT JUMPDEST PUSH32 0x4E487B7100000000000000000000000000000000000000000000000000000000 PUSH1 0x0 MSTORE PUSH1 0x32 PUSH1 0x4 MSTORE PUSH1 0x24 PUSH1 0x0 REVERT JUMPDEST PUSH32 0x4E487B7100000000000000000000000000000000000000000000000000000000 PUSH1 0x0 MSTORE PUSH1 0x41 PUSH1 0x4 MSTORE PUSH1 0x24 PUSH1 0x0 REVERT JUMPDEST PUSH1 0x0 PUSH2 0x1A60 DUP3 SLOAD PUSH2 0x18D3 JUMP JUMPDEST SWAP1 POP SWAP2 SWAP1 POP JUMP JUMPDEST PUSH1 0x0 DUP1 REVERT JUMPDEST PUSH1 0x0 DUP1 REVERT JUMPDEST PUSH1 0x0 DUP1 REVERT JUMPDEST PUSH1 0x0 DUP1 REVERT JUMPDEST PUSH1 0x0 DUP1 REVERT JUMPDEST PUSH1 0x0 PUSH1 0x1F NOT PUSH1 0x1F DUP4 ADD AND SWAP1 POP SWAP2 SWAP1 POP JUMP JUMPDEST PUSH1 0x0 DUP2 PUSH1 0x0 SHR SWAP1 POP SWAP2 SWAP1 POP JUMP JUMPDEST PUSH32 0x52616E646F6D20636F756E74206D7573742062652031302E0000000000000000 PUSH1 0x0 DUP3 ADD MSTORE POP JUMP JUMPDEST PUSH2 0x1AD0 DUP2 PUSH2 0x17BA JUMP JUMPDEST DUP2 EQ PUSH2 0x1ADB JUMPI PUSH1 0x0 DUP1 REVERT JUMPDEST POP JUMP JUMPDEST PUSH2 0x1AE7 DUP2 PUSH2 0x17CC JUMP JUMPDEST DUP2 EQ PUSH2 0x1AF2 JUMPI PUSH1 0x0 DUP1 REVERT JUMPDEST POP JUMP JUMPDEST PUSH2 0x1AFE DUP2 PUSH2 0x17DE JUMP JUMPDEST DUP2 EQ PUSH2 0x1B09 JUMPI PUSH1 0x0 DUP1 REVERT JUMPDEST POP JUMP JUMPDEST PUSH2 0x1B15 DUP2 PUSH2 0x1822 JUMP JUMPDEST DUP2 EQ PUSH2 0x1B20 JUMPI PUSH1 0x0 DUP1 REVERT JUMPDEST POP JUMP INVALID LOG2 PUSH5 0x6970667358 0x22 SLT KECCAK256 0x25 STOP DUP3 0x2B SWAP5 PUSH1 0x9F 0xA9 CHAINID SWAP15 NOT 0x23 PUSH27 0xD12A7073CF6156A4FB053F77C77809E4BF353264736F6C63430008 SMOD STOP CALLER "
        },
        "methodIdentifiers": {
          "batchPayout((address,uint256)[])": "122a5ff2",
          "checkUpkeep(bytes)": "6e04ff0d",
          "counter()": "61bc221a",
          "interval()": "947a36fb",
          "isOwner()": "8f32d59b",
          "lastTimeStamp()": "3f3b3b27",
          "owner()": "8da5cb5b",
          "performUpkeep(bytes)": "4585e33b",
          "rawFulfillRandomWords(uint256,uint256[])": "1fe543e3",
          "renounceOwnership()": "715018a6",
          "requestRandomWords()": "e0c86289",
          "s_randomWords(uint256)": "f6eaffc8",
          "s_requestId()": "e89e106a",
          "transfer(address,uint256)": "a9059cbb",
          "transferOwnership(address)": "f2fde38b"
        }
      }
    }
  }
}