{
  "_format": "hh-sol-artifact-1",
  "contractName": "Airdrop",
  "sourceName": "contracts/Airdrop.sol",
  "abi": [
    {
      "inputs": [
        {
          "internalType": "uint64",
          "name": "subscriptionId",
          "type": "uint64"
        },
        {
          "internalType": "address",
          "name": "vrfCoordinator",
          "type": "address"
        },
        {
          "internalType": "address",
          "name": "link",
          "type": "address"
        },
        {
          "internalType": "bytes32",
          "name": "keyHash",
          "type": "bytes32"
        },
        {
          "internalType": "address",
          "name": "_token",
          "type": "address"
        },
        {
          "internalType": "uint256",
          "name": "updateInterval",
          "type": "uint256"
        }
      ],
      "stateMutability": "nonpayable",
      "type": "constructor"
    },
    {
      "inputs": [
        {
          "internalType": "address",
          "name": "have",
          "type": "address"
        },
        {
          "internalType": "address",
          "name": "want",
          "type": "address"
        }
      ],
      "name": "OnlyCoordinatorCanFulfill",
      "type": "error"
    },
    {
      "anonymous": false,
      "inputs": [
        {
          "indexed": false,
          "internalType": "uint256",
          "name": "requestId",
          "type": "uint256"
        },
        {
          "indexed": false,
          "internalType": "uint256",
          "name": "randomWords",
          "type": "uint256"
        }
      ],
      "name": "AirDropDone",
      "type": "event"
    },
    {
      "anonymous": false,
      "inputs": [
        {
          "indexed": true,
          "internalType": "address",
          "name": "previousOwner",
          "type": "address"
        }
      ],
      "name": "OwnershipRenounced",
      "type": "event"
    },
    {
      "anonymous": false,
      "inputs": [
        {
          "indexed": true,
          "internalType": "address",
          "name": "previousOwner",
          "type": "address"
        },
        {
          "indexed": true,
          "internalType": "address",
          "name": "newOwner",
          "type": "address"
        }
      ],
      "name": "OwnershipTransferred",
      "type": "event"
    },
    {
      "anonymous": false,
      "inputs": [
        {
          "indexed": false,
          "internalType": "uint256",
          "name": "requestId",
          "type": "uint256"
        },
        {
          "indexed": false,
          "internalType": "uint256[]",
          "name": "randomWords",
          "type": "uint256[]"
        }
      ],
      "name": "ReturnedRandomness",
      "type": "event"
    },
    {
      "inputs": [],
      "name": "AirDropManual",
      "outputs": [],
      "stateMutability": "nonpayable",
      "type": "function"
    },
    {
      "inputs": [],
      "name": "_amount",
      "outputs": [
        {
          "internalType": "uint256",
          "name": "",
          "type": "uint256"
        }
      ],
      "stateMutability": "view",
      "type": "function"
    },
    {
      "inputs": [
        {
          "internalType": "bytes",
          "name": "checkData",
          "type": "bytes"
        }
      ],
      "name": "checkUpkeep",
      "outputs": [
        {
          "internalType": "bool",
          "name": "upkeepNeeded",
          "type": "bool"
        },
        {
          "internalType": "bytes",
          "name": "performData",
          "type": "bytes"
        }
      ],
      "stateMutability": "view",
      "type": "function"
    },
    {
      "inputs": [],
      "name": "counter",
      "outputs": [
        {
          "internalType": "uint256",
          "name": "",
          "type": "uint256"
        }
      ],
      "stateMutability": "view",
      "type": "function"
    },
    {
      "inputs": [],
      "name": "foo",
      "outputs": [],
      "stateMutability": "payable",
      "type": "function"
    },
    {
      "inputs": [],
      "name": "getGasLimit",
      "outputs": [
        {
          "internalType": "uint256",
          "name": "",
          "type": "uint256"
        }
      ],
      "stateMutability": "view",
      "type": "function"
    },
    {
      "inputs": [],
      "name": "getInterval",
      "outputs": [
        {
          "internalType": "uint256",
          "name": "",
          "type": "uint256"
        }
      ],
      "stateMutability": "view",
      "type": "function"
    },
    {
      "inputs": [],
      "name": "getMaxNumber",
      "outputs": [
        {
          "internalType": "uint16",
          "name": "",
          "type": "uint16"
        }
      ],
      "stateMutability": "view",
      "type": "function"
    },
    {
      "inputs": [],
      "name": "getRandomWord",
      "outputs": [
        {
          "internalType": "uint256",
          "name": "",
          "type": "uint256"
        }
      ],
      "stateMutability": "view",
      "type": "function"
    },
    {
      "inputs": [],
      "name": "getTokenAmount",
      "outputs": [
        {
          "internalType": "uint256",
          "name": "",
          "type": "uint256"
        }
      ],
      "stateMutability": "view",
      "type": "function"
    },
    {
      "inputs": [],
      "name": "interval",
      "outputs": [
        {
          "internalType": "uint256",
          "name": "",
          "type": "uint256"
        }
      ],
      "stateMutability": "view",
      "type": "function"
    },
    {
      "inputs": [],
      "name": "isOwner",
      "outputs": [
        {
          "internalType": "bool",
          "name": "",
          "type": "bool"
        }
      ],
      "stateMutability": "view",
      "type": "function"
    },
    {
      "inputs": [],
      "name": "lastTimeStamp",
      "outputs": [
        {
          "internalType": "uint256",
          "name": "",
          "type": "uint256"
        }
      ],
      "stateMutability": "view",
      "type": "function"
    },
    {
      "inputs": [],
      "name": "owner",
      "outputs": [
        {
          "internalType": "address",
          "name": "",
          "type": "address"
        }
      ],
      "stateMutability": "view",
      "type": "function"
    },
    {
      "inputs": [
        {
          "internalType": "bytes",
          "name": "",
          "type": "bytes"
        }
      ],
      "name": "performUpkeep",
      "outputs": [],
      "stateMutability": "nonpayable",
      "type": "function"
    },
    {
      "inputs": [
        {
          "internalType": "uint256",
          "name": "requestId",
          "type": "uint256"
        },
        {
          "internalType": "uint256[]",
          "name": "randomWords",
          "type": "uint256[]"
        }
      ],
      "name": "rawFulfillRandomWords",
      "outputs": [],
      "stateMutability": "nonpayable",
      "type": "function"
    },
    {
      "inputs": [],
      "name": "renounceOwnership",
      "outputs": [],
      "stateMutability": "nonpayable",
      "type": "function"
    },
    {
      "inputs": [],
      "name": "s_randomWords",
      "outputs": [
        {
          "internalType": "uint256",
          "name": "",
          "type": "uint256"
        }
      ],
      "stateMutability": "view",
      "type": "function"
    },
    {
      "inputs": [],
      "name": "s_requestId",
      "outputs": [
        {
          "internalType": "uint256",
          "name": "",
          "type": "uint256"
        }
      ],
      "stateMutability": "view",
      "type": "function"
    },
    {
      "inputs": [
        {
          "internalType": "address[]",
          "name": "addresslist",
          "type": "address[]"
        }
      ],
      "name": "setAddresslist",
      "outputs": [],
      "stateMutability": "nonpayable",
      "type": "function"
    },
    {
      "inputs": [
        {
          "internalType": "uint32",
          "name": "gasLimit",
          "type": "uint32"
        }
      ],
      "name": "setGasLimit",
      "outputs": [],
      "stateMutability": "nonpayable",
      "type": "function"
    },
    {
      "inputs": [
        {
          "internalType": "uint256",
          "name": "Interval",
          "type": "uint256"
        }
      ],
      "name": "setInterval",
      "outputs": [],
      "stateMutability": "nonpayable",
      "type": "function"
    },
    {
      "inputs": [
        {
          "internalType": "uint256",
          "name": "tokenAmount",
          "type": "uint256"
        }
      ],
      "name": "setTokenAmount",
      "outputs": [],
      "stateMutability": "nonpayable",
      "type": "function"
    },
    {
      "inputs": [
        {
          "internalType": "address",
          "name": "to",
          "type": "address"
        },
        {
          "internalType": "uint256",
          "name": "amount",
          "type": "uint256"
        }
      ],
      "name": "transfer",
      "outputs": [],
      "stateMutability": "nonpayable",
      "type": "function"
    },
    {
      "inputs": [
        {
          "internalType": "address",
          "name": "newOwner",
          "type": "address"
        }
      ],
      "name": "transferOwnership",
      "outputs": [],
      "stateMutability": "nonpayable",
      "type": "function"
    }
  ],
  "bytecode": "0x610180604052620493e0600160146101000a81548163ffffffff021916908363ffffffff160217905550600361ffff166101209061ffff1660f01b815250600163ffffffff166101409063ffffffff1660e01b8152506009600460006101000a81548161ffff021916908361ffff160217905550600061ffff166101609061ffff1660f01b8152506127106009553480156200009a57600080fd5b5060405162001d7c38038062001d7c8339818101604052810190620000c091906200028e565b848073ffffffffffffffffffffffffffffffffffffffff1660808173ffffffffffffffffffffffffffffffffffffffff1660601b8152505050336000806101000a81548173ffffffffffffffffffffffffffffffffffffffff021916908373ffffffffffffffffffffffffffffffffffffffff1602179055508473ffffffffffffffffffffffffffffffffffffffff1660a08173ffffffffffffffffffffffffffffffffffffffff1660601b815250508373ffffffffffffffffffffffffffffffffffffffff1660c08173ffffffffffffffffffffffffffffffffffffffff1660601b815250508261010081815250508567ffffffffffffffff1660e08167ffffffffffffffff1660c01b8152505081600160006101000a81548173ffffffffffffffffffffffffffffffffffffffff021916908373ffffffffffffffffffffffffffffffffffffffff16021790555080600781905550426008819055506000600681905550505050505050620003f3565b60008151905062000243816200038b565b92915050565b6000815190506200025a81620003a5565b92915050565b6000815190506200027181620003bf565b92915050565b6000815190506200028881620003d9565b92915050565b60008060008060008060c08789031215620002ae57620002ad62000386565b5b6000620002be89828a0162000277565b9650506020620002d189828a0162000232565b9550506040620002e489828a0162000232565b9450506060620002f789828a0162000249565b93505060806200030a89828a0162000232565b92505060a06200031d89828a0162000260565b9150509295509295509295565b6000620003378262000348565b9050919050565b6000819050919050565b600073ffffffffffffffffffffffffffffffffffffffff82169050919050565b6000819050919050565b600067ffffffffffffffff82169050919050565b600080fd5b62000396816200032a565b8114620003a257600080fd5b50565b620003b0816200033e565b8114620003bc57600080fd5b50565b620003ca8162000368565b8114620003d657600080fd5b50565b620003e48162000372565b8114620003f057600080fd5b50565b60805160601c60a05160601c60c05160601c60e05160c01c610100516101205160f01c6101405160e01c6101605160f01c6119036200047960003960008181610a080152610a2f01526000610c9201526000610c5e01526000610c1c01526000610c3d0152600050506000610be001526000818161058a01526105de01526119036000f3fe6080604052600436106101665760003560e01c8063715018a6116100d15780639887f1801161008a578063bf107de411610064578063bf107de4146104cf578063c2985578146104fa578063e89e106a14610504578063f2fde38b1461052f57610166565b80639887f18014610450578063a75454f41461047b578063a9059cbb146104a657610166565b8063715018a61461036257806375f91ec8146103795780638da5cb5b146103a45780638f32d59b146103cf57806391ad27b4146103fa578063947a36fb1461042557610166565b80633fb7231b116101235780633fb7231b146102675780634585e33b1461027e57806352d84c62146102a757806355946e87146102d057806361bc221a146102f95780636e04ff0d1461032457610166565b80630749469f1461016b5780631a93d1c3146101945780631d3c7b91146101bf5780631fe543e3146101ea57806322a90082146102135780633f3b3b271461023c575b600080fd5b34801561017757600080fd5b50610192600480360381019061018d91906111f4565b610558565b005b3480156101a057600080fd5b506101a9610562565b6040516101b6919061149f565b60405180910390f35b3480156101cb57600080fd5b506101d4610582565b6040516101e1919061149f565b60405180910390f35b3480156101f657600080fd5b50610211600480360381019061020c919061124e565b610588565b005b34801561021f57600080fd5b5061023a600480360381019061023591906111f4565b610648565b005b34801561024857600080fd5b50610251610652565b60405161025e919061149f565b60405180910390f35b34801561027357600080fd5b5061027c610658565b005b34801561028a57600080fd5b506102a560048036038101906102a091906111a7565b610673565b005b3480156102b357600080fd5b506102ce60048036038101906102c991906112aa565b6106ad565b005b3480156102dc57600080fd5b506102f760048036038101906102f29190611131565b6106e2565b005b34801561030557600080fd5b5061030e610737565b60405161031b919061149f565b60405180910390f35b34801561033057600080fd5b5061034b600480360381019061034691906111a7565b61073d565b604051610359929190611401565b60405180910390f35b34801561036e57600080fd5b506103776107a3565b005b34801561038557600080fd5b5061038e61085a565b60405161039b919061149f565b60405180910390f35b3480156103b057600080fd5b506103b9610864565b6040516103c69190611379565b60405180910390f35b3480156103db57600080fd5b506103e461088d565b6040516103f191906113e6565b60405180910390f35b34801561040657600080fd5b5061040f6108e4565b60405161041c919061149f565b60405180910390f35b34801561043157600080fd5b5061043a6108ee565b604051610447919061149f565b60405180910390f35b34801561045c57600080fd5b506104656108f4565b604051610472919061149f565b60405180910390f35b34801561048757600080fd5b506104906108fa565b60405161049d919061149f565b60405180910390f35b3480156104b257600080fd5b506104cd60048036038101906104c891906110f1565b610904565b005b3480156104db57600080fd5b506104e46109c9565b6040516104f19190611484565b60405180910390f35b6105026109e1565b005b34801561051057600080fd5b506105196109e3565b604051610526919061149f565b60405180910390f35b34801561053b57600080fd5b50610556600480360381019061055191906110c4565b6109e9565b005b8060098190555050565b6000600160149054906101000a900463ffffffff1663ffffffff16905090565b60025481565b7f000000000000000000000000000000000000000000000000000000000000000073ffffffffffffffffffffffffffffffffffffffff163373ffffffffffffffffffffffffffffffffffffffff161461063a57337f00000000000000000000000000000000000000000000000000000000000000006040517f1cf993f4000000000000000000000000000000000000000000000000000000008152600401610631929190611394565b60405180910390fd5b6106448282610a06565b5050565b8060078190555050565b60085481565b61066061088d565b61066957600080fd5b610671610bde565b565b60075460085442610684919061163e565b11156106a95742600881905550600a60058054905011156106a8576106a7610bde565b5b5b5050565b6106b561088d565b6106be57600080fd5b80600160146101000a81548163ffffffff021916908363ffffffff16021790555050565b6106ea61088d565b6106f357600080fd5b8060059080519060200190610709929190610e22565b5060018151610718919061163e565b600460006101000a81548161ffff021916908361ffff16021790555050565b60065481565b6000606060075460085442610752919061163e565b11915083838080601f016020809104026020016040519081016040528093929190818152602001838380828437600081840152601f19601f8201169050808301925050505050505090509250929050565b6107ab61088d565b6107b457600080fd5b60008054906101000a900473ffffffffffffffffffffffffffffffffffffffff1673ffffffffffffffffffffffffffffffffffffffff167ff8df31144d9c2f0f6b59d69b8b98abd5459d07f2742c4df920b25aae33c6482060405160405180910390a260008060006101000a81548173ffffffffffffffffffffffffffffffffffffffff021916908373ffffffffffffffffffffffffffffffffffffffff160217905550565b6000600954905090565b60008060009054906101000a900473ffffffffffffffffffffffffffffffffffffffff16905090565b60008060009054906101000a900473ffffffffffffffffffffffffffffffffffffffff1673ffffffffffffffffffffffffffffffffffffffff163373ffffffffffffffffffffffffffffffffffffffff1614905090565b6000600754905090565b60075481565b60095481565b6000600254905090565b61090c61088d565b61091557600080fd5b600160009054906101000a900473ffffffffffffffffffffffffffffffffffffffff1673ffffffffffffffffffffffffffffffffffffffff1663a9059cbb83836040518363ffffffff1660e01b81526004016109729291906113bd565b602060405180830381600087803b15801561098c57600080fd5b505af11580156109a0573d6000803e3d6000fd5b505050506040513d601f19601f820116820180604052508101906109c4919061117a565b505050565b6000600460009054906101000a900461ffff16905090565b565b60035481565b6109f161088d565b6109fa57600080fd5b610a0381610d2b565b50565b7f000000000000000000000000000000000000000000000000000000000000000061ffff1660017f0000000000000000000000000000000000000000000000000000000000000000600460009054906101000a900461ffff16610a69919061160a565b610a73919061157c565b61ffff1682600081518110610a8b57610a8a6117e9565b5b6020026020010151610a9d919061175a565b610aa791906115b4565b600281905550600160009054906101000a900473ffffffffffffffffffffffffffffffffffffffff1673ffffffffffffffffffffffffffffffffffffffff1663a9059cbb600560025481548110610b0157610b006117e9565b5b9060005260206000200160009054906101000a900473ffffffffffffffffffffffffffffffffffffffff166009546040518363ffffffff1660e01b8152600401610b4c9291906113bd565b602060405180830381600087803b158015610b6657600080fd5b505af1158015610b7a573d6000803e3d6000fd5b505050506040513d601f19601f82011682018060405250810190610b9e919061117a565b507f3c33da82ee8a83078a94d814bb367d3fd31d27b260eae2d9ea62c648ada7cd1282600254604051610bd29291906114ba565b60405180910390a15050565b7f000000000000000000000000000000000000000000000000000000000000000073ffffffffffffffffffffffffffffffffffffffff16635d3b1d307f00000000000000000000000000000000000000000000000000000000000000007f00000000000000000000000000000000000000000000000000000000000000007f0000000000000000000000000000000000000000000000000000000000000000600160149054906101000a900463ffffffff167f00000000000000000000000000000000000000000000000000000000000000006040518663ffffffff1660e01b8152600401610cd1959493929190611431565b602060405180830381600087803b158015610ceb57600080fd5b505af1158015610cff573d6000803e3d6000fd5b505050506040513d601f19601f82011682018060405250810190610d239190611221565b600381905550565b600073ffffffffffffffffffffffffffffffffffffffff168173ffffffffffffffffffffffffffffffffffffffff161415610d6557600080fd5b8073ffffffffffffffffffffffffffffffffffffffff1660008054906101000a900473ffffffffffffffffffffffffffffffffffffffff1673ffffffffffffffffffffffffffffffffffffffff167f8be0079c531659141344cd1fd0a4f28419497f9722a3daafe3b4186f6b6457e060405160405180910390a3806000806101000a81548173ffffffffffffffffffffffffffffffffffffffff021916908373ffffffffffffffffffffffffffffffffffffffff16021790555050565b828054828255906000526020600020908101928215610e9b579160200282015b82811115610e9a5782518260006101000a81548173ffffffffffffffffffffffffffffffffffffffff021916908373ffffffffffffffffffffffffffffffffffffffff16021790555091602001919060010190610e42565b5b509050610ea89190610eac565b5090565b5b80821115610ec5576000816000905550600101610ead565b5090565b6000610edc610ed784611508565b6114e3565b90508083825260208201905082856020860282011115610eff57610efe611851565b5b60005b85811015610f2f5781610f158882610fa9565b845260208401935060208301925050600181019050610f02565b5050509392505050565b6000610f4c610f4784611534565b6114e3565b90508083825260208201905082856020860282011115610f6f57610f6e611851565b5b60005b85811015610f9f5781610f858882611085565b845260208401935060208301925050600181019050610f72565b5050509392505050565b600081359050610fb881611871565b92915050565b600082601f830112610fd357610fd261184c565b5b8135610fe3848260208601610ec9565b91505092915050565b600082601f8301126110015761100061184c565b5b8135611011848260208601610f39565b91505092915050565b60008151905061102981611888565b92915050565b60008083601f8401126110455761104461184c565b5b8235905067ffffffffffffffff81111561106257611061611847565b5b60208301915083600182028301111561107e5761107d611851565b5b9250929050565b6000813590506110948161189f565b92915050565b6000815190506110a98161189f565b92915050565b6000813590506110be816118b6565b92915050565b6000602082840312156110da576110d961185b565b5b60006110e884828501610fa9565b91505092915050565b600080604083850312156111085761110761185b565b5b600061111685828601610fa9565b925050602061112785828601611085565b9150509250929050565b6000602082840312156111475761114661185b565b5b600082013567ffffffffffffffff81111561116557611164611856565b5b61117184828501610fbe565b91505092915050565b6000602082840312156111905761118f61185b565b5b600061119e8482850161101a565b91505092915050565b600080602083850312156111be576111bd61185b565b5b600083013567ffffffffffffffff8111156111dc576111db611856565b5b6111e88582860161102f565b92509250509250929050565b60006020828403121561120a5761120961185b565b5b600061121884828501611085565b91505092915050565b6000602082840312156112375761123661185b565b5b60006112458482850161109a565b91505092915050565b600080604083850312156112655761126461185b565b5b600061127385828601611085565b925050602083013567ffffffffffffffff81111561129457611293611856565b5b6112a085828601610fec565b9150509250929050565b6000602082840312156112c0576112bf61185b565b5b60006112ce848285016110af565b91505092915050565b6112e081611672565b82525050565b6112ef81611684565b82525050565b6112fe81611690565b82525050565b600061130f82611560565b611319818561156b565b93506113298185602086016116f6565b61133281611860565b840191505092915050565b6113468161169a565b82525050565b611355816116c8565b82525050565b611364816116d2565b82525050565b611373816116e2565b82525050565b600060208201905061138e60008301846112d7565b92915050565b60006040820190506113a960008301856112d7565b6113b660208301846112d7565b9392505050565b60006040820190506113d260008301856112d7565b6113df602083018461134c565b9392505050565b60006020820190506113fb60008301846112e6565b92915050565b600060408201905061141660008301856112e6565b81810360208301526114288184611304565b90509392505050565b600060a08201905061144660008301886112f5565b611453602083018761136a565b611460604083018661133d565b61146d606083018561135b565b61147a608083018461135b565b9695505050505050565b6000602082019050611499600083018461133d565b92915050565b60006020820190506114b4600083018461134c565b92915050565b60006040820190506114cf600083018561134c565b6114dc602083018461134c565b9392505050565b60006114ed6114fe565b90506114f98282611729565b919050565b6000604051905090565b600067ffffffffffffffff82111561152357611522611818565b5b602082029050602081019050919050565b600067ffffffffffffffff82111561154f5761154e611818565b5b602082029050602081019050919050565b600081519050919050565b600082825260208201905092915050565b60006115878261169a565b91506115928361169a565b92508261ffff038211156115a9576115a861178b565b5b828201905092915050565b60006115bf826116c8565b91506115ca836116c8565b9250827fffffffffffffffffffffffffffffffffffffffffffffffffffffffffffffffff038211156115ff576115fe61178b565b5b828201905092915050565b60006116158261169a565b91506116208361169a565b9250828210156116335761163261178b565b5b828203905092915050565b6000611649826116c8565b9150611654836116c8565b9250828210156116675761166661178b565b5b828203905092915050565b600061167d826116a8565b9050919050565b60008115159050919050565b6000819050919050565b600061ffff82169050919050565b600073ffffffffffffffffffffffffffffffffffffffff82169050919050565b6000819050919050565b600063ffffffff82169050919050565b600067ffffffffffffffff82169050919050565b60005b838110156117145780820151818401526020810190506116f9565b83811115611723576000848401525b50505050565b61173282611860565b810181811067ffffffffffffffff8211171561175157611750611818565b5b80604052505050565b6000611765826116c8565b9150611770836116c8565b9250826117805761177f6117ba565b5b828206905092915050565b7f4e487b7100000000000000000000000000000000000000000000000000000000600052601160045260246000fd5b7f4e487b7100000000000000000000000000000000000000000000000000000000600052601260045260246000fd5b7f4e487b7100000000000000000000000000000000000000000000000000000000600052603260045260246000fd5b7f4e487b7100000000000000000000000000000000000000000000000000000000600052604160045260246000fd5b600080fd5b600080fd5b600080fd5b600080fd5b600080fd5b6000601f19601f8301169050919050565b61187a81611672565b811461188557600080fd5b50565b61189181611684565b811461189c57600080fd5b50565b6118a8816116c8565b81146118b357600080fd5b50565b6118bf816116d2565b81146118ca57600080fd5b5056fea26469706673582212202da312145d3b5bd27f7798e2e78b8a000b04d5cf4d354b6e7714c334d7ba70fd64736f6c63430008070033",
  "linkReferences": {},
  "deployedLinkReferences": {}
}