{
  "_format": "hh-sol-artifact-1",
  "contractName": "DividendPayingToken",
  "sourceName": "contracts/Test.sol",
  "abi": [
    {
      "inputs": [
        {
          "internalType": "string",
          "name": "_name",
          "type": "string"
        },
        {
          "internalType": "string",
          "name": "_symbol",
          "type": "string"
        }
      ],
      "stateMutability": "nonpayable",
      "type": "constructor"
    },
    {
      "anonymous": false,
      "inputs": [
        {
          "indexed": true,
          "internalType": "address",
          "name": "owner",
          "type": "address"
        },
        {
          "indexed": true,
          "internalType": "address",
          "name": "spender",
          "type": "address"
        },
        {
          "indexed": false,
          "internalType": "uint256",
          "name": "value",
          "type": "uint256"
        }
      ],
      "name": "Approval",
      "type": "event"
    },
    {
      "anonymous": false,
      "inputs": [
        {
          "indexed": true,
          "internalType": "address",
          "name": "to",
          "type": "address"
        },
        {
          "indexed": false,
          "internalType": "uint256",
          "name": "weiAmount",
          "type": "uint256"
        }
      ],
      "name": "DividendWithdrawn",
      "type": "event"
    },
    {
      "anonymous": false,
      "inputs": [
        {
          "indexed": true,
          "internalType": "address",
          "name": "from",
          "type": "address"
        },
        {
          "indexed": false,
          "internalType": "uint256",
          "name": "weiAmount",
          "type": "uint256"
        }
      ],
      "name": "DividendsDistributed",
      "type": "event"
    },
    {
      "anonymous": false,
      "inputs": [
        {
          "indexed": true,
          "internalType": "address",
          "name": "previousOwner",
          "type": "address"
        },
        {
          "indexed": true,
          "internalType": "address",
          "name": "newOwner",
          "type": "address"
        }
      ],
      "name": "OwnershipTransferred",
      "type": "event"
    },
    {
      "anonymous": false,
      "inputs": [
        {
          "indexed": true,
          "internalType": "address",
          "name": "from",
          "type": "address"
        },
        {
          "indexed": true,
          "internalType": "address",
          "name": "to",
          "type": "address"
        },
        {
          "indexed": false,
          "internalType": "uint256",
          "name": "value",
          "type": "uint256"
        }
      ],
      "name": "Transfer",
      "type": "event"
    },
    {
      "inputs": [],
      "name": "SHIB",
      "outputs": [
        {
          "internalType": "address",
          "name": "",
          "type": "address"
        }
      ],
      "stateMutability": "view",
      "type": "function"
    },
    {
      "inputs": [
        {
          "internalType": "address",
          "name": "_owner",
          "type": "address"
        }
      ],
      "name": "accumulativeDividendOf",
      "outputs": [
        {
          "internalType": "uint256",
          "name": "",
          "type": "uint256"
        }
      ],
      "stateMutability": "view",
      "type": "function"
    },
    {
      "inputs": [
        {
          "internalType": "address",
          "name": "owner",
          "type": "address"
        },
        {
          "internalType": "address",
          "name": "spender",
          "type": "address"
        }
      ],
      "name": "allowance",
      "outputs": [
        {
          "internalType": "uint256",
          "name": "",
          "type": "uint256"
        }
      ],
      "stateMutability": "view",
      "type": "function"
    },
    {
      "inputs": [
        {
          "internalType": "address",
          "name": "spender",
          "type": "address"
        },
        {
          "internalType": "uint256",
          "name": "amount",
          "type": "uint256"
        }
      ],
      "name": "approve",
      "outputs": [
        {
          "internalType": "bool",
          "name": "",
          "type": "bool"
        }
      ],
      "stateMutability": "nonpayable",
      "type": "function"
    },
    {
      "inputs": [
        {
          "internalType": "address",
          "name": "account",
          "type": "address"
        }
      ],
      "name": "balanceOf",
      "outputs": [
        {
          "internalType": "uint256",
          "name": "",
          "type": "uint256"
        }
      ],
      "stateMutability": "view",
      "type": "function"
    },
    {
      "inputs": [],
      "name": "decimals",
      "outputs": [
        {
          "internalType": "uint8",
          "name": "",
          "type": "uint8"
        }
      ],
      "stateMutability": "view",
      "type": "function"
    },
    {
      "inputs": [
        {
          "internalType": "address",
          "name": "spender",
          "type": "address"
        },
        {
          "internalType": "uint256",
          "name": "subtractedValue",
          "type": "uint256"
        }
      ],
      "name": "decreaseAllowance",
      "outputs": [
        {
          "internalType": "bool",
          "name": "",
          "type": "bool"
        }
      ],
      "stateMutability": "nonpayable",
      "type": "function"
    },
    {
      "inputs": [
        {
          "internalType": "uint256",
          "name": "amount",
          "type": "uint256"
        }
      ],
      "name": "distributeSHIBDividends",
      "outputs": [],
      "stateMutability": "nonpayable",
      "type": "function"
    },
    {
      "inputs": [
        {
          "internalType": "address",
          "name": "_owner",
          "type": "address"
        }
      ],
      "name": "dividendOf",
      "outputs": [
        {
          "internalType": "uint256",
          "name": "",
          "type": "uint256"
        }
      ],
      "stateMutability": "view",
      "type": "function"
    },
    {
      "inputs": [
        {
          "internalType": "address",
          "name": "spender",
          "type": "address"
        },
        {
          "internalType": "uint256",
          "name": "addedValue",
          "type": "uint256"
        }
      ],
      "name": "increaseAllowance",
      "outputs": [
        {
          "internalType": "bool",
          "name": "",
          "type": "bool"
        }
      ],
      "stateMutability": "nonpayable",
      "type": "function"
    },
    {
      "inputs": [],
      "name": "name",
      "outputs": [
        {
          "internalType": "string",
          "name": "",
          "type": "string"
        }
      ],
      "stateMutability": "view",
      "type": "function"
    },
    {
      "inputs": [],
      "name": "owner",
      "outputs": [
        {
          "internalType": "address",
          "name": "",
          "type": "address"
        }
      ],
      "stateMutability": "view",
      "type": "function"
    },
    {
      "inputs": [],
      "name": "renounceOwnership",
      "outputs": [],
      "stateMutability": "nonpayable",
      "type": "function"
    },
    {
      "inputs": [],
      "name": "symbol",
      "outputs": [
        {
          "internalType": "string",
          "name": "",
          "type": "string"
        }
      ],
      "stateMutability": "view",
      "type": "function"
    },
    {
      "inputs": [],
      "name": "totalDividendsDistributed",
      "outputs": [
        {
          "internalType": "uint256",
          "name": "",
          "type": "uint256"
        }
      ],
      "stateMutability": "view",
      "type": "function"
    },
    {
      "inputs": [],
      "name": "totalSupply",
      "outputs": [
        {
          "internalType": "uint256",
          "name": "",
          "type": "uint256"
        }
      ],
      "stateMutability": "view",
      "type": "function"
    },
    {
      "inputs": [
        {
          "internalType": "address",
          "name": "recipient",
          "type": "address"
        },
        {
          "internalType": "uint256",
          "name": "amount",
          "type": "uint256"
        }
      ],
      "name": "transfer",
      "outputs": [
        {
          "internalType": "bool",
          "name": "",
          "type": "bool"
        }
      ],
      "stateMutability": "nonpayable",
      "type": "function"
    },
    {
      "inputs": [
        {
          "internalType": "address",
          "name": "sender",
          "type": "address"
        },
        {
          "internalType": "address",
          "name": "recipient",
          "type": "address"
        },
        {
          "internalType": "uint256",
          "name": "amount",
          "type": "uint256"
        }
      ],
      "name": "transferFrom",
      "outputs": [
        {
          "internalType": "bool",
          "name": "",
          "type": "bool"
        }
      ],
      "stateMutability": "nonpayable",
      "type": "function"
    },
    {
      "inputs": [
        {
          "internalType": "address",
          "name": "newOwner",
          "type": "address"
        }
      ],
      "name": "transferOwnership",
      "outputs": [],
      "stateMutability": "nonpayable",
      "type": "function"
    },
    {
      "inputs": [],
      "name": "withdrawDividend",
      "outputs": [],
      "stateMutability": "nonpayable",
      "type": "function"
    },
    {
      "inputs": [
        {
          "internalType": "address",
          "name": "_owner",
          "type": "address"
        }
      ],
      "name": "withdrawableDividendOf",
      "outputs": [
        {
          "internalType": "uint256",
          "name": "",
          "type": "uint256"
        }
      ],
      "stateMutability": "view",
      "type": "function"
    },
    {
      "inputs": [
        {
          "internalType": "address",
          "name": "_owner",
          "type": "address"
        }
      ],
      "name": "withdrawnDividendOf",
      "outputs": [
        {
          "internalType": "uint256",
          "name": "",
          "type": "uint256"
        }
      ],
      "stateMutability": "view",
      "type": "function"
    }
  ],
  "bytecode": "0x60a0604052732859e4544c4bb03966803b044a93563bd2d0dd4d73ffffffffffffffffffffffffffffffffffffffff1660809073ffffffffffffffffffffffffffffffffffffffff1660601b8152503480156200005b57600080fd5b50604051620026cd380380620026cd8339818101604052810190620000819190620002a6565b818181600390805190602001906200009b92919062000178565b508060049080519060200190620000b492919062000178565b5050506000620000c96200017060201b60201c565b905080600560006101000a81548173ffffffffffffffffffffffffffffffffffffffff021916908373ffffffffffffffffffffffffffffffffffffffff1602179055508073ffffffffffffffffffffffffffffffffffffffff16600073ffffffffffffffffffffffffffffffffffffffff167f8be0079c531659141344cd1fd0a4f28419497f9722a3daafe3b4186f6b6457e060405160405180910390a3505050620004af565b600033905090565b8280546200018690620003c0565b90600052602060002090601f016020900481019282620001aa5760008555620001f6565b82601f10620001c557805160ff1916838001178555620001f6565b82800160010185558215620001f6579182015b82811115620001f5578251825591602001919060010190620001d8565b5b50905062000205919062000209565b5090565b5b80821115620002245760008160009055506001016200020a565b5090565b60006200023f620002398462000354565b6200032b565b9050828152602081018484840111156200025e576200025d6200048f565b5b6200026b8482856200038a565b509392505050565b600082601f8301126200028b576200028a6200048a565b5b81516200029d84826020860162000228565b91505092915050565b60008060408385031215620002c057620002bf62000499565b5b600083015167ffffffffffffffff811115620002e157620002e062000494565b5b620002ef8582860162000273565b925050602083015167ffffffffffffffff81111562000313576200031262000494565b5b620003218582860162000273565b9150509250929050565b6000620003376200034a565b9050620003458282620003f6565b919050565b6000604051905090565b600067ffffffffffffffff8211156200037257620003716200045b565b5b6200037d826200049e565b9050602081019050919050565b60005b83811015620003aa5780820151818401526020810190506200038d565b83811115620003ba576000848401525b50505050565b60006002820490506001821680620003d957607f821691505b60208210811415620003f057620003ef6200042c565b5b50919050565b62000401826200049e565b810181811067ffffffffffffffff821117156200042357620004226200045b565b5b80604052505050565b7f4e487b7100000000000000000000000000000000000000000000000000000000600052602260045260246000fd5b7f4e487b7100000000000000000000000000000000000000000000000000000000600052604160045260246000fd5b600080fd5b600080fd5b600080fd5b600080fd5b6000601f19601f8301169050919050565b60805160601c6121f8620004d560003960008181610c07015261154a01526121f86000f3fe608060405234801561001057600080fd5b50600436106101425760003560e01c80638da5cb5b116100b8578063a9059cbb1161007c578063a9059cbb1461038f578063aafd847a146103bf578063dd62ed3e146103ef578063e24b85e71461041f578063ec4be22d1461043d578063f2fde38b1461045957610142565b80638da5cb5b146102c357806391b89fba146102e157806395d89b4114610311578063a457c2d71461032f578063a8b9d2401461035f57610142565b8063313ce5671161010a578063313ce5671461021357806339509351146102315780636a4740021461026157806370a082311461026b578063715018a61461029b57806385a6b3ae146102a557610142565b806306fdde0314610147578063095ea7b31461016557806318160ddd1461019557806323b872dd146101b357806327ce0147146101e3575b600080fd5b61014f610475565b60405161015c9190611a94565b60405180910390f35b61017f600480360381019061017a9190611845565b610507565b60405161018c9190611a79565b60405180910390f35b61019d610525565b6040516101aa9190611b76565b60405180910390f35b6101cd60048036038101906101c891906117f2565b61052f565b6040516101da9190611a79565b60405180910390f35b6101fd60048036038101906101f89190611785565b610608565b60405161020a9190611b76565b60405180910390f35b61021b6106ab565b6040516102289190611b91565b60405180910390f35b61024b60048036038101906102469190611845565b6106b4565b6040516102589190611a79565b60405180910390f35b610269610767565b005b61028560048036038101906102809190611785565b610773565b6040516102929190611b76565b60405180910390f35b6102a36107bb565b005b6102ad610913565b6040516102ba9190611b76565b60405180910390f35b6102cb610919565b6040516102d89190611a35565b60405180910390f35b6102fb60048036038101906102f69190611785565b610943565b6040516103089190611b76565b60405180910390f35b610319610955565b6040516103269190611a94565b60405180910390f35b61034960048036038101906103449190611845565b6109e7565b6040516103569190611a79565b60405180910390f35b61037960048036038101906103749190611785565b610ab4565b6040516103869190611b76565b60405180910390f35b6103a960048036038101906103a49190611845565b610b17565b6040516103b69190611a79565b60405180910390f35b6103d960048036038101906103d49190611785565b610b35565b6040516103e69190611b76565b60405180910390f35b610409600480360381019061040491906117b2565b610b7e565b6040516104169190611b76565b60405180910390f35b610427610c05565b6040516104349190611a35565b60405180910390f35b610457600480360381019061045291906118b2565b610c29565b005b610473600480360381019061046e9190611785565b610d9a565b005b60606003805461048490611ecd565b80601f01602080910402602001604051908101604052809291908181526020018280546104b090611ecd565b80156104fd5780601f106104d2576101008083540402835291602001916104fd565b820191906000526020600020905b8154815290600101906020018083116104e057829003601f168201915b5050505050905090565b600061051b610514610f61565b8484610f69565b6001905092915050565b6000600254905090565b600061053c848484611134565b6105fd84610548610f61565b6105f88560405180606001604052806028815260200161217660289139600160008b73ffffffffffffffffffffffffffffffffffffffff1673ffffffffffffffffffffffffffffffffffffffff16815260200190815260200160002060006105ae610f61565b73ffffffffffffffffffffffffffffffffffffffff1673ffffffffffffffffffffffffffffffffffffffff168152602001908152602001600020546112909092919063ffffffff16565b610f69565b600190509392505050565b600070010000000000000000000000000000000061069a610695600760008673ffffffffffffffffffffffffffffffffffffffff1673ffffffffffffffffffffffffffffffffffffffff1681526020019081526020016000205461068761068261067188610773565b6006546112f490919063ffffffff16565b61136f565b61138c90919063ffffffff16565b6113d7565b6106a49190611cb2565b9050919050565b60006012905090565b600061075d6106c1610f61565b8461075885600160006106d2610f61565b73ffffffffffffffffffffffffffffffffffffffff1673ffffffffffffffffffffffffffffffffffffffff16815260200190815260200160002060008973ffffffffffffffffffffffffffffffffffffffff1673ffffffffffffffffffffffffffffffffffffffff168152602001908152602001600020546113ee90919063ffffffff16565b610f69565b6001905092915050565b6107703361144c565b50565b60008060008373ffffffffffffffffffffffffffffffffffffffff1673ffffffffffffffffffffffffffffffffffffffff168152602001908152602001600020549050919050565b6107c3610f61565b73ffffffffffffffffffffffffffffffffffffffff16600560009054906101000a900473ffffffffffffffffffffffffffffffffffffffff1673ffffffffffffffffffffffffffffffffffffffff1614610852576040517f08c379a000000000000000000000000000000000000000000000000000000000815260040161084990611b36565b60405180910390fd5b600073ffffffffffffffffffffffffffffffffffffffff16600560009054906101000a900473ffffffffffffffffffffffffffffffffffffffff1673ffffffffffffffffffffffffffffffffffffffff167f8be0079c531659141344cd1fd0a4f28419497f9722a3daafe3b4186f6b6457e060405160405180910390a36000600560006101000a81548173ffffffffffffffffffffffffffffffffffffffff021916908373ffffffffffffffffffffffffffffffffffffffff160217905550565b60095481565b6000600560009054906101000a900473ffffffffffffffffffffffffffffffffffffffff16905090565b600061094e82610ab4565b9050919050565b60606004805461096490611ecd565b80601f016020809104026020016040519081016040528092919081815260200182805461099090611ecd565b80156109dd5780601f106109b2576101008083540402835291602001916109dd565b820191906000526020600020905b8154815290600101906020018083116109c057829003601f168201915b5050505050905090565b6000610aaa6109f4610f61565b84610aa58560405180606001604052806025815260200161219e6025913960016000610a1e610f61565b73ffffffffffffffffffffffffffffffffffffffff1673ffffffffffffffffffffffffffffffffffffffff16815260200190815260200160002060008a73ffffffffffffffffffffffffffffffffffffffff1673ffffffffffffffffffffffffffffffffffffffff168152602001908152602001600020546112909092919063ffffffff16565b610f69565b6001905092915050565b6000610b10600860008473ffffffffffffffffffffffffffffffffffffffff1673ffffffffffffffffffffffffffffffffffffffff16815260200190815260200160002054610b0284610608565b6116b190919063ffffffff16565b9050919050565b6000610b2b610b24610f61565b8484611134565b6001905092915050565b6000600860008373ffffffffffffffffffffffffffffffffffffffff1673ffffffffffffffffffffffffffffffffffffffff168152602001908152602001600020549050919050565b6000600160008473ffffffffffffffffffffffffffffffffffffffff1673ffffffffffffffffffffffffffffffffffffffff16815260200190815260200160002060008373ffffffffffffffffffffffffffffffffffffffff1673ffffffffffffffffffffffffffffffffffffffff16815260200190815260200160002054905092915050565b7f000000000000000000000000000000000000000000000000000000000000000081565b610c31610f61565b73ffffffffffffffffffffffffffffffffffffffff16600560009054906101000a900473ffffffffffffffffffffffffffffffffffffffff1673ffffffffffffffffffffffffffffffffffffffff1614610cc0576040517f08c379a0000000000000000000000000000000000000000000000000000000008152600401610cb790611b36565b60405180910390fd5b6000610cca610525565b11610cd457600080fd5b6000811115610d9757610d27610ce8610525565b610d0c700100000000000000000000000000000000846112f490919063ffffffff16565b610d169190611cb2565b6006546113ee90919063ffffffff16565b6006819055503373ffffffffffffffffffffffffffffffffffffffff167fa493a9229478c3fcd73f66d2cdeb7f94fd0f341da924d1054236d7845411651182604051610d739190611b76565b60405180910390a2610d90816009546113ee90919063ffffffff16565b6009819055505b50565b610da2610f61565b73ffffffffffffffffffffffffffffffffffffffff16600560009054906101000a900473ffffffffffffffffffffffffffffffffffffffff1673ffffffffffffffffffffffffffffffffffffffff1614610e31576040517f08c379a0000000000000000000000000000000000000000000000000000000008152600401610e2890611b36565b60405180910390fd5b600073ffffffffffffffffffffffffffffffffffffffff168173ffffffffffffffffffffffffffffffffffffffff161415610ea1576040517f08c379a0000000000000000000000000000000000000000000000000000000008152600401610e9890611ab6565b60405180910390fd5b8073ffffffffffffffffffffffffffffffffffffffff16600560009054906101000a900473ffffffffffffffffffffffffffffffffffffffff1673ffffffffffffffffffffffffffffffffffffffff167f8be0079c531659141344cd1fd0a4f28419497f9722a3daafe3b4186f6b6457e060405160405180910390a380600560006101000a81548173ffffffffffffffffffffffffffffffffffffffff021916908373ffffffffffffffffffffffffffffffffffffffff16021790555050565b600033905090565b600073ffffffffffffffffffffffffffffffffffffffff168373ffffffffffffffffffffffffffffffffffffffff161415610fd9576040517f08c379a0000000000000000000000000000000000000000000000000000000008152600401610fd090611b56565b60405180910390fd5b600073ffffffffffffffffffffffffffffffffffffffff168273ffffffffffffffffffffffffffffffffffffffff161415611049576040517f08c379a000000000000000000000000000000000000000000000000000000000815260040161104090611ad6565b60405180910390fd5b80600160008573ffffffffffffffffffffffffffffffffffffffff1673ffffffffffffffffffffffffffffffffffffffff16815260200190815260200160002060008473ffffffffffffffffffffffffffffffffffffffff1673ffffffffffffffffffffffffffffffffffffffff168152602001908152602001600020819055508173ffffffffffffffffffffffffffffffffffffffff168373ffffffffffffffffffffffffffffffffffffffff167f8c5be1e5ebec7d5bd14f71427d1e84f3dd0314c0f7b2291e5b200ac8c7c3b925836040516111279190611b76565b60405180910390a3505050565b600061113f57600080fd5b600061115e611159836006546112f490919063ffffffff16565b61136f565b90506111b281600760008773ffffffffffffffffffffffffffffffffffffffff1673ffffffffffffffffffffffffffffffffffffffff1681526020019081526020016000205461138c90919063ffffffff16565b600760008673ffffffffffffffffffffffffffffffffffffffff1673ffffffffffffffffffffffffffffffffffffffff1681526020019081526020016000208190555061124781600760008673ffffffffffffffffffffffffffffffffffffffff1673ffffffffffffffffffffffffffffffffffffffff168152602001908152602001600020546116fb90919063ffffffff16565b600760008573ffffffffffffffffffffffffffffffffffffffff1673ffffffffffffffffffffffffffffffffffffffff1681526020019081526020016000208190555050505050565b60008383111582906112d8576040517f08c379a00000000000000000000000000000000000000000000000000000000081526004016112cf9190611a94565b60405180910390fd5b50600083856112e79190611dd1565b9050809150509392505050565b6000808314156113075760009050611369565b600082846113159190611ce3565b90508284826113249190611cb2565b14611364576040517f08c379a000000000000000000000000000000000000000000000000000000000815260040161135b90611b16565b60405180910390fd5b809150505b92915050565b600080829050600081121561138357600080fd5b80915050919050565b600080828461139b9190611bc8565b9050600083121580156113ae5750838112155b806113c457506000831280156113c357508381125b5b6113cd57600080fd5b8091505092915050565b6000808212156113e657600080fd5b819050919050565b60008082846113fd9190611c5c565b905083811015611442576040517f08c379a000000000000000000000000000000000000000000000000000000000815260040161143990611af6565b60405180910390fd5b8091505092915050565b60008061145883610ab4565b905060008111156116a6576114b581600860008673ffffffffffffffffffffffffffffffffffffffff1673ffffffffffffffffffffffffffffffffffffffff168152602001908152602001600020546113ee90919063ffffffff16565b600860008573ffffffffffffffffffffffffffffffffffffffff1673ffffffffffffffffffffffffffffffffffffffff168152602001908152602001600020819055508273ffffffffffffffffffffffffffffffffffffffff167fee503bee2bb6a87e57bc57db795f98137327401a0e7b7ce42e37926cc1a9ca4d8260405161153e9190611b76565b60405180910390a260007f000000000000000000000000000000000000000000000000000000000000000073ffffffffffffffffffffffffffffffffffffffff1663a9059cbb85846040518363ffffffff1660e01b81526004016115a3929190611a50565b602060405180830381600087803b1580156115bd57600080fd5b505af11580156115d1573d6000803e3d6000fd5b505050506040513d601f19601f820116820180604052508101906115f59190611885565b90508061169c5761164e82600860008773ffffffffffffffffffffffffffffffffffffffff1673ffffffffffffffffffffffffffffffffffffffff168152602001908152602001600020546116b190919063ffffffff16565b600860008673ffffffffffffffffffffffffffffffffffffffff1673ffffffffffffffffffffffffffffffffffffffff168152602001908152602001600020819055506000925050506116ac565b81925050506116ac565b60009150505b919050565b60006116f383836040518060400160405280601e81526020017f536166654d6174683a207375627472616374696f6e206f766572666c6f770000815250611290565b905092915050565b600080828461170a9190611d3d565b90506000831215801561171d5750838113155b80611733575060008312801561173257508381135b5b61173c57600080fd5b8091505092915050565b60008135905061175581612130565b92915050565b60008151905061176a81612147565b92915050565b60008135905061177f8161215e565b92915050565b60006020828403121561179b5761179a611f8c565b5b60006117a984828501611746565b91505092915050565b600080604083850312156117c9576117c8611f8c565b5b60006117d785828601611746565b92505060206117e885828601611746565b9150509250929050565b60008060006060848603121561180b5761180a611f8c565b5b600061181986828701611746565b935050602061182a86828701611746565b925050604061183b86828701611770565b9150509250925092565b6000806040838503121561185c5761185b611f8c565b5b600061186a85828601611746565b925050602061187b85828601611770565b9150509250929050565b60006020828403121561189b5761189a611f8c565b5b60006118a98482850161175b565b91505092915050565b6000602082840312156118c8576118c7611f8c565b5b60006118d684828501611770565b91505092915050565b6118e881611e64565b82525050565b6118f781611e05565b82525050565b61190681611e17565b82525050565b600061191782611bac565b6119218185611bb7565b9350611931818560208601611e9a565b61193a81611f91565b840191505092915050565b6000611952602683611bb7565b915061195d82611fa2565b604082019050919050565b6000611975602283611bb7565b915061198082611ff1565b604082019050919050565b6000611998601b83611bb7565b91506119a382612040565b602082019050919050565b60006119bb602183611bb7565b91506119c682612069565b604082019050919050565b60006119de602083611bb7565b91506119e9826120b8565b602082019050919050565b6000611a01602483611bb7565b9150611a0c826120e1565b604082019050919050565b611a2081611e4d565b82525050565b611a2f81611e57565b82525050565b6000602082019050611a4a60008301846118ee565b92915050565b6000604082019050611a6560008301856118df565b611a726020830184611a17565b9392505050565b6000602082019050611a8e60008301846118fd565b92915050565b60006020820190508181036000830152611aae818461190c565b905092915050565b60006020820190508181036000830152611acf81611945565b9050919050565b60006020820190508181036000830152611aef81611968565b9050919050565b60006020820190508181036000830152611b0f8161198b565b9050919050565b60006020820190508181036000830152611b2f816119ae565b9050919050565b60006020820190508181036000830152611b4f816119d1565b9050919050565b60006020820190508181036000830152611b6f816119f4565b9050919050565b6000602082019050611b8b6000830184611a17565b92915050565b6000602082019050611ba66000830184611a26565b92915050565b600081519050919050565b600082825260208201905092915050565b6000611bd382611e23565b9150611bde83611e23565b9250817f7fffffffffffffffffffffffffffffffffffffffffffffffffffffffffffffff03831360008312151615611c1957611c18611eff565b5b817f8000000000000000000000000000000000000000000000000000000000000000038312600083121615611c5157611c50611eff565b5b828201905092915050565b6000611c6782611e4d565b9150611c7283611e4d565b9250827fffffffffffffffffffffffffffffffffffffffffffffffffffffffffffffffff03821115611ca757611ca6611eff565b5b828201905092915050565b6000611cbd82611e4d565b9150611cc883611e4d565b925082611cd857611cd7611f2e565b5b828204905092915050565b6000611cee82611e4d565b9150611cf983611e4d565b9250817fffffffffffffffffffffffffffffffffffffffffffffffffffffffffffffffff0483118215151615611d3257611d31611eff565b5b828202905092915050565b6000611d4882611e23565b9150611d5383611e23565b9250827f800000000000000000000000000000000000000000000000000000000000000001821260008412151615611d8e57611d8d611eff565b5b827f7fffffffffffffffffffffffffffffffffffffffffffffffffffffffffffffff018213600084121615611dc657611dc5611eff565b5b828203905092915050565b6000611ddc82611e4d565b9150611de783611e4d565b925082821015611dfa57611df9611eff565b5b828203905092915050565b6000611e1082611e2d565b9050919050565b60008115159050919050565b6000819050919050565b600073ffffffffffffffffffffffffffffffffffffffff82169050919050565b6000819050919050565b600060ff82169050919050565b6000611e6f82611e76565b9050919050565b6000611e8182611e88565b9050919050565b6000611e9382611e2d565b9050919050565b60005b83811015611eb8578082015181840152602081019050611e9d565b83811115611ec7576000848401525b50505050565b60006002820490506001821680611ee557607f821691505b60208210811415611ef957611ef8611f5d565b5b50919050565b7f4e487b7100000000000000000000000000000000000000000000000000000000600052601160045260246000fd5b7f4e487b7100000000000000000000000000000000000000000000000000000000600052601260045260246000fd5b7f4e487b7100000000000000000000000000000000000000000000000000000000600052602260045260246000fd5b600080fd5b6000601f19601f8301169050919050565b7f4f776e61626c653a206e6577206f776e657220697320746865207a65726f206160008201527f6464726573730000000000000000000000000000000000000000000000000000602082015250565b7f45524332303a20617070726f766520746f20746865207a65726f20616464726560008201527f7373000000000000000000000000000000000000000000000000000000000000602082015250565b7f536166654d6174683a206164646974696f6e206f766572666c6f770000000000600082015250565b7f536166654d6174683a206d756c7469706c69636174696f6e206f766572666c6f60008201527f7700000000000000000000000000000000000000000000000000000000000000602082015250565b7f4f776e61626c653a2063616c6c6572206973206e6f7420746865206f776e6572600082015250565b7f45524332303a20617070726f76652066726f6d20746865207a65726f2061646460008201527f7265737300000000000000000000000000000000000000000000000000000000602082015250565b61213981611e05565b811461214457600080fd5b50565b61215081611e17565b811461215b57600080fd5b50565b61216781611e4d565b811461217257600080fd5b5056fe45524332303a207472616e7366657220616d6f756e74206578636565647320616c6c6f77616e636545524332303a2064656372656173656420616c6c6f77616e63652062656c6f77207a65726fa2646970667358221220bdd2db8b32a7985dd0a0b3103d922c00584569b7a4ae4a56cab7b93bfc5a5f4264736f6c63430008070033",
  "linkReferences": {},
  "deployedLinkReferences": {}
}