{
  "_format": "hh-sol-artifact-1",
  "contractName": "PSHIBDividendTracker",
  "sourceName": "contracts/Test.sol",
  "abi": [
    {
      "inputs": [],
      "stateMutability": "nonpayable",
      "type": "constructor"
    },
    {
      "anonymous": false,
      "inputs": [
        {
          "indexed": true,
          "internalType": "address",
          "name": "owner",
          "type": "address"
        },
        {
          "indexed": true,
          "internalType": "address",
          "name": "spender",
          "type": "address"
        },
        {
          "indexed": false,
          "internalType": "uint256",
          "name": "value",
          "type": "uint256"
        }
      ],
      "name": "Approval",
      "type": "event"
    },
    {
      "anonymous": false,
      "inputs": [
        {
          "indexed": true,
          "internalType": "address",
          "name": "account",
          "type": "address"
        },
        {
          "indexed": false,
          "internalType": "uint256",
          "name": "amount",
          "type": "uint256"
        },
        {
          "indexed": true,
          "internalType": "bool",
          "name": "automatic",
          "type": "bool"
        }
      ],
      "name": "Claim",
      "type": "event"
    },
    {
      "anonymous": false,
      "inputs": [
        {
          "indexed": true,
          "internalType": "uint256",
          "name": "newValue",
          "type": "uint256"
        },
        {
          "indexed": true,
          "internalType": "uint256",
          "name": "oldValue",
          "type": "uint256"
        }
      ],
      "name": "ClaimWaitUpdated",
      "type": "event"
    },
    {
      "anonymous": false,
      "inputs": [
        {
          "indexed": true,
          "internalType": "address",
          "name": "to",
          "type": "address"
        },
        {
          "indexed": false,
          "internalType": "uint256",
          "name": "weiAmount",
          "type": "uint256"
        }
      ],
      "name": "DividendWithdrawn",
      "type": "event"
    },
    {
      "anonymous": false,
      "inputs": [
        {
          "indexed": true,
          "internalType": "address",
          "name": "from",
          "type": "address"
        },
        {
          "indexed": false,
          "internalType": "uint256",
          "name": "weiAmount",
          "type": "uint256"
        }
      ],
      "name": "DividendsDistributed",
      "type": "event"
    },
    {
      "anonymous": false,
      "inputs": [
        {
          "indexed": true,
          "internalType": "address",
          "name": "account",
          "type": "address"
        }
      ],
      "name": "ExcludeFromDividends",
      "type": "event"
    },
    {
      "anonymous": false,
      "inputs": [
        {
          "indexed": true,
          "internalType": "address",
          "name": "previousOwner",
          "type": "address"
        },
        {
          "indexed": true,
          "internalType": "address",
          "name": "newOwner",
          "type": "address"
        }
      ],
      "name": "OwnershipTransferred",
      "type": "event"
    },
    {
      "anonymous": false,
      "inputs": [
        {
          "indexed": true,
          "internalType": "address",
          "name": "from",
          "type": "address"
        },
        {
          "indexed": true,
          "internalType": "address",
          "name": "to",
          "type": "address"
        },
        {
          "indexed": false,
          "internalType": "uint256",
          "name": "value",
          "type": "uint256"
        }
      ],
      "name": "Transfer",
      "type": "event"
    },
    {
      "inputs": [],
      "name": "SHIB",
      "outputs": [
        {
          "internalType": "address",
          "name": "",
          "type": "address"
        }
      ],
      "stateMutability": "view",
      "type": "function"
    },
    {
      "inputs": [
        {
          "internalType": "address",
          "name": "_owner",
          "type": "address"
        }
      ],
      "name": "accumulativeDividendOf",
      "outputs": [
        {
          "internalType": "uint256",
          "name": "",
          "type": "uint256"
        }
      ],
      "stateMutability": "view",
      "type": "function"
    },
    {
      "inputs": [
        {
          "internalType": "address",
          "name": "owner",
          "type": "address"
        },
        {
          "internalType": "address",
          "name": "spender",
          "type": "address"
        }
      ],
      "name": "allowance",
      "outputs": [
        {
          "internalType": "uint256",
          "name": "",
          "type": "uint256"
        }
      ],
      "stateMutability": "view",
      "type": "function"
    },
    {
      "inputs": [
        {
          "internalType": "address",
          "name": "spender",
          "type": "address"
        },
        {
          "internalType": "uint256",
          "name": "amount",
          "type": "uint256"
        }
      ],
      "name": "approve",
      "outputs": [
        {
          "internalType": "bool",
          "name": "",
          "type": "bool"
        }
      ],
      "stateMutability": "nonpayable",
      "type": "function"
    },
    {
      "inputs": [
        {
          "internalType": "address",
          "name": "account",
          "type": "address"
        }
      ],
      "name": "balanceOf",
      "outputs": [
        {
          "internalType": "uint256",
          "name": "",
          "type": "uint256"
        }
      ],
      "stateMutability": "view",
      "type": "function"
    },
    {
      "inputs": [],
      "name": "claimWait",
      "outputs": [
        {
          "internalType": "uint256",
          "name": "",
          "type": "uint256"
        }
      ],
      "stateMutability": "view",
      "type": "function"
    },
    {
      "inputs": [],
      "name": "decimals",
      "outputs": [
        {
          "internalType": "uint8",
          "name": "",
          "type": "uint8"
        }
      ],
      "stateMutability": "view",
      "type": "function"
    },
    {
      "inputs": [
        {
          "internalType": "address",
          "name": "spender",
          "type": "address"
        },
        {
          "internalType": "uint256",
          "name": "subtractedValue",
          "type": "uint256"
        }
      ],
      "name": "decreaseAllowance",
      "outputs": [
        {
          "internalType": "bool",
          "name": "",
          "type": "bool"
        }
      ],
      "stateMutability": "nonpayable",
      "type": "function"
    },
    {
      "inputs": [
        {
          "internalType": "uint256",
          "name": "amount",
          "type": "uint256"
        }
      ],
      "name": "distributeSHIBDividends",
      "outputs": [],
      "stateMutability": "nonpayable",
      "type": "function"
    },
    {
      "inputs": [
        {
          "internalType": "address",
          "name": "_owner",
          "type": "address"
        }
      ],
      "name": "dividendOf",
      "outputs": [
        {
          "internalType": "uint256",
          "name": "",
          "type": "uint256"
        }
      ],
      "stateMutability": "view",
      "type": "function"
    },
    {
      "inputs": [
        {
          "internalType": "address",
          "name": "account",
          "type": "address"
        }
      ],
      "name": "excludeFromDividends",
      "outputs": [],
      "stateMutability": "nonpayable",
      "type": "function"
    },
    {
      "inputs": [
        {
          "internalType": "address",
          "name": "",
          "type": "address"
        }
      ],
      "name": "excludedFromDividends",
      "outputs": [
        {
          "internalType": "bool",
          "name": "",
          "type": "bool"
        }
      ],
      "stateMutability": "view",
      "type": "function"
    },
    {
      "inputs": [
        {
          "internalType": "address",
          "name": "_account",
          "type": "address"
        }
      ],
      "name": "getAccount",
      "outputs": [
        {
          "internalType": "address",
          "name": "account",
          "type": "address"
        },
        {
          "internalType": "int256",
          "name": "index",
          "type": "int256"
        },
        {
          "internalType": "int256",
          "name": "iterationsUntilProcessed",
          "type": "int256"
        },
        {
          "internalType": "uint256",
          "name": "withdrawableDividends",
          "type": "uint256"
        },
        {
          "internalType": "uint256",
          "name": "totalDividends",
          "type": "uint256"
        },
        {
          "internalType": "uint256",
          "name": "lastClaimTime",
          "type": "uint256"
        },
        {
          "internalType": "uint256",
          "name": "nextClaimTime",
          "type": "uint256"
        },
        {
          "internalType": "uint256",
          "name": "secondsUntilAutoClaimAvailable",
          "type": "uint256"
        }
      ],
      "stateMutability": "view",
      "type": "function"
    },
    {
      "inputs": [
        {
          "internalType": "uint256",
          "name": "index",
          "type": "uint256"
        }
      ],
      "name": "getAccountAtIndex",
      "outputs": [
        {
          "internalType": "address",
          "name": "",
          "type": "address"
        },
        {
          "internalType": "int256",
          "name": "",
          "type": "int256"
        },
        {
          "internalType": "int256",
          "name": "",
          "type": "int256"
        },
        {
          "internalType": "uint256",
          "name": "",
          "type": "uint256"
        },
        {
          "internalType": "uint256",
          "name": "",
          "type": "uint256"
        },
        {
          "internalType": "uint256",
          "name": "",
          "type": "uint256"
        },
        {
          "internalType": "uint256",
          "name": "",
          "type": "uint256"
        },
        {
          "internalType": "uint256",
          "name": "",
          "type": "uint256"
        }
      ],
      "stateMutability": "view",
      "type": "function"
    },
    {
      "inputs": [],
      "name": "getLastProcessedIndex",
      "outputs": [
        {
          "internalType": "uint256",
          "name": "",
          "type": "uint256"
        }
      ],
      "stateMutability": "view",
      "type": "function"
    },
    {
      "inputs": [],
      "name": "getNumberOfTokenHolders",
      "outputs": [
        {
          "internalType": "uint256",
          "name": "",
          "type": "uint256"
        }
      ],
      "stateMutability": "view",
      "type": "function"
    },
    {
      "inputs": [
        {
          "internalType": "address",
          "name": "spender",
          "type": "address"
        },
        {
          "internalType": "uint256",
          "name": "addedValue",
          "type": "uint256"
        }
      ],
      "name": "increaseAllowance",
      "outputs": [
        {
          "internalType": "bool",
          "name": "",
          "type": "bool"
        }
      ],
      "stateMutability": "nonpayable",
      "type": "function"
    },
    {
      "inputs": [
        {
          "internalType": "address",
          "name": "",
          "type": "address"
        }
      ],
      "name": "lastClaimTimes",
      "outputs": [
        {
          "internalType": "uint256",
          "name": "",
          "type": "uint256"
        }
      ],
      "stateMutability": "view",
      "type": "function"
    },
    {
      "inputs": [],
      "name": "lastProcessedIndex",
      "outputs": [
        {
          "internalType": "uint256",
          "name": "",
          "type": "uint256"
        }
      ],
      "stateMutability": "view",
      "type": "function"
    },
    {
      "inputs": [],
      "name": "minimumTokenBalanceForDividends",
      "outputs": [
        {
          "internalType": "uint256",
          "name": "",
          "type": "uint256"
        }
      ],
      "stateMutability": "view",
      "type": "function"
    },
    {
      "inputs": [],
      "name": "name",
      "outputs": [
        {
          "internalType": "string",
          "name": "",
          "type": "string"
        }
      ],
      "stateMutability": "view",
      "type": "function"
    },
    {
      "inputs": [],
      "name": "owner",
      "outputs": [
        {
          "internalType": "address",
          "name": "",
          "type": "address"
        }
      ],
      "stateMutability": "view",
      "type": "function"
    },
    {
      "inputs": [
        {
          "internalType": "uint256",
          "name": "gas",
          "type": "uint256"
        }
      ],
      "name": "process",
      "outputs": [
        {
          "internalType": "uint256",
          "name": "",
          "type": "uint256"
        },
        {
          "internalType": "uint256",
          "name": "",
          "type": "uint256"
        },
        {
          "internalType": "uint256",
          "name": "",
          "type": "uint256"
        }
      ],
      "stateMutability": "nonpayable",
      "type": "function"
    },
    {
      "inputs": [
        {
          "internalType": "address payable",
          "name": "account",
          "type": "address"
        },
        {
          "internalType": "bool",
          "name": "automatic",
          "type": "bool"
        }
      ],
      "name": "processAccount",
      "outputs": [
        {
          "internalType": "bool",
          "name": "",
          "type": "bool"
        }
      ],
      "stateMutability": "nonpayable",
      "type": "function"
    },
    {
      "inputs": [],
      "name": "renounceOwnership",
      "outputs": [],
      "stateMutability": "nonpayable",
      "type": "function"
    },
    {
      "inputs": [
        {
          "internalType": "address payable",
          "name": "account",
          "type": "address"
        },
        {
          "internalType": "uint256",
          "name": "newBalance",
          "type": "uint256"
        }
      ],
      "name": "setBalance",
      "outputs": [],
      "stateMutability": "nonpayable",
      "type": "function"
    },
    {
      "inputs": [],
      "name": "symbol",
      "outputs": [
        {
          "internalType": "string",
          "name": "",
          "type": "string"
        }
      ],
      "stateMutability": "view",
      "type": "function"
    },
    {
      "inputs": [],
      "name": "totalDividendsDistributed",
      "outputs": [
        {
          "internalType": "uint256",
          "name": "",
          "type": "uint256"
        }
      ],
      "stateMutability": "view",
      "type": "function"
    },
    {
      "inputs": [],
      "name": "totalSupply",
      "outputs": [
        {
          "internalType": "uint256",
          "name": "",
          "type": "uint256"
        }
      ],
      "stateMutability": "view",
      "type": "function"
    },
    {
      "inputs": [
        {
          "internalType": "address",
          "name": "recipient",
          "type": "address"
        },
        {
          "internalType": "uint256",
          "name": "amount",
          "type": "uint256"
        }
      ],
      "name": "transfer",
      "outputs": [
        {
          "internalType": "bool",
          "name": "",
          "type": "bool"
        }
      ],
      "stateMutability": "nonpayable",
      "type": "function"
    },
    {
      "inputs": [
        {
          "internalType": "address",
          "name": "sender",
          "type": "address"
        },
        {
          "internalType": "address",
          "name": "recipient",
          "type": "address"
        },
        {
          "internalType": "uint256",
          "name": "amount",
          "type": "uint256"
        }
      ],
      "name": "transferFrom",
      "outputs": [
        {
          "internalType": "bool",
          "name": "",
          "type": "bool"
        }
      ],
      "stateMutability": "nonpayable",
      "type": "function"
    },
    {
      "inputs": [
        {
          "internalType": "address",
          "name": "newOwner",
          "type": "address"
        }
      ],
      "name": "transferOwnership",
      "outputs": [],
      "stateMutability": "nonpayable",
      "type": "function"
    },
    {
      "inputs": [
        {
          "internalType": "uint256",
          "name": "newClaimWait",
          "type": "uint256"
        }
      ],
      "name": "updateClaimWait",
      "outputs": [],
      "stateMutability": "nonpayable",
      "type": "function"
    },
    {
      "inputs": [],
      "name": "withdrawDividend",
      "outputs": [],
      "stateMutability": "pure",
      "type": "function"
    },
    {
      "inputs": [
        {
          "internalType": "address",
          "name": "_owner",
          "type": "address"
        }
      ],
      "name": "withdrawableDividendOf",
      "outputs": [
        {
          "internalType": "uint256",
          "name": "",
          "type": "uint256"
        }
      ],
      "stateMutability": "view",
      "type": "function"
    },
    {
      "inputs": [
        {
          "internalType": "address",
          "name": "_owner",
          "type": "address"
        }
      ],
      "name": "withdrawnDividendOf",
      "outputs": [
        {
          "internalType": "uint256",
          "name": "",
          "type": "uint256"
        }
      ],
      "stateMutability": "view",
      "type": "function"
    }
  ],
  "bytecode": "0x60c0604052732859e4544c4bb03966803b044a93563bd2d0dd4d73ffffffffffffffffffffffffffffffffffffffff1660809073ffffffffffffffffffffffffffffffffffffffff1660601b8152503480156200005b57600080fd5b506040518060400160405280601581526020017f50534849425f4469766964656e5f547261636b657200000000000000000000008152506040518060400160405280601681526020017f50534849425f4469766964656e645f547261636b65720000000000000000000081525081818160039080519060200190620000e2929190620001dd565b508060049080519060200190620000fb929190620001dd565b505050600062000110620001d560201b60201c565b905080600560006101000a81548173ffffffffffffffffffffffffffffffffffffffff021916908373ffffffffffffffffffffffffffffffffffffffff1602179055508073ffffffffffffffffffffffffffffffffffffffff16600073ffffffffffffffffffffffffffffffffffffffff167f8be0079c531659141344cd1fd0a4f28419497f9722a3daafe3b4186f6b6457e060405160405180910390a3505050610e106011819055506c193e5939a08ce9dbd48000000060a08181525050620002f2565b600033905090565b828054620001eb906200028d565b90600052602060002090601f0160209004810192826200020f57600085556200025b565b82601f106200022a57805160ff19168380011785556200025b565b828001600101855582156200025b579182015b828111156200025a5782518255916020019190600101906200023d565b5b5090506200026a91906200026e565b5090565b5b80821115620002895760008160009055506001016200026f565b5090565b60006002820490506001821680620002a657607f821691505b60208210811415620002bd57620002bc620002c3565b5b50919050565b7f4e487b7100000000000000000000000000000000000000000000000000000000600052602260045260246000fd5b60805160601c60a051613db062000329600039600081816113ef01526115ac01526000818161149a015261248d0152613db06000f3fe608060405234801561001057600080fd5b506004361061021c5760003560e01c80638da5cb5b11610125578063dd62ed3e116100ad578063e98030c71161007c578063e98030c7146106ac578063ec4be22d146106c8578063f2fde38b146106e4578063fbcbc0f114610700578063ffb2c479146107375761021c565b8063dd62ed3e14610624578063e24b85e714610654578063e30443bc14610672578063e7841ec01461068e5761021c565b8063a8b9d240116100f4578063a8b9d24014610546578063a9059cbb14610576578063aafd847a146105a6578063bc4c4b37146105d6578063be10b614146106065761021c565b80638da5cb5b146104aa57806391b89fba146104c857806395d89b41146104f8578063a457c2d7146105165761021c565b806331e79db0116101a85780636a474002116101775780636a4740021461042a5780636f2789ec1461043457806370a0823114610452578063715018a61461048257806385a6b3ae1461048c5761021c565b806331e79db01461037757806339509351146103935780634e7b827f146103c35780635183d6fd146103f35761021c565b8063226cfa3d116101ef578063226cfa3d146102ab57806323b872dd146102db57806327ce01471461030b5780633009a6091461033b578063313ce567146103595761021c565b806306fdde0314610221578063095ea7b31461023f57806309bbedde1461026f57806318160ddd1461028d575b600080fd5b610229610769565b6040516102369190613188565b60405180910390f35b61025960048036038101906102549190612d4c565b6107fb565b604051610266919061316d565b60405180910390f35b610277610819565b60405161028491906133f7565b60405180910390f35b610295610829565b6040516102a291906133f7565b60405180910390f35b6102c560048036038101906102c09190612bdf565b610833565b6040516102d291906133f7565b60405180910390f35b6102f560048036038101906102f09190612cf9565b61084b565b604051610302919061316d565b60405180910390f35b61032560048036038101906103209190612bdf565b610924565b60405161033291906133f7565b60405180910390f35b6103436109c7565b60405161035091906133f7565b60405180910390f35b6103616109cd565b60405161036e9190613449565b60405180910390f35b610391600480360381019061038c9190612bdf565b6109d6565b005b6103ad60048036038101906103a89190612d4c565b610bd9565b6040516103ba919061316d565b60405180910390f35b6103dd60048036038101906103d89190612bdf565b610c8c565b6040516103ea919061316d565b60405180910390f35b61040d60048036038101906104089190612de6565b610cac565b6040516104219897969594939291906130ef565b60405180910390f35b610432610e3f565b005b61043c610e82565b60405161044991906133f7565b60405180910390f35b61046c60048036038101906104679190612bdf565b610e88565b60405161047991906133f7565b60405180910390f35b61048a610ed0565b005b610494611028565b6040516104a191906133f7565b60405180910390f35b6104b261102e565b6040516104bf91906130ab565b60405180910390f35b6104e260048036038101906104dd9190612bdf565b611058565b6040516104ef91906133f7565b60405180910390f35b61050061106a565b60405161050d9190613188565b60405180910390f35b610530600480360381019061052b9190612d4c565b6110fc565b60405161053d919061316d565b60405180910390f35b610560600480360381019061055b9190612bdf565b6111c9565b60405161056d91906133f7565b60405180910390f35b610590600480360381019061058b9190612d4c565b61122c565b60405161059d919061316d565b60405180910390f35b6105c060048036038101906105bb9190612bdf565b61124a565b6040516105cd91906133f7565b60405180910390f35b6105f060048036038101906105eb9190612c39565b611293565b6040516105fd919061316d565b60405180910390f35b61060e6113ed565b60405161061b91906133f7565b60405180910390f35b61063e60048036038101906106399190612cb9565b611411565b60405161064b91906133f7565b60405180910390f35b61065c611498565b60405161066991906130ab565b60405180910390f35b61068c60048036038101906106879190612c79565b6114bc565b005b6106966116d7565b6040516106a391906133f7565b60405180910390f35b6106c660048036038101906106c19190612de6565b6116e1565b005b6106e260048036038101906106dd9190612de6565b61184b565b005b6106fe60048036038101906106f99190612bdf565b6119bc565b005b61071a60048036038101906107159190612bdf565b611b83565b60405161072e9897969594939291906130ef565b60405180910390f35b610751600480360381019061074c9190612de6565b611d71565b60405161076093929190613412565b60405180910390f35b60606003805461077890613797565b80601f01602080910402602001604051908101604052809291908181526020018280546107a490613797565b80156107f15780601f106107c6576101008083540402835291602001916107f1565b820191906000526020600020905b8154815290600101906020018083116107d457829003601f168201915b5050505050905090565b600061080f610808611f03565b8484611f0b565b6001905092915050565b6000600a60000180549050905090565b6000600254905090565b60106020528060005260406000206000915090505481565b60006108588484846120d6565b61091984610864611f03565b61091485604051806060016040528060288152602001613d2e60289139600160008b73ffffffffffffffffffffffffffffffffffffffff1673ffffffffffffffffffffffffffffffffffffffff16815260200190815260200160002060006108ca611f03565b73ffffffffffffffffffffffffffffffffffffffff1673ffffffffffffffffffffffffffffffffffffffff1681526020019081526020016000205461211c9092919063ffffffff16565b611f0b565b600190509392505050565b60007001000000000000000000000000000000006109b66109b1600760008673ffffffffffffffffffffffffffffffffffffffff1673ffffffffffffffffffffffffffffffffffffffff168152602001908152602001600020546109a361099e61098d88610e88565b60065461218090919063ffffffff16565b6121fb565b61221890919063ffffffff16565b612263565b6109c0919061356a565b9050919050565b600e5481565b60006012905090565b6109de611f03565b73ffffffffffffffffffffffffffffffffffffffff16600560009054906101000a900473ffffffffffffffffffffffffffffffffffffffff1673ffffffffffffffffffffffffffffffffffffffff1614610a6d576040517f08c379a0000000000000000000000000000000000000000000000000000000008152600401610a649061328a565b60405180910390fd5b600f60008273ffffffffffffffffffffffffffffffffffffffff1673ffffffffffffffffffffffffffffffffffffffff16815260200190815260200160002060009054906101000a900460ff1615610ac457600080fd5b6001600f60008373ffffffffffffffffffffffffffffffffffffffff1673ffffffffffffffffffffffffffffffffffffffff16815260200190815260200160002060006101000a81548160ff021916908315150217905550610b2781600061227a565b600a73__$bec2f33bc8cb9dcbb654427b9d41ecdae6$__634c60db9c9091836040518363ffffffff1660e01b8152600401610b63929190613345565b60006040518083038186803b158015610b7b57600080fd5b505af4158015610b8f573d6000803e3d6000fd5b505050508073ffffffffffffffffffffffffffffffffffffffff167fa878b31040b2e6d0a9a3d3361209db3908ba62014b0dca52adbaee451d128b2560405160405180910390a250565b6000610c82610be6611f03565b84610c7d8560016000610bf7611f03565b73ffffffffffffffffffffffffffffffffffffffff1673ffffffffffffffffffffffffffffffffffffffff16815260200190815260200160002060008973ffffffffffffffffffffffffffffffffffffffff1673ffffffffffffffffffffffffffffffffffffffff168152602001908152602001600020546122e790919063ffffffff16565b611f0b565b6001905092915050565b600f6020528060005260406000206000915054906101000a900460ff1681565b600080600080600080600080600a73__$bec2f33bc8cb9dcbb654427b9d41ecdae6$__63deb3d89690916040518263ffffffff1660e01b8152600401610cf2919061332a565b60206040518083038186803b158015610d0a57600080fd5b505af4158015610d1e573d6000803e3d6000fd5b505050506040513d601f19601f82011682018060405250810190610d429190612e13565b8910610d895760007fffffffffffffffffffffffffffffffffffffffffffffffffffffffffffffffff80600080600080600097509750975097509750975097509750610e34565b6000600a73__$bec2f33bc8cb9dcbb654427b9d41ecdae6$__63d1aa9e7e90918c6040518363ffffffff1660e01b8152600401610dc79291906133ce565b60206040518083038186803b158015610ddf57600080fd5b505af4158015610df3573d6000803e3d6000fd5b505050506040513d601f19601f82011682018060405250810190610e179190612c0c565b9050610e2281611b83565b98509850985098509850985098509850505b919395975091939597565b6000610e80576040517f08c379a0000000000000000000000000000000000000000000000000000000008152600401610e779061324a565b60405180910390fd5b565b60115481565b60008060008373ffffffffffffffffffffffffffffffffffffffff1673ffffffffffffffffffffffffffffffffffffffff168152602001908152602001600020549050919050565b610ed8611f03565b73ffffffffffffffffffffffffffffffffffffffff16600560009054906101000a900473ffffffffffffffffffffffffffffffffffffffff1673ffffffffffffffffffffffffffffffffffffffff1614610f67576040517f08c379a0000000000000000000000000000000000000000000000000000000008152600401610f5e9061328a565b60405180910390fd5b600073ffffffffffffffffffffffffffffffffffffffff16600560009054906101000a900473ffffffffffffffffffffffffffffffffffffffff1673ffffffffffffffffffffffffffffffffffffffff167f8be0079c531659141344cd1fd0a4f28419497f9722a3daafe3b4186f6b6457e060405160405180910390a36000600560006101000a81548173ffffffffffffffffffffffffffffffffffffffff021916908373ffffffffffffffffffffffffffffffffffffffff160217905550565b60095481565b6000600560009054906101000a900473ffffffffffffffffffffffffffffffffffffffff16905090565b6000611063826111c9565b9050919050565b60606004805461107990613797565b80601f01602080910402602001604051908101604052809291908181526020018280546110a590613797565b80156110f25780601f106110c7576101008083540402835291602001916110f2565b820191906000526020600020905b8154815290600101906020018083116110d557829003601f168201915b5050505050905090565b60006111bf611109611f03565b846111ba85604051806060016040528060258152602001613d566025913960016000611133611f03565b73ffffffffffffffffffffffffffffffffffffffff1673ffffffffffffffffffffffffffffffffffffffff16815260200190815260200160002060008a73ffffffffffffffffffffffffffffffffffffffff1673ffffffffffffffffffffffffffffffffffffffff1681526020019081526020016000205461211c9092919063ffffffff16565b611f0b565b6001905092915050565b6000611225600860008473ffffffffffffffffffffffffffffffffffffffff1673ffffffffffffffffffffffffffffffffffffffff1681526020019081526020016000205461121784610924565b61234590919063ffffffff16565b9050919050565b6000611240611239611f03565b84846120d6565b6001905092915050565b6000600860008373ffffffffffffffffffffffffffffffffffffffff1673ffffffffffffffffffffffffffffffffffffffff168152602001908152602001600020549050919050565b600061129d611f03565b73ffffffffffffffffffffffffffffffffffffffff16600560009054906101000a900473ffffffffffffffffffffffffffffffffffffffff1673ffffffffffffffffffffffffffffffffffffffff161461132c576040517f08c379a00000000000000000000000000000000000000000000000000000000081526004016113239061328a565b60405180910390fd5b60006113378461238f565b905060008111156113e15742601060008673ffffffffffffffffffffffffffffffffffffffff1673ffffffffffffffffffffffffffffffffffffffff168152602001908152602001600020819055508215158473ffffffffffffffffffffffffffffffffffffffff167fa2c38e2d2fb7e3e1912d937fd1ca11ed6d51864dee4cfa7a7bf02becd7acf092836040516113cf91906133f7565b60405180910390a360019150506113e7565b60009150505b92915050565b7f000000000000000000000000000000000000000000000000000000000000000081565b6000600160008473ffffffffffffffffffffffffffffffffffffffff1673ffffffffffffffffffffffffffffffffffffffff16815260200190815260200160002060008373ffffffffffffffffffffffffffffffffffffffff1673ffffffffffffffffffffffffffffffffffffffff16815260200190815260200160002054905092915050565b7f000000000000000000000000000000000000000000000000000000000000000081565b6114c4611f03565b73ffffffffffffffffffffffffffffffffffffffff16600560009054906101000a900473ffffffffffffffffffffffffffffffffffffffff1673ffffffffffffffffffffffffffffffffffffffff1614611553576040517f08c379a000000000000000000000000000000000000000000000000000000000815260040161154a9061328a565b60405180910390fd5b600f60008373ffffffffffffffffffffffffffffffffffffffff1673ffffffffffffffffffffffffffffffffffffffff16815260200190815260200160002060009054906101000a900460ff16156115aa576116d3565b7f0000000000000000000000000000000000000000000000000000000000000000811061164e576115db828261227a565b600a73__$bec2f33bc8cb9dcbb654427b9d41ecdae6$__63bc2b405c909184846040518463ffffffff1660e01b815260040161161993929190613397565b60006040518083038186803b15801561163157600080fd5b505af4158015611645573d6000803e3d6000fd5b505050506116c6565b61165982600061227a565b600a73__$bec2f33bc8cb9dcbb654427b9d41ecdae6$__634c60db9c9091846040518363ffffffff1660e01b815260040161169592919061336e565b60006040518083038186803b1580156116ad57600080fd5b505af41580156116c1573d6000803e3d6000fd5b505050505b6116d1826001611293565b505b5050565b6000600e54905090565b6116e9611f03565b73ffffffffffffffffffffffffffffffffffffffff16600560009054906101000a900473ffffffffffffffffffffffffffffffffffffffff1673ffffffffffffffffffffffffffffffffffffffff1614611778576040517f08c379a000000000000000000000000000000000000000000000000000000000815260040161176f9061328a565b60405180910390fd5b610e10811015801561178d5750620151808111155b6117cc576040517f08c379a00000000000000000000000000000000000000000000000000000000081526004016117c3906131aa565b60405180910390fd5b601154811415611811576040517f08c379a00000000000000000000000000000000000000000000000000000000081526004016118089061322a565b60405180910390fd5b601154817f474ea64804364a1e29a4487ddb63c3342a2dd826ccd8acf48825e680a0e6f20f60405160405180910390a38060118190555050565b611853611f03565b73ffffffffffffffffffffffffffffffffffffffff16600560009054906101000a900473ffffffffffffffffffffffffffffffffffffffff1673ffffffffffffffffffffffffffffffffffffffff16146118e2576040517f08c379a00000000000000000000000000000000000000000000000000000000081526004016118d99061328a565b60405180910390fd5b60006118ec610829565b116118f657600080fd5b60008111156119b95761194961190a610829565b61192e7001000000000000000000000000000000008461218090919063ffffffff16565b611938919061356a565b6006546122e790919063ffffffff16565b6006819055503373ffffffffffffffffffffffffffffffffffffffff167fa493a9229478c3fcd73f66d2cdeb7f94fd0f341da924d1054236d784541165118260405161199591906133f7565b60405180910390a26119b2816009546122e790919063ffffffff16565b6009819055505b50565b6119c4611f03565b73ffffffffffffffffffffffffffffffffffffffff16600560009054906101000a900473ffffffffffffffffffffffffffffffffffffffff1673ffffffffffffffffffffffffffffffffffffffff1614611a53576040517f08c379a0000000000000000000000000000000000000000000000000000000008152600401611a4a9061328a565b60405180910390fd5b600073ffffffffffffffffffffffffffffffffffffffff168173ffffffffffffffffffffffffffffffffffffffff161415611ac3576040517f08c379a0000000000000000000000000000000000000000000000000000000008152600401611aba906131ca565b60405180910390fd5b8073ffffffffffffffffffffffffffffffffffffffff16600560009054906101000a900473ffffffffffffffffffffffffffffffffffffffff1673ffffffffffffffffffffffffffffffffffffffff167f8be0079c531659141344cd1fd0a4f28419497f9722a3daafe3b4186f6b6457e060405160405180910390a380600560006101000a81548173ffffffffffffffffffffffffffffffffffffffff021916908373ffffffffffffffffffffffffffffffffffffffff16021790555050565b600080600080600080600080889750600a73__$bec2f33bc8cb9dcbb654427b9d41ecdae6$__6317e142d190918a6040518363ffffffff1660e01b8152600401611bce929190613345565b60206040518083038186803b158015611be657600080fd5b505af4158015611bfa573d6000803e3d6000fd5b505050506040513d601f19601f82011682018060405250810190611c1e9190612db9565b96507fffffffffffffffffffffffffffffffffffffffffffffffffffffffffffffffff955060008712611cc357600e54871115611c7157611c6a600e54886125f490919063ffffffff16565b9550611cc2565b6000600e54600a6000018054905011611c8b576000611ca9565b611ca8600e54600a6000018054905061234590919063ffffffff16565b5b9050611cbe818961221890919063ffffffff16565b9650505b5b611ccc886111c9565b9450611cd788610924565b9350601060008973ffffffffffffffffffffffffffffffffffffffff1673ffffffffffffffffffffffffffffffffffffffff16815260200190815260200160002054925060008311611d2a576000611d40565b611d3f601154846122e790919063ffffffff16565b5b9150428211611d50576000611d64565b611d63428361234590919063ffffffff16565b5b9050919395975091939597565b600080600080600a6000018054905090506000811415611d9d57600080600e5493509350935050611efc565b6000600e5490506000805a90506000805b8984108015611dbc57508582105b15611ee3578480611dcc906137c9565b955050600a600001805490508510611de357600094505b6000600a6000018681548110611dfc57611dfb61389f565b5b9060005260206000200160009054906101000a900473ffffffffffffffffffffffffffffffffffffffff169050611e71601060008373ffffffffffffffffffffffffffffffffffffffff1673ffffffffffffffffffffffffffffffffffffffff1681526020019081526020016000205461263f565b15611e9657611e81816001611293565b15611e95578180611e91906137c9565b9250505b5b8280611ea1906137c9565b93505060005a905080851115611ed957611ed6611ec7828761234590919063ffffffff16565b876122e790919063ffffffff16565b95505b8094505050611dae565b84600e819055508181600e549850985098505050505050505b9193909250565b600033905090565b600073ffffffffffffffffffffffffffffffffffffffff168373ffffffffffffffffffffffffffffffffffffffff161415611f7b576040517f08c379a0000000000000000000000000000000000000000000000000000000008152600401611f72906132ca565b60405180910390fd5b600073ffffffffffffffffffffffffffffffffffffffff168273ffffffffffffffffffffffffffffffffffffffff161415611feb576040517f08c379a0000000000000000000000000000000000000000000000000000000008152600401611fe2906131ea565b60405180910390fd5b80600160008573ffffffffffffffffffffffffffffffffffffffff1673ffffffffffffffffffffffffffffffffffffffff16815260200190815260200160002060008473ffffffffffffffffffffffffffffffffffffffff1673ffffffffffffffffffffffffffffffffffffffff168152602001908152602001600020819055508173ffffffffffffffffffffffffffffffffffffffff168373ffffffffffffffffffffffffffffffffffffffff167f8c5be1e5ebec7d5bd14f71427d1e84f3dd0314c0f7b2291e5b200ac8c7c3b925836040516120c991906133f7565b60405180910390a3505050565b6000612117576040517f08c379a000000000000000000000000000000000000000000000000000000000815260040161210e906132ea565b60405180910390fd5b505050565b6000838311158290612164576040517f08c379a000000000000000000000000000000000000000000000000000000000815260040161215b9190613188565b60405180910390fd5b50600083856121739190613689565b9050809150509392505050565b60008083141561219357600090506121f5565b600082846121a1919061359b565b90508284826121b0919061356a565b146121f0576040517f08c379a00000000000000000000000000000000000000000000000000000000081526004016121e79061326a565b60405180910390fd5b809150505b92915050565b600080829050600081121561220f57600080fd5b80915050919050565b60008082846122279190613480565b90506000831215801561223a5750838112155b80612250575060008312801561224f57508381125b5b61225957600080fd5b8091505092915050565b60008082121561227257600080fd5b819050919050565b600061228583610e88565b9050808211156122b65760006122a4828461234590919063ffffffff16565b90506122b08482612672565b506122e2565b808210156122e15760006122d3838361234590919063ffffffff16565b90506122df8482612731565b505b5b505050565b60008082846122f69190613514565b90508381101561233b576040517f08c379a00000000000000000000000000000000000000000000000000000000081526004016123329061320a565b60405180910390fd5b8091505092915050565b600061238783836040518060400160405280601e81526020017f536166654d6174683a207375627472616374696f6e206f766572666c6f77000081525061211c565b905092915050565b60008061239b836111c9565b905060008111156125e9576123f881600860008673ffffffffffffffffffffffffffffffffffffffff1673ffffffffffffffffffffffffffffffffffffffff168152602001908152602001600020546122e790919063ffffffff16565b600860008573ffffffffffffffffffffffffffffffffffffffff1673ffffffffffffffffffffffffffffffffffffffff168152602001908152602001600020819055508273ffffffffffffffffffffffffffffffffffffffff167fee503bee2bb6a87e57bc57db795f98137327401a0e7b7ce42e37926cc1a9ca4d8260405161248191906133f7565b60405180910390a260007f000000000000000000000000000000000000000000000000000000000000000073ffffffffffffffffffffffffffffffffffffffff1663a9059cbb85846040518363ffffffff1660e01b81526004016124e69291906130c6565b602060405180830381600087803b15801561250057600080fd5b505af1158015612514573d6000803e3d6000fd5b505050506040513d601f19601f820116820180604052508101906125389190612d8c565b9050806125df5761259182600860008773ffffffffffffffffffffffffffffffffffffffff1673ffffffffffffffffffffffffffffffffffffffff1681526020019081526020016000205461234590919063ffffffff16565b600860008673ffffffffffffffffffffffffffffffffffffffff1673ffffffffffffffffffffffffffffffffffffffff168152602001908152602001600020819055506000925050506125ef565b81925050506125ef565b60009150505b919050565b600080828461260391906135f5565b9050600083121580156126165750838113155b8061262c575060008312801561262b57508381135b5b61263557600080fd5b8091505092915050565b600042821115612652576000905061266d565b601154612668834261234590919063ffffffff16565b101590505b919050565b61267c82826127f0565b6126ea61269c6126978360065461218090919063ffffffff16565b6121fb565b600760008573ffffffffffffffffffffffffffffffffffffffff1673ffffffffffffffffffffffffffffffffffffffff168152602001908152602001600020546125f490919063ffffffff16565b600760008473ffffffffffffffffffffffffffffffffffffffff1673ffffffffffffffffffffffffffffffffffffffff168152602001908152602001600020819055505050565b61273b8282612984565b6127a961275b6127568360065461218090919063ffffffff16565b6121fb565b600760008573ffffffffffffffffffffffffffffffffffffffff1673ffffffffffffffffffffffffffffffffffffffff1681526020019081526020016000205461221890919063ffffffff16565b600760008473ffffffffffffffffffffffffffffffffffffffff1673ffffffffffffffffffffffffffffffffffffffff168152602001908152602001600020819055505050565b600073ffffffffffffffffffffffffffffffffffffffff168273ffffffffffffffffffffffffffffffffffffffff161415612860576040517f08c379a00000000000000000000000000000000000000000000000000000000081526004016128579061330a565b60405180910390fd5b61286c60008383612b32565b612881816002546122e790919063ffffffff16565b6002819055506128d8816000808573ffffffffffffffffffffffffffffffffffffffff1673ffffffffffffffffffffffffffffffffffffffff168152602001908152602001600020546122e790919063ffffffff16565b6000808473ffffffffffffffffffffffffffffffffffffffff1673ffffffffffffffffffffffffffffffffffffffff168152602001908152602001600020819055508173ffffffffffffffffffffffffffffffffffffffff16600073ffffffffffffffffffffffffffffffffffffffff167fddf252ad1be2c89b69c2b068fc378daa952ba7f163c4a11628f55a4df523b3ef8360405161297891906133f7565b60405180910390a35050565b600073ffffffffffffffffffffffffffffffffffffffff168273ffffffffffffffffffffffffffffffffffffffff1614156129f4576040517f08c379a00000000000000000000000000000000000000000000000000000000081526004016129eb906132aa565b60405180910390fd5b612a0082600083612b32565b612a6b81604051806060016040528060228152602001613d0c602291396000808673ffffffffffffffffffffffffffffffffffffffff1673ffffffffffffffffffffffffffffffffffffffff1681526020019081526020016000205461211c9092919063ffffffff16565b6000808473ffffffffffffffffffffffffffffffffffffffff1673ffffffffffffffffffffffffffffffffffffffff16815260200190815260200160002081905550612ac28160025461234590919063ffffffff16565b600281905550600073ffffffffffffffffffffffffffffffffffffffff168273ffffffffffffffffffffffffffffffffffffffff167fddf252ad1be2c89b69c2b068fc378daa952ba7f163c4a11628f55a4df523b3ef83604051612b2691906133f7565b60405180910390a35050565b505050565b600081359050612b4681613c98565b92915050565b600081519050612b5b81613c98565b92915050565b600081359050612b7081613caf565b92915050565b600081359050612b8581613cc6565b92915050565b600081519050612b9a81613cc6565b92915050565b600081519050612baf81613cdd565b92915050565b600081359050612bc481613cf4565b92915050565b600081519050612bd981613cf4565b92915050565b600060208284031215612bf557612bf46138ce565b5b6000612c0384828501612b37565b91505092915050565b600060208284031215612c2257612c216138ce565b5b6000612c3084828501612b4c565b91505092915050565b60008060408385031215612c5057612c4f6138ce565b5b6000612c5e85828601612b61565b9250506020612c6f85828601612b76565b9150509250929050565b60008060408385031215612c9057612c8f6138ce565b5b6000612c9e85828601612b61565b9250506020612caf85828601612bb5565b9150509250929050565b60008060408385031215612cd057612ccf6138ce565b5b6000612cde85828601612b37565b9250506020612cef85828601612b37565b9150509250929050565b600080600060608486031215612d1257612d116138ce565b5b6000612d2086828701612b37565b9350506020612d3186828701612b37565b9250506040612d4286828701612bb5565b9150509250925092565b60008060408385031215612d6357612d626138ce565b5b6000612d7185828601612b37565b9250506020612d8285828601612bb5565b9150509250929050565b600060208284031215612da257612da16138ce565b5b6000612db084828501612b8b565b91505092915050565b600060208284031215612dcf57612dce6138ce565b5b6000612ddd84828501612ba0565b91505092915050565b600060208284031215612dfc57612dfb6138ce565b5b6000612e0a84828501612bb5565b91505092915050565b600060208284031215612e2957612e286138ce565b5b6000612e3784828501612bca565b91505092915050565b612e498161372e565b82525050565b612e588161372e565b82525050565b612e67816136bd565b82525050565b612e76816136bd565b82525050565b612e85816136e1565b82525050565b612e94816136ed565b82525050565b6000612ea582613464565b612eaf818561346f565b9350612ebf818560208601613764565b612ec8816138d3565b840191505092915050565b6000612ee0604b8361346f565b9150612eeb826138e4565b606082019050919050565b6000612f0360268361346f565b9150612f0e82613959565b604082019050919050565b6000612f2660228361346f565b9150612f31826139a8565b604082019050919050565b6000612f49601b8361346f565b9150612f54826139f7565b602082019050919050565b6000612f6c603d8361346f565b9150612f7782613a20565b604082019050919050565b6000612f8f60678361346f565b9150612f9a82613a6f565b608082019050919050565b6000612fb260218361346f565b9150612fbd82613b0a565b604082019050919050565b6000612fd560208361346f565b9150612fe082613b59565b602082019050919050565b6000612ff860218361346f565b915061300382613b82565b604082019050919050565b600061301b60248361346f565b915061302682613bd1565b604082019050919050565b600061303e602c8361346f565b915061304982613c20565b604082019050919050565b6000613061601f8361346f565b915061306c82613c6f565b602082019050919050565b8082525050565b61308781613717565b82525050565b61309681613717565b82525050565b6130a581613721565b82525050565b60006020820190506130c06000830184612e5e565b92915050565b60006040820190506130db6000830185612e40565b6130e8602083018461307e565b9392505050565b600061010082019050613105600083018b612e5e565b613112602083018a612e8b565b61311f6040830189612e8b565b61312c606083018861307e565b613139608083018761307e565b61314660a083018661307e565b61315360c083018561307e565b61316060e083018461307e565b9998505050505050505050565b60006020820190506131826000830184612e7c565b92915050565b600060208201905081810360008301526131a28184612e9a565b905092915050565b600060208201905081810360008301526131c381612ed3565b9050919050565b600060208201905081810360008301526131e381612ef6565b9050919050565b6000602082019050818103600083015261320381612f19565b9050919050565b6000602082019050818103600083015261322381612f3c565b9050919050565b6000602082019050818103600083015261324381612f5f565b9050919050565b6000602082019050818103600083015261326381612f82565b9050919050565b6000602082019050818103600083015261328381612fa5565b9050919050565b600060208201905081810360008301526132a381612fc8565b9050919050565b600060208201905081810360008301526132c381612feb565b9050919050565b600060208201905081810360008301526132e38161300e565b9050919050565b6000602082019050818103600083015261330381613031565b9050919050565b6000602082019050818103600083015261332381613054565b9050919050565b600060208201905061333f6000830184613077565b92915050565b600060408201905061335a6000830185613077565b6133676020830184612e6d565b9392505050565b60006040820190506133836000830185613077565b6133906020830184612e4f565b9392505050565b60006060820190506133ac6000830186613077565b6133b96020830185612e4f565b6133c6604083018461308d565b949350505050565b60006040820190506133e36000830185613077565b6133f0602083018461308d565b9392505050565b600060208201905061340c600083018461307e565b92915050565b6000606082019050613427600083018661307e565b613434602083018561307e565b613441604083018461307e565b949350505050565b600060208201905061345e600083018461309c565b92915050565b600081519050919050565b600082825260208201905092915050565b600061348b826136ed565b9150613496836136ed565b9250817f7fffffffffffffffffffffffffffffffffffffffffffffffffffffffffffffff038313600083121516156134d1576134d0613812565b5b817f800000000000000000000000000000000000000000000000000000000000000003831260008312161561350957613508613812565b5b828201905092915050565b600061351f82613717565b915061352a83613717565b9250827fffffffffffffffffffffffffffffffffffffffffffffffffffffffffffffffff0382111561355f5761355e613812565b5b828201905092915050565b600061357582613717565b915061358083613717565b9250826135905761358f613841565b5b828204905092915050565b60006135a682613717565b91506135b183613717565b9250817fffffffffffffffffffffffffffffffffffffffffffffffffffffffffffffffff04831182151516156135ea576135e9613812565b5b828202905092915050565b6000613600826136ed565b915061360b836136ed565b9250827f80000000000000000000000000000000000000000000000000000000000000000182126000841215161561364657613645613812565b5b827f7fffffffffffffffffffffffffffffffffffffffffffffffffffffffffffffff01821360008412161561367e5761367d613812565b5b828203905092915050565b600061369482613717565b915061369f83613717565b9250828210156136b2576136b1613812565b5b828203905092915050565b60006136c8826136f7565b9050919050565b60006136da826136f7565b9050919050565b60008115159050919050565b6000819050919050565b600073ffffffffffffffffffffffffffffffffffffffff82169050919050565b6000819050919050565b600060ff82169050919050565b600061373982613740565b9050919050565b600061374b82613752565b9050919050565b600061375d826136f7565b9050919050565b60005b83811015613782578082015181840152602081019050613767565b83811115613791576000848401525b50505050565b600060028204905060018216806137af57607f821691505b602082108114156137c3576137c2613870565b5b50919050565b60006137d482613717565b91507fffffffffffffffffffffffffffffffffffffffffffffffffffffffffffffffff82141561380757613806613812565b5b600182019050919050565b7f4e487b7100000000000000000000000000000000000000000000000000000000600052601160045260246000fd5b7f4e487b7100000000000000000000000000000000000000000000000000000000600052601260045260246000fd5b7f4e487b7100000000000000000000000000000000000000000000000000000000600052602260045260246000fd5b7f4e487b7100000000000000000000000000000000000000000000000000000000600052603260045260246000fd5b600080fd5b6000601f19601f8301169050919050565b7f50534849425f4469766964656e645f547261636b65723a20636c61696d57616960008201527f74206d757374206265207570646174656420746f206265747765656e2031206160208201527f6e6420323420686f757273000000000000000000000000000000000000000000604082015250565b7f4f776e61626c653a206e6577206f776e657220697320746865207a65726f206160008201527f6464726573730000000000000000000000000000000000000000000000000000602082015250565b7f45524332303a20617070726f766520746f20746865207a65726f20616464726560008201527f7373000000000000000000000000000000000000000000000000000000000000602082015250565b7f536166654d6174683a206164646974696f6e206f766572666c6f770000000000600082015250565b7f50534849425f4469766964656e645f547261636b65723a2043616e6e6f74207560008201527f706461746520636c61696d5761697420746f2073616d652076616c7565000000602082015250565b7f50534849425f4469766964656e645f547261636b65723a20776974686472617760008201527f4469766964656e642064697361626c65642e20557365207468652027636c616960208201527f6d272066756e6374696f6e206f6e20746865206d61696e20505348494220636f60408201527f6e74726163742e00000000000000000000000000000000000000000000000000606082015250565b7f536166654d6174683a206d756c7469706c69636174696f6e206f766572666c6f60008201527f7700000000000000000000000000000000000000000000000000000000000000602082015250565b7f4f776e61626c653a2063616c6c6572206973206e6f7420746865206f776e6572600082015250565b7f45524332303a206275726e2066726f6d20746865207a65726f2061646472657360008201527f7300000000000000000000000000000000000000000000000000000000000000602082015250565b7f45524332303a20617070726f76652066726f6d20746865207a65726f2061646460008201527f7265737300000000000000000000000000000000000000000000000000000000602082015250565b7f50534849425f4469766964656e645f547261636b65723a204e6f207472616e7360008201527f6665727320616c6c6f7765640000000000000000000000000000000000000000602082015250565b7f45524332303a206d696e7420746f20746865207a65726f206164647265737300600082015250565b613ca1816136bd565b8114613cac57600080fd5b50565b613cb8816136cf565b8114613cc357600080fd5b50565b613ccf816136e1565b8114613cda57600080fd5b50565b613ce6816136ed565b8114613cf157600080fd5b50565b613cfd81613717565b8114613d0857600080fd5b5056fe45524332303a206275726e20616d6f756e7420657863656564732062616c616e636545524332303a207472616e7366657220616d6f756e74206578636565647320616c6c6f77616e636545524332303a2064656372656173656420616c6c6f77616e63652062656c6f77207a65726fa2646970667358221220948a29e150e8e365f4916588df587f7ea06776a15196191d03e206a461c09cd064736f6c63430008070033",
  "linkReferences": {
    "contracts/Test.sol": {
      "IterableMapping": [
        {
          "length": 20,
          "start": 3668
        },
        {
          "length": 20,
          "start": 4069
        },
        {
          "length": 20,
          "start": 4280
        },
        {
          "length": 20,
          "start": 6408
        },
        {
          "length": 20,
          "start": 6534
        },
        {
          "length": 20,
          "start": 7871
        }
      ]
    }
  },
  "deployedLinkReferences": {
    "contracts/Test.sol": {
      "IterableMapping": [
        {
          "length": 20,
          "start": 2859
        },
        {
          "length": 20,
          "start": 3260
        },
        {
          "length": 20,
          "start": 3471
        },
        {
          "length": 20,
          "start": 5599
        },
        {
          "length": 20,
          "start": 5725
        },
        {
          "length": 20,
          "start": 7062
        }
      ]
    }
  }
}