{
  "_format": "hh-sol-artifact-1",
  "contractName": "PSHIB",
  "sourceName": "contracts/Test.sol",
  "abi": [
    {
      "inputs": [],
      "stateMutability": "nonpayable",
      "type": "constructor"
    },
    {
      "anonymous": false,
      "inputs": [
        {
          "indexed": true,
          "internalType": "address",
          "name": "owner",
          "type": "address"
        },
        {
          "indexed": true,
          "internalType": "address",
          "name": "spender",
          "type": "address"
        },
        {
          "indexed": false,
          "internalType": "uint256",
          "name": "value",
          "type": "uint256"
        }
      ],
      "name": "Approval",
      "type": "event"
    },
    {
      "anonymous": false,
      "inputs": [
        {
          "indexed": true,
          "internalType": "address",
          "name": "account",
          "type": "address"
        },
        {
          "indexed": false,
          "internalType": "bool",
          "name": "isExcluded",
          "type": "bool"
        }
      ],
      "name": "ExcludeFromFees",
      "type": "event"
    },
    {
      "anonymous": false,
      "inputs": [
        {
          "indexed": false,
          "internalType": "address[]",
          "name": "accounts",
          "type": "address[]"
        },
        {
          "indexed": false,
          "internalType": "bool",
          "name": "isExcluded",
          "type": "bool"
        }
      ],
      "name": "ExcludeMultipleAccountsFromFees",
      "type": "event"
    },
    {
      "anonymous": false,
      "inputs": [
        {
          "indexed": true,
          "internalType": "uint256",
          "name": "newValue",
          "type": "uint256"
        },
        {
          "indexed": true,
          "internalType": "uint256",
          "name": "oldValue",
          "type": "uint256"
        }
      ],
      "name": "GasForProcessingUpdated",
      "type": "event"
    },
    {
      "anonymous": false,
      "inputs": [
        {
          "indexed": true,
          "internalType": "address",
          "name": "newLiquidityWallet",
          "type": "address"
        },
        {
          "indexed": true,
          "internalType": "address",
          "name": "oldLiquidityWallet",
          "type": "address"
        }
      ],
      "name": "LiquidityWalletUpdated",
      "type": "event"
    },
    {
      "anonymous": false,
      "inputs": [
        {
          "indexed": true,
          "internalType": "address",
          "name": "previousOwner",
          "type": "address"
        },
        {
          "indexed": true,
          "internalType": "address",
          "name": "newOwner",
          "type": "address"
        }
      ],
      "name": "OwnershipTransferred",
      "type": "event"
    },
    {
      "anonymous": false,
      "inputs": [
        {
          "indexed": false,
          "internalType": "uint256",
          "name": "iterations",
          "type": "uint256"
        },
        {
          "indexed": false,
          "internalType": "uint256",
          "name": "claims",
          "type": "uint256"
        },
        {
          "indexed": false,
          "internalType": "uint256",
          "name": "lastProcessedIndex",
          "type": "uint256"
        },
        {
          "indexed": true,
          "internalType": "bool",
          "name": "automatic",
          "type": "bool"
        },
        {
          "indexed": false,
          "internalType": "uint256",
          "name": "gas",
          "type": "uint256"
        },
        {
          "indexed": true,
          "internalType": "address",
          "name": "processor",
          "type": "address"
        }
      ],
      "name": "ProcessedDividendTracker",
      "type": "event"
    },
    {
      "anonymous": false,
      "inputs": [
        {
          "indexed": false,
          "internalType": "uint256",
          "name": "tokensSwapped",
          "type": "uint256"
        },
        {
          "indexed": false,
          "internalType": "uint256",
          "name": "amount",
          "type": "uint256"
        }
      ],
      "name": "SendDividends",
      "type": "event"
    },
    {
      "anonymous": false,
      "inputs": [
        {
          "indexed": true,
          "internalType": "address",
          "name": "pair",
          "type": "address"
        },
        {
          "indexed": true,
          "internalType": "bool",
          "name": "value",
          "type": "bool"
        }
      ],
      "name": "SetAutomatedMarketMakerPair",
      "type": "event"
    },
    {
      "anonymous": false,
      "inputs": [
        {
          "indexed": false,
          "internalType": "uint256",
          "name": "tokensSwapped",
          "type": "uint256"
        },
        {
          "indexed": false,
          "internalType": "uint256",
          "name": "ethReceived",
          "type": "uint256"
        },
        {
          "indexed": false,
          "internalType": "uint256",
          "name": "tokensIntoLiqudity",
          "type": "uint256"
        }
      ],
      "name": "SwapAndLiquify",
      "type": "event"
    },
    {
      "anonymous": false,
      "inputs": [
        {
          "indexed": true,
          "internalType": "address",
          "name": "from",
          "type": "address"
        },
        {
          "indexed": true,
          "internalType": "address",
          "name": "to",
          "type": "address"
        },
        {
          "indexed": false,
          "internalType": "uint256",
          "name": "value",
          "type": "uint256"
        }
      ],
      "name": "Transfer",
      "type": "event"
    },
    {
      "anonymous": false,
      "inputs": [
        {
          "indexed": true,
          "internalType": "address",
          "name": "newAddress",
          "type": "address"
        },
        {
          "indexed": true,
          "internalType": "address",
          "name": "oldAddress",
          "type": "address"
        }
      ],
      "name": "UpdateDividendTracker",
      "type": "event"
    },
    {
      "anonymous": false,
      "inputs": [
        {
          "indexed": true,
          "internalType": "address",
          "name": "newAddress",
          "type": "address"
        },
        {
          "indexed": true,
          "internalType": "address",
          "name": "oldAddress",
          "type": "address"
        }
      ],
      "name": "UpdateUniswapV2Router",
      "type": "event"
    },
    {
      "inputs": [],
      "name": "SHIB",
      "outputs": [
        {
          "internalType": "address",
          "name": "",
          "type": "address"
        }
      ],
      "stateMutability": "view",
      "type": "function"
    },
    {
      "inputs": [],
      "name": "UNIRewardsFee",
      "outputs": [
        {
          "internalType": "uint256",
          "name": "",
          "type": "uint256"
        }
      ],
      "stateMutability": "view",
      "type": "function"
    },
    {
      "inputs": [],
      "name": "_marketingWalletAddress",
      "outputs": [
        {
          "internalType": "address",
          "name": "",
          "type": "address"
        }
      ],
      "stateMutability": "view",
      "type": "function"
    },
    {
      "inputs": [],
      "name": "_maxTxAmount",
      "outputs": [
        {
          "internalType": "uint256",
          "name": "",
          "type": "uint256"
        }
      ],
      "stateMutability": "view",
      "type": "function"
    },
    {
      "inputs": [
        {
          "internalType": "address",
          "name": "owner",
          "type": "address"
        },
        {
          "internalType": "address",
          "name": "spender",
          "type": "address"
        }
      ],
      "name": "allowance",
      "outputs": [
        {
          "internalType": "uint256",
          "name": "",
          "type": "uint256"
        }
      ],
      "stateMutability": "view",
      "type": "function"
    },
    {
      "inputs": [
        {
          "internalType": "address",
          "name": "spender",
          "type": "address"
        },
        {
          "internalType": "uint256",
          "name": "amount",
          "type": "uint256"
        }
      ],
      "name": "approve",
      "outputs": [
        {
          "internalType": "bool",
          "name": "",
          "type": "bool"
        }
      ],
      "stateMutability": "nonpayable",
      "type": "function"
    },
    {
      "inputs": [
        {
          "internalType": "address",
          "name": "",
          "type": "address"
        }
      ],
      "name": "automatedMarketMakerPairs",
      "outputs": [
        {
          "internalType": "bool",
          "name": "",
          "type": "bool"
        }
      ],
      "stateMutability": "view",
      "type": "function"
    },
    {
      "inputs": [
        {
          "internalType": "address",
          "name": "account",
          "type": "address"
        }
      ],
      "name": "balanceOf",
      "outputs": [
        {
          "internalType": "uint256",
          "name": "",
          "type": "uint256"
        }
      ],
      "stateMutability": "view",
      "type": "function"
    },
    {
      "inputs": [
        {
          "internalType": "address",
          "name": "",
          "type": "address"
        }
      ],
      "name": "blacklist",
      "outputs": [
        {
          "internalType": "bool",
          "name": "",
          "type": "bool"
        }
      ],
      "stateMutability": "view",
      "type": "function"
    },
    {
      "inputs": [],
      "name": "blacklistblock",
      "outputs": [
        {
          "internalType": "uint256",
          "name": "",
          "type": "uint256"
        }
      ],
      "stateMutability": "view",
      "type": "function"
    },
    {
      "inputs": [],
      "name": "blockcount",
      "outputs": [
        {
          "internalType": "uint256",
          "name": "",
          "type": "uint256"
        }
      ],
      "stateMutability": "view",
      "type": "function"
    },
    {
      "inputs": [],
      "name": "claim",
      "outputs": [],
      "stateMutability": "nonpayable",
      "type": "function"
    },
    {
      "inputs": [],
      "name": "deadWallet",
      "outputs": [
        {
          "internalType": "address",
          "name": "",
          "type": "address"
        }
      ],
      "stateMutability": "view",
      "type": "function"
    },
    {
      "inputs": [],
      "name": "decimals",
      "outputs": [
        {
          "internalType": "uint8",
          "name": "",
          "type": "uint8"
        }
      ],
      "stateMutability": "view",
      "type": "function"
    },
    {
      "inputs": [
        {
          "internalType": "address",
          "name": "spender",
          "type": "address"
        },
        {
          "internalType": "uint256",
          "name": "subtractedValue",
          "type": "uint256"
        }
      ],
      "name": "decreaseAllowance",
      "outputs": [
        {
          "internalType": "bool",
          "name": "",
          "type": "bool"
        }
      ],
      "stateMutability": "nonpayable",
      "type": "function"
    },
    {
      "inputs": [
        {
          "internalType": "address",
          "name": "account",
          "type": "address"
        }
      ],
      "name": "dividendTokenBalanceOf",
      "outputs": [
        {
          "internalType": "uint256",
          "name": "",
          "type": "uint256"
        }
      ],
      "stateMutability": "view",
      "type": "function"
    },
    {
      "inputs": [],
      "name": "dividendTracker",
      "outputs": [
        {
          "internalType": "contract PSHIBDividendTracker",
          "name": "",
          "type": "address"
        }
      ],
      "stateMutability": "view",
      "type": "function"
    },
    {
      "inputs": [
        {
          "internalType": "address",
          "name": "account",
          "type": "address"
        }
      ],
      "name": "excludeFromDividends",
      "outputs": [],
      "stateMutability": "nonpayable",
      "type": "function"
    },
    {
      "inputs": [
        {
          "internalType": "address",
          "name": "account",
          "type": "address"
        },
        {
          "internalType": "bool",
          "name": "excluded",
          "type": "bool"
        }
      ],
      "name": "excludeFromFees",
      "outputs": [],
      "stateMutability": "nonpayable",
      "type": "function"
    },
    {
      "inputs": [
        {
          "internalType": "address[]",
          "name": "accounts",
          "type": "address[]"
        },
        {
          "internalType": "bool",
          "name": "excluded",
          "type": "bool"
        }
      ],
      "name": "excludeMultipleAccountsFromFees",
      "outputs": [],
      "stateMutability": "nonpayable",
      "type": "function"
    },
    {
      "inputs": [],
      "name": "gasForProcessing",
      "outputs": [
        {
          "internalType": "uint256",
          "name": "",
          "type": "uint256"
        }
      ],
      "stateMutability": "view",
      "type": "function"
    },
    {
      "inputs": [
        {
          "internalType": "address",
          "name": "account",
          "type": "address"
        }
      ],
      "name": "getAccountDividendsInfo",
      "outputs": [
        {
          "internalType": "address",
          "name": "",
          "type": "address"
        },
        {
          "internalType": "int256",
          "name": "",
          "type": "int256"
        },
        {
          "internalType": "int256",
          "name": "",
          "type": "int256"
        },
        {
          "internalType": "uint256",
          "name": "",
          "type": "uint256"
        },
        {
          "internalType": "uint256",
          "name": "",
          "type": "uint256"
        },
        {
          "internalType": "uint256",
          "name": "",
          "type": "uint256"
        },
        {
          "internalType": "uint256",
          "name": "",
          "type": "uint256"
        },
        {
          "internalType": "uint256",
          "name": "",
          "type": "uint256"
        }
      ],
      "stateMutability": "view",
      "type": "function"
    },
    {
      "inputs": [
        {
          "internalType": "uint256",
          "name": "index",
          "type": "uint256"
        }
      ],
      "name": "getAccountDividendsInfoAtIndex",
      "outputs": [
        {
          "internalType": "address",
          "name": "",
          "type": "address"
        },
        {
          "internalType": "int256",
          "name": "",
          "type": "int256"
        },
        {
          "internalType": "int256",
          "name": "",
          "type": "int256"
        },
        {
          "internalType": "uint256",
          "name": "",
          "type": "uint256"
        },
        {
          "internalType": "uint256",
          "name": "",
          "type": "uint256"
        },
        {
          "internalType": "uint256",
          "name": "",
          "type": "uint256"
        },
        {
          "internalType": "uint256",
          "name": "",
          "type": "uint256"
        },
        {
          "internalType": "uint256",
          "name": "",
          "type": "uint256"
        }
      ],
      "stateMutability": "view",
      "type": "function"
    },
    {
      "inputs": [],
      "name": "getClaimWait",
      "outputs": [
        {
          "internalType": "uint256",
          "name": "",
          "type": "uint256"
        }
      ],
      "stateMutability": "view",
      "type": "function"
    },
    {
      "inputs": [],
      "name": "getLastProcessedIndex",
      "outputs": [
        {
          "internalType": "uint256",
          "name": "",
          "type": "uint256"
        }
      ],
      "stateMutability": "view",
      "type": "function"
    },
    {
      "inputs": [],
      "name": "getNumberOfDividendTokenHolders",
      "outputs": [
        {
          "internalType": "uint256",
          "name": "",
          "type": "uint256"
        }
      ],
      "stateMutability": "view",
      "type": "function"
    },
    {
      "inputs": [],
      "name": "getTotalDividendsDistributed",
      "outputs": [
        {
          "internalType": "uint256",
          "name": "",
          "type": "uint256"
        }
      ],
      "stateMutability": "view",
      "type": "function"
    },
    {
      "inputs": [
        {
          "internalType": "address",
          "name": "spender",
          "type": "address"
        },
        {
          "internalType": "uint256",
          "name": "addedValue",
          "type": "uint256"
        }
      ],
      "name": "increaseAllowance",
      "outputs": [
        {
          "internalType": "bool",
          "name": "",
          "type": "bool"
        }
      ],
      "stateMutability": "nonpayable",
      "type": "function"
    },
    {
      "inputs": [
        {
          "internalType": "address",
          "name": "account",
          "type": "address"
        }
      ],
      "name": "isExcludedFromFees",
      "outputs": [
        {
          "internalType": "bool",
          "name": "",
          "type": "bool"
        }
      ],
      "stateMutability": "view",
      "type": "function"
    },
    {
      "inputs": [],
      "name": "liquidityFee",
      "outputs": [
        {
          "internalType": "uint256",
          "name": "",
          "type": "uint256"
        }
      ],
      "stateMutability": "view",
      "type": "function"
    },
    {
      "inputs": [],
      "name": "marketingFee",
      "outputs": [
        {
          "internalType": "uint256",
          "name": "",
          "type": "uint256"
        }
      ],
      "stateMutability": "view",
      "type": "function"
    },
    {
      "inputs": [],
      "name": "name",
      "outputs": [
        {
          "internalType": "string",
          "name": "",
          "type": "string"
        }
      ],
      "stateMutability": "view",
      "type": "function"
    },
    {
      "inputs": [],
      "name": "owner",
      "outputs": [
        {
          "internalType": "address",
          "name": "",
          "type": "address"
        }
      ],
      "stateMutability": "view",
      "type": "function"
    },
    {
      "inputs": [
        {
          "internalType": "uint256",
          "name": "gas",
          "type": "uint256"
        }
      ],
      "name": "processDividendTracker",
      "outputs": [],
      "stateMutability": "nonpayable",
      "type": "function"
    },
    {
      "inputs": [],
      "name": "renounceOwnership",
      "outputs": [],
      "stateMutability": "nonpayable",
      "type": "function"
    },
    {
      "inputs": [
        {
          "internalType": "address",
          "name": "addr",
          "type": "address"
        },
        {
          "internalType": "bool",
          "name": "isBlack",
          "type": "bool"
        }
      ],
      "name": "setAddress",
      "outputs": [],
      "stateMutability": "nonpayable",
      "type": "function"
    },
    {
      "inputs": [
        {
          "internalType": "address",
          "name": "pair",
          "type": "address"
        },
        {
          "internalType": "bool",
          "name": "value",
          "type": "bool"
        }
      ],
      "name": "setAutomatedMarketMakerPair",
      "outputs": [],
      "stateMutability": "nonpayable",
      "type": "function"
    },
    {
      "inputs": [
        {
          "internalType": "uint256",
          "name": "value",
          "type": "uint256"
        }
      ],
      "name": "setLiquiditFee",
      "outputs": [],
      "stateMutability": "nonpayable",
      "type": "function"
    },
    {
      "inputs": [
        {
          "internalType": "uint256",
          "name": "value",
          "type": "uint256"
        }
      ],
      "name": "setMarketingFee",
      "outputs": [],
      "stateMutability": "nonpayable",
      "type": "function"
    },
    {
      "inputs": [
        {
          "internalType": "address payable",
          "name": "wallet",
          "type": "address"
        }
      ],
      "name": "setMarketingWallet",
      "outputs": [],
      "stateMutability": "nonpayable",
      "type": "function"
    },
    {
      "inputs": [
        {
          "internalType": "uint256",
          "name": "amount",
          "type": "uint256"
        }
      ],
      "name": "setMaxTxAmount",
      "outputs": [],
      "stateMutability": "nonpayable",
      "type": "function"
    },
    {
      "inputs": [
        {
          "internalType": "uint256",
          "name": "value",
          "type": "uint256"
        }
      ],
      "name": "setSHIBRewardsFee",
      "outputs": [],
      "stateMutability": "nonpayable",
      "type": "function"
    },
    {
      "inputs": [
        {
          "internalType": "bool",
          "name": "salestatus",
          "type": "bool"
        }
      ],
      "name": "setSaleStart",
      "outputs": [],
      "stateMutability": "nonpayable",
      "type": "function"
    },
    {
      "inputs": [],
      "name": "swapTokensAtAmount",
      "outputs": [
        {
          "internalType": "uint256",
          "name": "",
          "type": "uint256"
        }
      ],
      "stateMutability": "view",
      "type": "function"
    },
    {
      "inputs": [],
      "name": "symbol",
      "outputs": [
        {
          "internalType": "string",
          "name": "",
          "type": "string"
        }
      ],
      "stateMutability": "view",
      "type": "function"
    },
    {
      "inputs": [],
      "name": "totalFees",
      "outputs": [
        {
          "internalType": "uint256",
          "name": "",
          "type": "uint256"
        }
      ],
      "stateMutability": "view",
      "type": "function"
    },
    {
      "inputs": [],
      "name": "totalSupply",
      "outputs": [
        {
          "internalType": "uint256",
          "name": "",
          "type": "uint256"
        }
      ],
      "stateMutability": "view",
      "type": "function"
    },
    {
      "inputs": [
        {
          "internalType": "address",
          "name": "recipient",
          "type": "address"
        },
        {
          "internalType": "uint256",
          "name": "amount",
          "type": "uint256"
        }
      ],
      "name": "transfer",
      "outputs": [
        {
          "internalType": "bool",
          "name": "",
          "type": "bool"
        }
      ],
      "stateMutability": "nonpayable",
      "type": "function"
    },
    {
      "inputs": [
        {
          "internalType": "address",
          "name": "sender",
          "type": "address"
        },
        {
          "internalType": "address",
          "name": "recipient",
          "type": "address"
        },
        {
          "internalType": "uint256",
          "name": "amount",
          "type": "uint256"
        }
      ],
      "name": "transferFrom",
      "outputs": [
        {
          "internalType": "bool",
          "name": "",
          "type": "bool"
        }
      ],
      "stateMutability": "nonpayable",
      "type": "function"
    },
    {
      "inputs": [
        {
          "internalType": "address",
          "name": "newOwner",
          "type": "address"
        }
      ],
      "name": "transferOwnership",
      "outputs": [],
      "stateMutability": "nonpayable",
      "type": "function"
    },
    {
      "inputs": [],
      "name": "uniswapV2Pair",
      "outputs": [
        {
          "internalType": "address",
          "name": "",
          "type": "address"
        }
      ],
      "stateMutability": "view",
      "type": "function"
    },
    {
      "inputs": [],
      "name": "uniswapV2Router",
      "outputs": [
        {
          "internalType": "contract IUniswapV2Router02",
          "name": "",
          "type": "address"
        }
      ],
      "stateMutability": "view",
      "type": "function"
    },
    {
      "inputs": [
        {
          "internalType": "uint256",
          "name": "claimWait",
          "type": "uint256"
        },
        {
          "internalType": "address",
          "name": "a",
          "type": "address"
        }
      ],
      "name": "updateClaimWait",
      "outputs": [],
      "stateMutability": "nonpayable",
      "type": "function"
    },
    {
      "inputs": [
        {
          "internalType": "address",
          "name": "newAddress",
          "type": "address"
        }
      ],
      "name": "updateDividendTracker",
      "outputs": [],
      "stateMutability": "nonpayable",
      "type": "function"
    },
    {
      "inputs": [
        {
          "internalType": "uint256",
          "name": "newValue",
          "type": "uint256"
        }
      ],
      "name": "updateGasForProcessing",
      "outputs": [],
      "stateMutability": "nonpayable",
      "type": "function"
    },
    {
      "inputs": [
        {
          "internalType": "address",
          "name": "newAddress",
          "type": "address"
        }
      ],
      "name": "updateUniswapV2Router",
      "outputs": [],
      "stateMutability": "nonpayable",
      "type": "function"
    },
    {
      "inputs": [
        {
          "internalType": "address",
          "name": "account",
          "type": "address"
        }
      ],
      "name": "withdrawableDividendOf",
      "outputs": [
        {
          "internalType": "uint256",
          "name": "",
          "type": "uint256"
        }
      ],
      "stateMutability": "view",
      "type": "function"
    },
    {
      "stateMutability": "payable",
      "type": "receive"
    }
  ],
  "bytecode": "0x60a060405261dead600960006101000a81548173ffffffffffffffffffffffffffffffffffffffff021916908373ffffffffffffffffffffffffffffffffffffffff160217905550732859e4544c4bb03966803b044a93563bd2d0dd4d73ffffffffffffffffffffffffffffffffffffffff1660809073ffffffffffffffffffffffffffffffffffffffff1660601b8152506c193e5939a08ce9dbd480000000600a556c3f1bdf10116048a59340000000600b556003600d556003600e556002600f55600160105562000100601054620000ec600f54600e546200093a60201b620035a71790919060201c565b6200093a60201b620035a71790919060201c565b601155731411b0e1de39c94607336412a9211b34a6e03487601260006101000a81548173ffffffffffffffffffffffffffffffffffffffff021916908373ffffffffffffffffffffffffffffffffffffffff160217905550620493e06013553480156200016c57600080fd5b506040518060400160405280600d81526020017f506978656c5368696261496e75000000000000000000000000000000000000008152506040518060400160405280600581526020017f50534849420000000000000000000000000000000000000000000000000000008152508160039080519060200190620001f192919062000f36565b5080600490805190602001906200020a92919062000f36565b50505060006200021f6200099d60201b60201c565b905080600560006101000a81548173ffffffffffffffffffffffffffffffffffffffff021916908373ffffffffffffffffffffffffffffffffffffffff1602179055508073ffffffffffffffffffffffffffffffffffffffff16600073ffffffffffffffffffffffffffffffffffffffff167f8be0079c531659141344cd1fd0a4f28419497f9722a3daafe3b4186f6b6457e060405160405180910390a350604051620002cc9062000fc7565b604051809103906000f080158015620002e9573d6000803e3d6000fd5b50600860006101000a81548173ffffffffffffffffffffffffffffffffffffffff021916908373ffffffffffffffffffffffffffffffffffffffff16021790555060007310ed43c718714eb63d5aa57b78b54704e256024e905060008173ffffffffffffffffffffffffffffffffffffffff1663c45a01556040518163ffffffff1660e01b815260040160206040518083038186803b1580156200038c57600080fd5b505afa158015620003a1573d6000803e3d6000fd5b505050506040513d601f19601f82011682018060405250810190620003c791906200100b565b73ffffffffffffffffffffffffffffffffffffffff1663c9c65396308473ffffffffffffffffffffffffffffffffffffffff1663ad5c46486040518163ffffffff1660e01b815260040160206040518083038186803b1580156200042a57600080fd5b505afa1580156200043f573d6000803e3d6000fd5b505050506040513d601f19601f820116820180604052508101906200046591906200100b565b6040518363ffffffff1660e01b81526004016200048492919062001150565b602060405180830381600087803b1580156200049f57600080fd5b505af1158015620004b4573d6000803e3d6000fd5b505050506040513d601f19601f82011682018060405250810190620004da91906200100b565b905081600660006101000a81548173ffffffffffffffffffffffffffffffffffffffff021916908373ffffffffffffffffffffffffffffffffffffffff16021790555080600760006101000a81548173ffffffffffffffffffffffffffffffffffffffff021916908373ffffffffffffffffffffffffffffffffffffffff16021790555062000571816001620009a560201b60201c565b600860009054906101000a900473ffffffffffffffffffffffffffffffffffffffff1673ffffffffffffffffffffffffffffffffffffffff166331e79db0600860009054906101000a900473ffffffffffffffffffffffffffffffffffffffff166040518263ffffffff1660e01b8152600401620005f0919062001133565b600060405180830381600087803b1580156200060b57600080fd5b505af115801562000620573d6000803e3d6000fd5b50505050600860009054906101000a900473ffffffffffffffffffffffffffffffffffffffff1673ffffffffffffffffffffffffffffffffffffffff166331e79db0306040518263ffffffff1660e01b815260040162000681919062001133565b600060405180830381600087803b1580156200069c57600080fd5b505af1158015620006b1573d6000803e3d6000fd5b50505050600860009054906101000a900473ffffffffffffffffffffffffffffffffffffffff1673ffffffffffffffffffffffffffffffffffffffff166331e79db06200070362000b7560201b60201c565b6040518263ffffffff1660e01b815260040162000721919062001133565b600060405180830381600087803b1580156200073c57600080fd5b505af115801562000751573d6000803e3d6000fd5b50505050600860009054906101000a900473ffffffffffffffffffffffffffffffffffffffff1673ffffffffffffffffffffffffffffffffffffffff166331e79db0600960009054906101000a900473ffffffffffffffffffffffffffffffffffffffff166040518263ffffffff1660e01b8152600401620007d4919062001133565b600060405180830381600087803b158015620007ef57600080fd5b505af115801562000804573d6000803e3d6000fd5b50505050600860009054906101000a900473ffffffffffffffffffffffffffffffffffffffff1673ffffffffffffffffffffffffffffffffffffffff166331e79db0836040518263ffffffff1660e01b815260040162000865919062001133565b600060405180830381600087803b1580156200088057600080fd5b505af115801562000895573d6000803e3d6000fd5b50505050620008bb620008ad62000b7560201b60201c565b600162000b9f60201b60201c565b620008f0601260009054906101000a900473ffffffffffffffffffffffffffffffffffffffff16600162000b9f60201b60201c565b6200090330600162000b9f60201b60201c565b620009326200091762000b7560201b60201c565b6d04ee2d6d415b85acef810000000062000d8260201b60201c565b5050620014e5565b60008082846200094b919062001272565b90508381101562000993576040517f08c379a00000000000000000000000000000000000000000000000000000000081526004016200098a90620011bc565b60405180910390fd5b8091505092915050565b600033905090565b801515601560008473ffffffffffffffffffffffffffffffffffffffff1673ffffffffffffffffffffffffffffffffffffffff16815260200190815260200160002060009054906101000a900460ff161515141562000a3b576040517f08c379a000000000000000000000000000000000000000000000000000000000815260040162000a32906200119a565b60405180910390fd5b80601560008473ffffffffffffffffffffffffffffffffffffffff1673ffffffffffffffffffffffffffffffffffffffff16815260200190815260200160002060006101000a81548160ff021916908315150217905550801562000b2b57600860009054906101000a900473ffffffffffffffffffffffffffffffffffffffff1673ffffffffffffffffffffffffffffffffffffffff166331e79db0836040518263ffffffff1660e01b815260040162000af6919062001133565b600060405180830381600087803b15801562000b1157600080fd5b505af115801562000b26573d6000803e3d6000fd5b505050505b8015158273ffffffffffffffffffffffffffffffffffffffff167fffa9187bf1f18bf477bd0ea1bcbb64e93b6a98132473929edfce215cd9b16fab60405160405180910390a35050565b6000600560009054906101000a900473ffffffffffffffffffffffffffffffffffffffff16905090565b62000baf6200099d60201b60201c565b73ffffffffffffffffffffffffffffffffffffffff16600560009054906101000a900473ffffffffffffffffffffffffffffffffffffffff1673ffffffffffffffffffffffffffffffffffffffff161462000c41576040517f08c379a000000000000000000000000000000000000000000000000000000000815260040162000c389062001200565b60405180910390fd5b801515601460008473ffffffffffffffffffffffffffffffffffffffff1673ffffffffffffffffffffffffffffffffffffffff16815260200190815260200160002060009054906101000a900460ff161515141562000cd7576040517f08c379a000000000000000000000000000000000000000000000000000000000815260040162000cce90620011de565b60405180910390fd5b80601460008473ffffffffffffffffffffffffffffffffffffffff1673ffffffffffffffffffffffffffffffffffffffff16815260200190815260200160002060006101000a81548160ff0219169083151502179055508173ffffffffffffffffffffffffffffffffffffffff167f9d8f7706ea1113d1a167b526eca956215946dd36cc7df39eb16180222d8b5df78260405162000d7691906200117d565b60405180910390a25050565b600073ffffffffffffffffffffffffffffffffffffffff168273ffffffffffffffffffffffffffffffffffffffff16141562000df5576040517f08c379a000000000000000000000000000000000000000000000000000000000815260040162000dec9062001222565b60405180910390fd5b62000e096000838362000f3160201b60201c565b62000e25816002546200093a60201b620035a71790919060201c565b60028190555062000e83816000808573ffffffffffffffffffffffffffffffffffffffff1673ffffffffffffffffffffffffffffffffffffffff168152602001908152602001600020546200093a60201b620035a71790919060201c565b6000808473ffffffffffffffffffffffffffffffffffffffff1673ffffffffffffffffffffffffffffffffffffffff168152602001908152602001600020819055508173ffffffffffffffffffffffffffffffffffffffff16600073ffffffffffffffffffffffffffffffffffffffff167fddf252ad1be2c89b69c2b068fc378daa952ba7f163c4a11628f55a4df523b3ef8360405162000f25919062001244565b60405180910390a35050565b505050565b82805462000f449062001319565b90600052602060002090601f01602090048101928262000f68576000855562000fb4565b82601f1062000f8357805160ff191683800117855562000fb4565b8280016001018555821562000fb4579182015b8281111562000fb357825182559160200191906001019062000f96565b5b50905062000fc3919062000fd5565b5090565b6140d9806200829683390190565b5b8082111562000ff057600081600090555060010162000fd6565b5090565b6000815190506200100581620014cb565b92915050565b600060208284031215620010245762001023620013ad565b5b6000620010348482850162000ff4565b91505092915050565b6200104881620012cf565b82525050565b6200105981620012e3565b82525050565b60006200106e603f8362001261565b91506200107b82620013b2565b604082019050919050565b600062001095601b8362001261565b9150620010a28262001401565b602082019050919050565b6000620010bc60318362001261565b9150620010c9826200142a565b604082019050919050565b6000620010e360208362001261565b9150620010f08262001479565b602082019050919050565b60006200110a601f8362001261565b91506200111782620014a2565b602082019050919050565b6200112d816200130f565b82525050565b60006020820190506200114a60008301846200103d565b92915050565b60006040820190506200116760008301856200103d565b6200117660208301846200103d565b9392505050565b60006020820190506200119460008301846200104e565b92915050565b60006020820190508181036000830152620011b5816200105f565b9050919050565b60006020820190508181036000830152620011d78162001086565b9050919050565b60006020820190508181036000830152620011f981620010ad565b9050919050565b600060208201905081810360008301526200121b81620010d4565b9050919050565b600060208201905081810360008301526200123d81620010fb565b9050919050565b60006020820190506200125b600083018462001122565b92915050565b600082825260208201905092915050565b60006200127f826200130f565b91506200128c836200130f565b9250827fffffffffffffffffffffffffffffffffffffffffffffffffffffffffffffffff03821115620012c457620012c36200134f565b5b828201905092915050565b6000620012dc82620012ef565b9050919050565b60008115159050919050565b600073ffffffffffffffffffffffffffffffffffffffff82169050919050565b6000819050919050565b600060028204905060018216806200133257607f821691505b602082108114156200134957620013486200137e565b5b50919050565b7f4e487b7100000000000000000000000000000000000000000000000000000000600052601160045260246000fd5b7f4e487b7100000000000000000000000000000000000000000000000000000000600052602260045260246000fd5b600080fd5b7f50534849423a204175746f6d61746564206d61726b6574206d616b657220706160008201527f697220697320616c72656164792073657420746f20746861742076616c756500602082015250565b7f536166654d6174683a206164646974696f6e206f766572666c6f770000000000600082015250565b7f50534849423a204163636f756e7420697320616c72656164792074686520766160008201527f6c7565206f6620276578636c7564656427000000000000000000000000000000602082015250565b7f4f776e61626c653a2063616c6c6572206973206e6f7420746865206f776e6572600082015250565b7f45524332303a206d696e7420746f20746865207a65726f206164647265737300600082015250565b620014d681620012cf565b8114620014e257600080fd5b50565b60805160601c616d686200152e6000396000818161317d01528181614707015281816147c10152818161487a015281816149fa01528181614aa70152614e870152616d686000f3fe60806040526004361061037a5760003560e01c806385141a77116101d1578063ad56c13c11610102578063dd62ed3e116100a0578063ec28438a1161006f578063ec28438a14610d06578063f27fd25414610d2f578063f2fde38b14610d73578063f9f92be414610d9c57610381565b8063dd62ed3e14610c48578063e24b85e714610c85578063e2f4560514610cb0578063e7841ec014610cdb57610381565b8063c0246668116100dc578063c024666814610ba0578063c2cc9b5514610bc9578063c492f04614610bf4578063dbc1bc1914610c1d57610381565b8063ad56c13c14610af6578063adefd90c14610b3a578063b62496f514610b6357610381565b80639a7a23d61161016f578063a457c2d711610149578063a457c2d714610a16578063a8b9d24014610a53578063a9059cbb14610a90578063aa2f542f14610acd57610381565b80639a7a23d6146109975780639c1b8af5146109c0578063a26579ad146109eb57610381565b80638da5cb5b116101ab5780638da5cb5b146108eb57806395d89b4114610916578063970b81a61461094157806398118cb41461096c57610381565b806385141a771461086e578063871c128d1461089957806388bdd9be146108c257610381565b80634fbee193116102ab5780636b67c4df11610249578063700bb19111610223578063700bb191146107c657806370a08231146107ef578063715018a61461082c5780637d1db4a51461084357610381565b80636b67c4df146107495780636c411cf4146107745780636c9119181461079d57610381565b8063625e764c11610285578063625e764c1461068f57806364b0f653146106b857806365b8dbc0146106e35780636843cd841461070c57610381565b80634fbee193146106005780635d098b381461063d578063608b326f1461066657610381565b806330bb4cff1161031857806339509351116102f257806339509351146105565780634144d9e41461059357806349bd5a5e146105be5780634e71d92d146105e957610381565b806330bb4cff146104d7578063313ce5671461050257806331e79db01461052d57610381565b80631694505e116103545780631694505e1461041957806318160ddd1461044457806323b872dd1461046f5780632c1f5216146104ac57610381565b806306fdde0314610386578063095ea7b3146103b157806313114a9d146103ee57610381565b3661038157005b600080fd5b34801561039257600080fd5b5061039b610dd9565b6040516103a89190615e6f565b60405180910390f35b3480156103bd57600080fd5b506103d860048036038101906103d39190615609565b610e6b565b6040516103e59190615e1e565b60405180910390f35b3480156103fa57600080fd5b50610403610e89565b6040516104109190616111565b60405180910390f35b34801561042557600080fd5b5061042e610e8f565b60405161043b9190615e39565b60405180910390f35b34801561045057600080fd5b50610459610eb5565b6040516104669190616111565b60405180910390f35b34801561047b57600080fd5b50610496600480360381019061049191906154c0565b610ebf565b6040516104a39190615e1e565b60405180910390f35b3480156104b857600080fd5b506104c1610f98565b6040516104ce9190615e54565b60405180910390f35b3480156104e357600080fd5b506104ec610fbe565b6040516104f99190616111565b60405180910390f35b34801561050e57600080fd5b50610517611065565b604051610524919061622b565b60405180910390f35b34801561053957600080fd5b50610554600480360381019061054f91906153f9565b61106e565b005b34801561056257600080fd5b5061057d60048036038101906105789190615609565b611195565b60405161058a9190615e1e565b60405180910390f35b34801561059f57600080fd5b506105a8611248565b6040516105b59190615c4e565b60405180910390f35b3480156105ca57600080fd5b506105d361126e565b6040516105e09190615c4e565b60405180910390f35b3480156105f557600080fd5b506105fe611294565b005b34801561060c57600080fd5b50610627600480360381019061062291906153f9565b611347565b6040516106349190615e1e565b60405180910390f35b34801561064957600080fd5b50610664600480360381019061065f9190615453565b61139d565b005b34801561067257600080fd5b5061068d60048036038101906106889190615513565b611478565b005b34801561069b57600080fd5b506106b660048036038101906106b19190615703565b61156a565b005b3480156106c457600080fd5b506106cd61163c565b6040516106da9190616111565b60405180910390f35b3480156106ef57600080fd5b5061070a600480360381019061070591906153f9565b6116e3565b005b34801561071857600080fd5b50610733600480360381019061072e91906153f9565b611adc565b6040516107409190616111565b60405180910390f35b34801561075557600080fd5b5061075e611b90565b60405161076b9190616111565b60405180910390f35b34801561078057600080fd5b5061079b60048036038101906107969190615703565b611b96565b005b3480156107a957600080fd5b506107c460048036038101906107bf91906156a9565b611c68565b005b3480156107d257600080fd5b506107ed60048036038101906107e89190615703565b611d23565b005b3480156107fb57600080fd5b50610816600480360381019061081191906153f9565b611e39565b6040516108239190616111565b60405180910390f35b34801561083857600080fd5b50610841611e81565b005b34801561084f57600080fd5b50610858611fd9565b6040516108659190616111565b60405180910390f35b34801561087a57600080fd5b50610883611fdf565b6040516108909190615c4e565b60405180910390f35b3480156108a557600080fd5b506108c060048036038101906108bb9190615703565b612005565b005b3480156108ce57600080fd5b506108e960048036038101906108e491906153f9565b612170565b005b3480156108f757600080fd5b5061090061261e565b60405161090d9190615c4e565b60405180910390f35b34801561092257600080fd5b5061092b612648565b6040516109389190615e6f565b60405180910390f35b34801561094d57600080fd5b506109566126da565b6040516109639190616111565b60405180910390f35b34801561097857600080fd5b506109816126e0565b60405161098e9190616111565b60405180910390f35b3480156109a357600080fd5b506109be60048036038101906109b99190615513565b6126e6565b005b3480156109cc57600080fd5b506109d561281c565b6040516109e29190616111565b60405180910390f35b3480156109f757600080fd5b50610a00612822565b604051610a0d9190616111565b60405180910390f35b348015610a2257600080fd5b50610a3d6004803603810190610a389190615609565b6128c9565b604051610a4a9190615e1e565b60405180910390f35b348015610a5f57600080fd5b50610a7a6004803603810190610a7591906153f9565b612996565b604051610a879190616111565b60405180910390f35b348015610a9c57600080fd5b50610ab76004803603810190610ab29190615609565b612a4a565b604051610ac49190615e1e565b60405180910390f35b348015610ad957600080fd5b50610af46004803603810190610aef919061575d565b612a68565b005b348015610b0257600080fd5b50610b1d6004803603810190610b1891906153f9565b612bd9565b604051610b31989796959493929190615ce4565b60405180910390f35b348015610b4657600080fd5b50610b616004803603810190610b5c9190615703565b612cac565b005b348015610b6f57600080fd5b50610b8a6004803603810190610b8591906153f9565b612d7e565b604051610b979190615e1e565b60405180910390f35b348015610bac57600080fd5b50610bc76004803603810190610bc29190615513565b612d9e565b005b348015610bd557600080fd5b50610bde612f71565b604051610beb9190616111565b60405180910390f35b348015610c0057600080fd5b50610c1b6004803603810190610c169190615649565b612f77565b005b348015610c2957600080fd5b50610c326130ee565b604051610c3f9190616111565b60405180910390f35b348015610c5457600080fd5b50610c6f6004803603810190610c6a9190615480565b6130f4565b604051610c7c9190616111565b60405180910390f35b348015610c9157600080fd5b50610c9a61317b565b604051610ca79190615c4e565b60405180910390f35b348015610cbc57600080fd5b50610cc561319f565b604051610cd29190616111565b60405180910390f35b348015610ce757600080fd5b50610cf06131a5565b604051610cfd9190616111565b60405180910390f35b348015610d1257600080fd5b50610d2d6004803603810190610d289190615703565b61324c565b005b348015610d3b57600080fd5b50610d566004803603810190610d519190615703565b6132ed565b604051610d6a989796959493929190615ce4565b60405180910390f35b348015610d7f57600080fd5b50610d9a6004803603810190610d9591906153f9565b6133c0565b005b348015610da857600080fd5b50610dc36004803603810190610dbe91906153f9565b613587565b604051610dd09190615e1e565b60405180910390f35b606060038054610de8906164dc565b80601f0160208091040260200160405190810160405280929190818152602001828054610e14906164dc565b8015610e615780601f10610e3657610100808354040283529160200191610e61565b820191906000526020600020905b815481529060010190602001808311610e4457829003601f168201915b5050505050905090565b6000610e7f610e78613605565b848461360d565b6001905092915050565b60115481565b600660009054906101000a900473ffffffffffffffffffffffffffffffffffffffff1681565b6000600254905090565b6000610ecc8484846137d8565b610f8d84610ed8613605565b610f8885604051806060016040528060288152602001616ce660289139600160008b73ffffffffffffffffffffffffffffffffffffffff1673ffffffffffffffffffffffffffffffffffffffff1681526020019081526020016000206000610f3e613605565b73ffffffffffffffffffffffffffffffffffffffff1673ffffffffffffffffffffffffffffffffffffffff168152602001908152602001600020546140d29092919063ffffffff16565b61360d565b600190509392505050565b600860009054906101000a900473ffffffffffffffffffffffffffffffffffffffff1681565b6000600860009054906101000a900473ffffffffffffffffffffffffffffffffffffffff1673ffffffffffffffffffffffffffffffffffffffff166385a6b3ae6040518163ffffffff1660e01b815260040160206040518083038186803b15801561102857600080fd5b505afa15801561103c573d6000803e3d6000fd5b505050506040513d601f19601f820116820180604052508101906110609190615730565b905090565b60006012905090565b611076613605565b73ffffffffffffffffffffffffffffffffffffffff16600560009054906101000a900473ffffffffffffffffffffffffffffffffffffffff1673ffffffffffffffffffffffffffffffffffffffff1614611105576040517f08c379a00000000000000000000000000000000000000000000000000000000081526004016110fc90616031565b60405180910390fd5b600860009054906101000a900473ffffffffffffffffffffffffffffffffffffffff1673ffffffffffffffffffffffffffffffffffffffff166331e79db0826040518263ffffffff1660e01b81526004016111609190615c4e565b600060405180830381600087803b15801561117a57600080fd5b505af115801561118e573d6000803e3d6000fd5b5050505050565b600061123e6111a2613605565b8461123985600160006111b3613605565b73ffffffffffffffffffffffffffffffffffffffff1673ffffffffffffffffffffffffffffffffffffffff16815260200190815260200160002060008973ffffffffffffffffffffffffffffffffffffffff1673ffffffffffffffffffffffffffffffffffffffff168152602001908152602001600020546135a790919063ffffffff16565b61360d565b6001905092915050565b601260009054906101000a900473ffffffffffffffffffffffffffffffffffffffff1681565b600760009054906101000a900473ffffffffffffffffffffffffffffffffffffffff1681565b600860009054906101000a900473ffffffffffffffffffffffffffffffffffffffff1673ffffffffffffffffffffffffffffffffffffffff1663bc4c4b373360006040518363ffffffff1660e01b81526004016112f2929190615c69565b602060405180830381600087803b15801561130c57600080fd5b505af1158015611320573d6000803e3d6000fd5b505050506040513d601f19601f8201168201806040525081019061134491906156d6565b50565b6000601460008373ffffffffffffffffffffffffffffffffffffffff1673ffffffffffffffffffffffffffffffffffffffff16815260200190815260200160002060009054906101000a900460ff169050919050565b6113a5613605565b73ffffffffffffffffffffffffffffffffffffffff16600560009054906101000a900473ffffffffffffffffffffffffffffffffffffffff1673ffffffffffffffffffffffffffffffffffffffff1614611434576040517f08c379a000000000000000000000000000000000000000000000000000000000815260040161142b90616031565b60405180910390fd5b80601260006101000a81548173ffffffffffffffffffffffffffffffffffffffff021916908373ffffffffffffffffffffffffffffffffffffffff16021790555050565b611480613605565b73ffffffffffffffffffffffffffffffffffffffff16600560009054906101000a900473ffffffffffffffffffffffffffffffffffffffff1673ffffffffffffffffffffffffffffffffffffffff161461150f576040517f08c379a000000000000000000000000000000000000000000000000000000000815260040161150690616031565b60405180910390fd5b80601660008473ffffffffffffffffffffffffffffffffffffffff1673ffffffffffffffffffffffffffffffffffffffff16815260200190815260200160002060006101000a81548160ff0219169083151502179055505050565b611572613605565b73ffffffffffffffffffffffffffffffffffffffff16600560009054906101000a900473ffffffffffffffffffffffffffffffffffffffff1673ffffffffffffffffffffffffffffffffffffffff1614611601576040517f08c379a00000000000000000000000000000000000000000000000000000000081526004016115f890616031565b60405180910390fd5b80601081905550611633601054611625600f54600e546135a790919063ffffffff16565b6135a790919063ffffffff16565b60118190555050565b6000600860009054906101000a900473ffffffffffffffffffffffffffffffffffffffff1673ffffffffffffffffffffffffffffffffffffffff166309bbedde6040518163ffffffff1660e01b815260040160206040518083038186803b1580156116a657600080fd5b505afa1580156116ba573d6000803e3d6000fd5b505050506040513d601f19601f820116820180604052508101906116de9190615730565b905090565b6116eb613605565b73ffffffffffffffffffffffffffffffffffffffff16600560009054906101000a900473ffffffffffffffffffffffffffffffffffffffff1673ffffffffffffffffffffffffffffffffffffffff161461177a576040517f08c379a000000000000000000000000000000000000000000000000000000000815260040161177190616031565b60405180910390fd5b600660009054906101000a900473ffffffffffffffffffffffffffffffffffffffff1673ffffffffffffffffffffffffffffffffffffffff168173ffffffffffffffffffffffffffffffffffffffff16141561180b576040517f08c379a000000000000000000000000000000000000000000000000000000000815260040161180290615f31565b60405180910390fd5b600660009054906101000a900473ffffffffffffffffffffffffffffffffffffffff1673ffffffffffffffffffffffffffffffffffffffff168173ffffffffffffffffffffffffffffffffffffffff167f8fc842bbd331dfa973645f4ed48b11683d501ebf1352708d77a5da2ab49a576e60405160405180910390a380600660006101000a81548173ffffffffffffffffffffffffffffffffffffffff021916908373ffffffffffffffffffffffffffffffffffffffff1602179055506000600660009054906101000a900473ffffffffffffffffffffffffffffffffffffffff1673ffffffffffffffffffffffffffffffffffffffff1663c45a01556040518163ffffffff1660e01b815260040160206040518083038186803b15801561193257600080fd5b505afa158015611946573d6000803e3d6000fd5b505050506040513d601f19601f8201168201806040525081019061196a9190615426565b73ffffffffffffffffffffffffffffffffffffffff1663c9c6539630600660009054906101000a900473ffffffffffffffffffffffffffffffffffffffff1673ffffffffffffffffffffffffffffffffffffffff1663ad5c46486040518163ffffffff1660e01b815260040160206040518083038186803b1580156119ee57600080fd5b505afa158015611a02573d6000803e3d6000fd5b505050506040513d601f19601f82011682018060405250810190611a269190615426565b6040518363ffffffff1660e01b8152600401611a43929190615cbb565b602060405180830381600087803b158015611a5d57600080fd5b505af1158015611a71573d6000803e3d6000fd5b505050506040513d601f19601f82011682018060405250810190611a959190615426565b905080600760006101000a81548173ffffffffffffffffffffffffffffffffffffffff021916908373ffffffffffffffffffffffffffffffffffffffff1602179055505050565b6000600860009054906101000a900473ffffffffffffffffffffffffffffffffffffffff1673ffffffffffffffffffffffffffffffffffffffff166370a08231836040518263ffffffff1660e01b8152600401611b399190615c4e565b60206040518083038186803b158015611b5157600080fd5b505afa158015611b65573d6000803e3d6000fd5b505050506040513d601f19601f82011682018060405250810190611b899190615730565b9050919050565b60105481565b611b9e613605565b73ffffffffffffffffffffffffffffffffffffffff16600560009054906101000a900473ffffffffffffffffffffffffffffffffffffffff1673ffffffffffffffffffffffffffffffffffffffff1614611c2d576040517f08c379a0000000000000000000000000000000000000000000000000000000008152600401611c2490616031565b60405180910390fd5b80600e81905550611c5f601054611c51600f54600e546135a790919063ffffffff16565b6135a790919063ffffffff16565b60118190555050565b611c70613605565b73ffffffffffffffffffffffffffffffffffffffff16600560009054906101000a900473ffffffffffffffffffffffffffffffffffffffff1673ffffffffffffffffffffffffffffffffffffffff1614611cff576040517f08c379a0000000000000000000000000000000000000000000000000000000008152600401611cf690616031565b60405180910390fd5b80600760156101000a81548160ff02191690831515021790555043600c8190555050565b6000806000600860009054906101000a900473ffffffffffffffffffffffffffffffffffffffff1673ffffffffffffffffffffffffffffffffffffffff1663ffb2c479856040518263ffffffff1660e01b8152600401611d839190616111565b606060405180830381600087803b158015611d9d57600080fd5b505af1158015611db1573d6000803e3d6000fd5b505050506040513d601f19601f82011682018060405250810190611dd5919061579d565b9250925092503273ffffffffffffffffffffffffffffffffffffffff16600015157fc864333d6121033635ab41b29ae52f10a22cf4438c3e4f1c4c68518feb2f8a9885858589604051611e2b94939291906161e6565b60405180910390a350505050565b60008060008373ffffffffffffffffffffffffffffffffffffffff1673ffffffffffffffffffffffffffffffffffffffff168152602001908152602001600020549050919050565b611e89613605565b73ffffffffffffffffffffffffffffffffffffffff16600560009054906101000a900473ffffffffffffffffffffffffffffffffffffffff1673ffffffffffffffffffffffffffffffffffffffff1614611f18576040517f08c379a0000000000000000000000000000000000000000000000000000000008152600401611f0f90616031565b60405180910390fd5b600073ffffffffffffffffffffffffffffffffffffffff16600560009054906101000a900473ffffffffffffffffffffffffffffffffffffffff1673ffffffffffffffffffffffffffffffffffffffff167f8be0079c531659141344cd1fd0a4f28419497f9722a3daafe3b4186f6b6457e060405160405180910390a36000600560006101000a81548173ffffffffffffffffffffffffffffffffffffffff021916908373ffffffffffffffffffffffffffffffffffffffff160217905550565b600b5481565b600960009054906101000a900473ffffffffffffffffffffffffffffffffffffffff1681565b61200d613605565b73ffffffffffffffffffffffffffffffffffffffff16600560009054906101000a900473ffffffffffffffffffffffffffffffffffffffff1673ffffffffffffffffffffffffffffffffffffffff161461209c576040517f08c379a000000000000000000000000000000000000000000000000000000000815260040161209390616031565b60405180910390fd5b62030d4081101580156120b257506207a1208111155b6120f1576040517f08c379a00000000000000000000000000000000000000000000000000000000081526004016120e890615f51565b60405180910390fd5b601354811415612136576040517f08c379a000000000000000000000000000000000000000000000000000000000815260040161212d906160f1565b60405180910390fd5b601354817f40d7e40e79af4e8e5a9b3c57030d8ea93f13d669c06d448c4d631d4ae7d23db760405160405180910390a38060138190555050565b612178613605565b73ffffffffffffffffffffffffffffffffffffffff16600560009054906101000a900473ffffffffffffffffffffffffffffffffffffffff1673ffffffffffffffffffffffffffffffffffffffff1614612207576040517f08c379a00000000000000000000000000000000000000000000000000000000081526004016121fe90616031565b60405180910390fd5b600860009054906101000a900473ffffffffffffffffffffffffffffffffffffffff1673ffffffffffffffffffffffffffffffffffffffff168173ffffffffffffffffffffffffffffffffffffffff161415612298576040517f08c379a000000000000000000000000000000000000000000000000000000000815260040161228f90615fb1565b60405180910390fd5b60008190503073ffffffffffffffffffffffffffffffffffffffff168173ffffffffffffffffffffffffffffffffffffffff16638da5cb5b6040518163ffffffff1660e01b815260040160206040518083038186803b1580156122fa57600080fd5b505afa15801561230e573d6000803e3d6000fd5b505050506040513d601f19601f820116820180604052508101906123329190615426565b73ffffffffffffffffffffffffffffffffffffffff1614612388576040517f08c379a000000000000000000000000000000000000000000000000000000000815260040161237f906160b1565b60405180910390fd5b8073ffffffffffffffffffffffffffffffffffffffff166331e79db0826040518263ffffffff1660e01b81526004016123c19190615c4e565b600060405180830381600087803b1580156123db57600080fd5b505af11580156123ef573d6000803e3d6000fd5b505050508073ffffffffffffffffffffffffffffffffffffffff166331e79db0306040518263ffffffff1660e01b815260040161242c9190615c4e565b600060405180830381600087803b15801561244657600080fd5b505af115801561245a573d6000803e3d6000fd5b505050508073ffffffffffffffffffffffffffffffffffffffff166331e79db061248261261e565b6040518263ffffffff1660e01b815260040161249e9190615c4e565b600060405180830381600087803b1580156124b857600080fd5b505af11580156124cc573d6000803e3d6000fd5b505050508073ffffffffffffffffffffffffffffffffffffffff166331e79db0600660009054906101000a900473ffffffffffffffffffffffffffffffffffffffff166040518263ffffffff1660e01b815260040161252b9190615c4e565b600060405180830381600087803b15801561254557600080fd5b505af1158015612559573d6000803e3d6000fd5b50505050600860009054906101000a900473ffffffffffffffffffffffffffffffffffffffff1673ffffffffffffffffffffffffffffffffffffffff168273ffffffffffffffffffffffffffffffffffffffff167f90c7d74461c613da5efa97d90740869367d74ab3aa5837aa4ae9a975f954b7a860405160405180910390a380600860006101000a81548173ffffffffffffffffffffffffffffffffffffffff021916908373ffffffffffffffffffffffffffffffffffffffff1602179055505050565b6000600560009054906101000a900473ffffffffffffffffffffffffffffffffffffffff16905090565b606060048054612657906164dc565b80601f0160208091040260200160405190810160405280929190818152602001828054612683906164dc565b80156126d05780601f106126a5576101008083540402835291602001916126d0565b820191906000526020600020905b8154815290600101906020018083116126b357829003601f168201915b5050505050905090565b600e5481565b600f5481565b6126ee613605565b73ffffffffffffffffffffffffffffffffffffffff16600560009054906101000a900473ffffffffffffffffffffffffffffffffffffffff1673ffffffffffffffffffffffffffffffffffffffff161461277d576040517f08c379a000000000000000000000000000000000000000000000000000000000815260040161277490616031565b60405180910390fd5b600760009054906101000a900473ffffffffffffffffffffffffffffffffffffffff1673ffffffffffffffffffffffffffffffffffffffff168273ffffffffffffffffffffffffffffffffffffffff16141561280e576040517f08c379a000000000000000000000000000000000000000000000000000000000815260040161280590615fd1565b60405180910390fd5b6128188282614136565b5050565b60135481565b6000600860009054906101000a900473ffffffffffffffffffffffffffffffffffffffff1673ffffffffffffffffffffffffffffffffffffffff16636f2789ec6040518163ffffffff1660e01b815260040160206040518083038186803b15801561288c57600080fd5b505afa1580156128a0573d6000803e3d6000fd5b505050506040513d601f19601f820116820180604052508101906128c49190615730565b905090565b600061298c6128d6613605565b8461298785604051806060016040528060258152602001616d0e6025913960016000612900613605565b73ffffffffffffffffffffffffffffffffffffffff1673ffffffffffffffffffffffffffffffffffffffff16815260200190815260200160002060008a73ffffffffffffffffffffffffffffffffffffffff1673ffffffffffffffffffffffffffffffffffffffff168152602001908152602001600020546140d29092919063ffffffff16565b61360d565b6001905092915050565b6000600860009054906101000a900473ffffffffffffffffffffffffffffffffffffffff1673ffffffffffffffffffffffffffffffffffffffff1663a8b9d240836040518263ffffffff1660e01b81526004016129f39190615c4e565b60206040518083038186803b158015612a0b57600080fd5b505afa158015612a1f573d6000803e3d6000fd5b505050506040513d601f19601f82011682018060405250810190612a439190615730565b9050919050565b6000612a5e612a57613605565b84846137d8565b6001905092915050565b612a70613605565b73ffffffffffffffffffffffffffffffffffffffff16600560009054906101000a900473ffffffffffffffffffffffffffffffffffffffff1673ffffffffffffffffffffffffffffffffffffffff1614612aff576040517f08c379a0000000000000000000000000000000000000000000000000000000008152600401612af690616031565b60405180910390fd5b612b0981836142fe565b612b48576040517f08c379a0000000000000000000000000000000000000000000000000000000008152600401612b3f90615f71565b60405180910390fd5b600860009054906101000a900473ffffffffffffffffffffffffffffffffffffffff1673ffffffffffffffffffffffffffffffffffffffff1663e98030c7836040518263ffffffff1660e01b8152600401612ba39190616111565b600060405180830381600087803b158015612bbd57600080fd5b505af1158015612bd1573d6000803e3d6000fd5b505050505050565b600080600080600080600080600860009054906101000a900473ffffffffffffffffffffffffffffffffffffffff1673ffffffffffffffffffffffffffffffffffffffff1663fbcbc0f18a6040518263ffffffff1660e01b8152600401612c409190615c4e565b6101006040518083038186803b158015612c5957600080fd5b505afa158015612c6d573d6000803e3d6000fd5b505050506040513d601f19601f82011682018060405250810190612c919190615553565b97509750975097509750975097509750919395975091939597565b612cb4613605565b73ffffffffffffffffffffffffffffffffffffffff16600560009054906101000a900473ffffffffffffffffffffffffffffffffffffffff1673ffffffffffffffffffffffffffffffffffffffff1614612d43576040517f08c379a0000000000000000000000000000000000000000000000000000000008152600401612d3a90616031565b60405180910390fd5b80600f81905550612d75601054612d67600f54600e546135a790919063ffffffff16565b6135a790919063ffffffff16565b60118190555050565b60156020528060005260406000206000915054906101000a900460ff1681565b612da6613605565b73ffffffffffffffffffffffffffffffffffffffff16600560009054906101000a900473ffffffffffffffffffffffffffffffffffffffff1673ffffffffffffffffffffffffffffffffffffffff1614612e35576040517f08c379a0000000000000000000000000000000000000000000000000000000008152600401612e2c90616031565b60405180910390fd5b801515601460008473ffffffffffffffffffffffffffffffffffffffff1673ffffffffffffffffffffffffffffffffffffffff16815260200190815260200160002060009054906101000a900460ff1615151415612ec8576040517f08c379a0000000000000000000000000000000000000000000000000000000008152600401612ebf90615ff1565b60405180910390fd5b80601460008473ffffffffffffffffffffffffffffffffffffffff1673ffffffffffffffffffffffffffffffffffffffff16815260200190815260200160002060006101000a81548160ff0219169083151502179055508173ffffffffffffffffffffffffffffffffffffffff167f9d8f7706ea1113d1a167b526eca956215946dd36cc7df39eb16180222d8b5df782604051612f659190615e1e565b60405180910390a25050565b600c5481565b612f7f613605565b73ffffffffffffffffffffffffffffffffffffffff16600560009054906101000a900473ffffffffffffffffffffffffffffffffffffffff1673ffffffffffffffffffffffffffffffffffffffff161461300e576040517f08c379a000000000000000000000000000000000000000000000000000000000815260040161300590616031565b60405180910390fd5b60005b838390508110156130ad578160146000868685818110613034576130336165e4565b5b905060200201602081019061304991906153f9565b73ffffffffffffffffffffffffffffffffffffffff1673ffffffffffffffffffffffffffffffffffffffff16815260200190815260200160002060006101000a81548160ff02191690831515021790555080806130a59061650e565b915050613011565b507f7fdaf542373fa84f4ee8d662c642f44e4c2276a217d7d29e548b6eb29a233b358383836040516130e193929190615dec565b60405180910390a1505050565b600d5481565b6000600160008473ffffffffffffffffffffffffffffffffffffffff1673ffffffffffffffffffffffffffffffffffffffff16815260200190815260200160002060008373ffffffffffffffffffffffffffffffffffffffff1673ffffffffffffffffffffffffffffffffffffffff16815260200190815260200160002054905092915050565b7f000000000000000000000000000000000000000000000000000000000000000081565b600a5481565b6000600860009054906101000a900473ffffffffffffffffffffffffffffffffffffffff1673ffffffffffffffffffffffffffffffffffffffff1663e7841ec06040518163ffffffff1660e01b815260040160206040518083038186803b15801561320f57600080fd5b505afa158015613223573d6000803e3d6000fd5b505050506040513d601f19601f820116820180604052508101906132479190615730565b905090565b613254613605565b73ffffffffffffffffffffffffffffffffffffffff16600560009054906101000a900473ffffffffffffffffffffffffffffffffffffffff1673ffffffffffffffffffffffffffffffffffffffff16146132e3576040517f08c379a00000000000000000000000000000000000000000000000000000000081526004016132da90616031565b60405180910390fd5b80600b8190555050565b600080600080600080600080600860009054906101000a900473ffffffffffffffffffffffffffffffffffffffff1673ffffffffffffffffffffffffffffffffffffffff16635183d6fd8a6040518263ffffffff1660e01b81526004016133549190616111565b6101006040518083038186803b15801561336d57600080fd5b505afa158015613381573d6000803e3d6000fd5b505050506040513d601f19601f820116820180604052508101906133a59190615553565b97509750975097509750975097509750919395975091939597565b6133c8613605565b73ffffffffffffffffffffffffffffffffffffffff16600560009054906101000a900473ffffffffffffffffffffffffffffffffffffffff1673ffffffffffffffffffffffffffffffffffffffff1614613457576040517f08c379a000000000000000000000000000000000000000000000000000000000815260040161344e90616031565b60405180910390fd5b600073ffffffffffffffffffffffffffffffffffffffff168173ffffffffffffffffffffffffffffffffffffffff1614156134c7576040517f08c379a00000000000000000000000000000000000000000000000000000000081526004016134be90615ed1565b60405180910390fd5b8073ffffffffffffffffffffffffffffffffffffffff16600560009054906101000a900473ffffffffffffffffffffffffffffffffffffffff1673ffffffffffffffffffffffffffffffffffffffff167f8be0079c531659141344cd1fd0a4f28419497f9722a3daafe3b4186f6b6457e060405160405180910390a380600560006101000a81548173ffffffffffffffffffffffffffffffffffffffff021916908373ffffffffffffffffffffffffffffffffffffffff16021790555050565b60166020528060005260406000206000915054906101000a900460ff1681565b60008082846135b691906162c9565b9050838110156135fb576040517f08c379a00000000000000000000000000000000000000000000000000000000081526004016135f290615f11565b60405180910390fd5b8091505092915050565b600033905090565b600073ffffffffffffffffffffffffffffffffffffffff168373ffffffffffffffffffffffffffffffffffffffff16141561367d576040517f08c379a000000000000000000000000000000000000000000000000000000000815260040161367490616091565b60405180910390fd5b600073ffffffffffffffffffffffffffffffffffffffff168273ffffffffffffffffffffffffffffffffffffffff1614156136ed576040517f08c379a00000000000000000000000000000000000000000000000000000000081526004016136e490615ef1565b60405180910390fd5b80600160008573ffffffffffffffffffffffffffffffffffffffff1673ffffffffffffffffffffffffffffffffffffffff16815260200190815260200160002060008473ffffffffffffffffffffffffffffffffffffffff1673ffffffffffffffffffffffffffffffffffffffff168152602001908152602001600020819055508173ffffffffffffffffffffffffffffffffffffffff168373ffffffffffffffffffffffffffffffffffffffff167f8c5be1e5ebec7d5bd14f71427d1e84f3dd0314c0f7b2291e5b200ac8c7c3b925836040516137cb9190616111565b60405180910390a3505050565b601660008473ffffffffffffffffffffffffffffffffffffffff1673ffffffffffffffffffffffffffffffffffffffff16815260200190815260200160002060009054906101000a900460ff1615613865576040517f08c379a000000000000000000000000000000000000000000000000000000000815260040161385c906160d1565b60405180910390fd5b600073ffffffffffffffffffffffffffffffffffffffff168373ffffffffffffffffffffffffffffffffffffffff1614156138d5576040517f08c379a00000000000000000000000000000000000000000000000000000000081526004016138cc90616071565b60405180910390fd5b600073ffffffffffffffffffffffffffffffffffffffff168273ffffffffffffffffffffffffffffffffffffffff161415613945576040517f08c379a000000000000000000000000000000000000000000000000000000000815260040161393c90615e91565b60405180910390fd5b601460008473ffffffffffffffffffffffffffffffffffffffff1673ffffffffffffffffffffffffffffffffffffffff16815260200190815260200160002060009054906101000a900460ff166139dc57600b548111156139db576040517f08c379a00000000000000000000000000000000000000000000000000000000081526004016139d290615f91565b60405180910390fd5b5b60008114156139f6576139f1838360006143a9565b6140cd565b6000613a0130611e39565b90506000600a548210159050808015613a275750600760149054906101000a900460ff16155b8015613a7d5750601560008673ffffffffffffffffffffffffffffffffffffffff1673ffffffffffffffffffffffffffffffffffffffff16815260200190815260200160002060009054906101000a900460ff16155b8015613abc5750613a8c61261e565b73ffffffffffffffffffffffffffffffffffffffff168573ffffffffffffffffffffffffffffffffffffffff1614155b8015613afb5750613acb61261e565b73ffffffffffffffffffffffffffffffffffffffff168473ffffffffffffffffffffffffffffffffffffffff1614155b15613bbc576001600760146101000a81548160ff0219169083151502179055506000613b46601154613b386010548661463e90919063ffffffff16565b6146b990919063ffffffff16565b9050613b5181614703565b6000613b7c601154613b6e600f548761463e90919063ffffffff16565b6146b990919063ffffffff16565b9050613b878161494d565b6000613b9230611e39565b9050613b9d816149ed565b6000600760146101000a81548160ff0219169083151502179055505050505b600060019050601460008773ffffffffffffffffffffffffffffffffffffffff1673ffffffffffffffffffffffffffffffffffffffff16815260200190815260200160002060009054906101000a900460ff1680613c635750601460008673ffffffffffffffffffffffffffffffffffffffff1673ffffffffffffffffffffffffffffffffffffffff16815260200190815260200160002060009054906101000a900460ff165b15613c715760009050613d87565b600760159054906101000a900460ff16613cc0576040517f08c379a0000000000000000000000000000000000000000000000000000000008152600401613cb790616051565b60405180910390fd5b600760009054906101000a900473ffffffffffffffffffffffffffffffffffffffff1673ffffffffffffffffffffffffffffffffffffffff168673ffffffffffffffffffffffffffffffffffffffff161415613d8657600d54600c54613d2691906162c9565b4311613d85576001601660008773ffffffffffffffffffffffffffffffffffffffff1673ffffffffffffffffffffffffffffffffffffffff16815260200190815260200160002060006101000a81548160ff0219169083151502179055505b5b5b8015613e62576000613db76064613da96011548861463e90919063ffffffff16565b6146b990919063ffffffff16565b9050601560008773ffffffffffffffffffffffffffffffffffffffff1673ffffffffffffffffffffffffffffffffffffffff16815260200190815260200160002060009054906101000a900460ff1615613e4057613e326064613e2460018861463e90919063ffffffff16565b6146b990919063ffffffff16565b81613e3d91906162c9565b90505b613e538186614c4890919063ffffffff16565b9450613e608730836143a9565b505b613e6d8686866143a9565b600860009054906101000a900473ffffffffffffffffffffffffffffffffffffffff1673ffffffffffffffffffffffffffffffffffffffff1663e30443bc87613eb589611e39565b6040518363ffffffff1660e01b8152600401613ed2929190615c92565b600060405180830381600087803b158015613eec57600080fd5b505af1925050508015613efd575060015b613f0657613f07565b5b600860009054906101000a900473ffffffffffffffffffffffffffffffffffffffff1673ffffffffffffffffffffffffffffffffffffffff1663e30443bc86613f4f88611e39565b6040518363ffffffff1660e01b8152600401613f6c929190615c92565b600060405180830381600087803b158015613f8657600080fd5b505af1925050508015613f97575060015b613fa057613fa1565b5b600760149054906101000a900460ff166140c95760006013549050600860009054906101000a900473ffffffffffffffffffffffffffffffffffffffff1673ffffffffffffffffffffffffffffffffffffffff1663ffb2c479826040518263ffffffff1660e01b81526004016140179190616111565b606060405180830381600087803b15801561403157600080fd5b505af192505050801561406257506040513d601f19601f8201168201806040525081019061405f919061579d565b60015b61406b576140c7565b3273ffffffffffffffffffffffffffffffffffffffff16600115157fc864333d6121033635ab41b29ae52f10a22cf4438c3e4f1c4c68518feb2f8a98858585896040516140bb94939291906161e6565b60405180910390a35050505b505b5050505b505050565b600083831115829061411a576040517f08c379a00000000000000000000000000000000000000000000000000000000081526004016141119190615e6f565b60405180910390fd5b506000838561412991906163aa565b9050809150509392505050565b801515601560008473ffffffffffffffffffffffffffffffffffffffff1673ffffffffffffffffffffffffffffffffffffffff16815260200190815260200160002060009054906101000a900460ff16151514156141c9576040517f08c379a00000000000000000000000000000000000000000000000000000000081526004016141c090615eb1565b60405180910390fd5b80601560008473ffffffffffffffffffffffffffffffffffffffff1673ffffffffffffffffffffffffffffffffffffffff16815260200190815260200160002060006101000a81548160ff02191690831515021790555080156142b457600860009054906101000a900473ffffffffffffffffffffffffffffffffffffffff1673ffffffffffffffffffffffffffffffffffffffff166331e79db0836040518263ffffffff1660e01b81526004016142819190615c4e565b600060405180830381600087803b15801561429b57600080fd5b505af11580156142af573d6000803e3d6000fd5b505050505b8015158273ffffffffffffffffffffffffffffffffffffffff167fffa9187bf1f18bf477bd0ea1bcbb64e93b6a98132473929edfce215cd9b16fab60405160405180910390a35050565b600061430c60008484614c92565b61435d826000808673ffffffffffffffffffffffffffffffffffffffff1673ffffffffffffffffffffffffffffffffffffffff168152602001908152602001600020546135a790919063ffffffff16565b6000808573ffffffffffffffffffffffffffffffffffffffff1673ffffffffffffffffffffffffffffffffffffffff168152602001908152602001600020819055506001905092915050565b600073ffffffffffffffffffffffffffffffffffffffff168373ffffffffffffffffffffffffffffffffffffffff161415614419576040517f08c379a000000000000000000000000000000000000000000000000000000000815260040161441090616071565b60405180910390fd5b600073ffffffffffffffffffffffffffffffffffffffff168273ffffffffffffffffffffffffffffffffffffffff161415614489576040517f08c379a000000000000000000000000000000000000000000000000000000000815260040161448090615e91565b60405180910390fd5b614494838383614c92565b6144ff81604051806060016040528060268152602001616cc0602691396000808773ffffffffffffffffffffffffffffffffffffffff1673ffffffffffffffffffffffffffffffffffffffff168152602001908152602001600020546140d29092919063ffffffff16565b6000808573ffffffffffffffffffffffffffffffffffffffff1673ffffffffffffffffffffffffffffffffffffffff16815260200190815260200160002081905550614592816000808573ffffffffffffffffffffffffffffffffffffffff1673ffffffffffffffffffffffffffffffffffffffff168152602001908152602001600020546135a790919063ffffffff16565b6000808473ffffffffffffffffffffffffffffffffffffffff1673ffffffffffffffffffffffffffffffffffffffff168152602001908152602001600020819055508173ffffffffffffffffffffffffffffffffffffffff168373ffffffffffffffffffffffffffffffffffffffff167fddf252ad1be2c89b69c2b068fc378daa952ba7f163c4a11628f55a4df523b3ef836040516146319190616111565b60405180910390a3505050565b60008083141561465157600090506146b3565b6000828461465f9190616350565b905082848261466e919061631f565b146146ae576040517f08c379a00000000000000000000000000000000000000000000000000000000081526004016146a590616011565b60405180910390fd5b809150505b92915050565b60006146fb83836040518060400160405280601a81526020017f536166654d6174683a206469766973696f6e206279207a65726f000000000000815250614c97565b905092915050565b60007f000000000000000000000000000000000000000000000000000000000000000073ffffffffffffffffffffffffffffffffffffffff166370a08231306040518263ffffffff1660e01b815260040161475e9190615c4e565b60206040518083038186803b15801561477657600080fd5b505afa15801561478a573d6000803e3d6000fd5b505050506040513d601f19601f820116820180604052508101906147ae9190615730565b90506147b982614cfa565b6000614876827f000000000000000000000000000000000000000000000000000000000000000073ffffffffffffffffffffffffffffffffffffffff166370a08231306040518263ffffffff1660e01b81526004016148189190615c4e565b60206040518083038186803b15801561483057600080fd5b505afa158015614844573d6000803e3d6000fd5b505050506040513d601f19601f820116820180604052508101906148689190615730565b614c4890919063ffffffff16565b90507f000000000000000000000000000000000000000000000000000000000000000073ffffffffffffffffffffffffffffffffffffffff1663a9059cbb601260009054906101000a900473ffffffffffffffffffffffffffffffffffffffff16836040518363ffffffff1660e01b81526004016148f5929190615d62565b602060405180830381600087803b15801561490f57600080fd5b505af1158015614923573d6000803e3d6000fd5b505050506040513d601f19601f8201168201806040525081019061494791906156d6565b50505050565b60006149636002836146b990919063ffffffff16565b9050600061497a8284614c4890919063ffffffff16565b9050600047905061498a83614fbb565b600061499f8247614c4890919063ffffffff16565b90506149ab838261520d565b7f17bbfb9a6069321b6ded73bd96327c9e6b7212a5cd51ff219cd61370acafb5618482856040516149de939291906161af565b60405180910390a15050505050565b6149f681614cfa565b60007f000000000000000000000000000000000000000000000000000000000000000073ffffffffffffffffffffffffffffffffffffffff166370a08231306040518263ffffffff1660e01b8152600401614a519190615c4e565b60206040518083038186803b158015614a6957600080fd5b505afa158015614a7d573d6000803e3d6000fd5b505050506040513d601f19601f82011682018060405250810190614aa19190615730565b905060007f000000000000000000000000000000000000000000000000000000000000000073ffffffffffffffffffffffffffffffffffffffff1663a9059cbb600860009054906101000a900473ffffffffffffffffffffffffffffffffffffffff16846040518363ffffffff1660e01b8152600401614b22929190615d62565b602060405180830381600087803b158015614b3c57600080fd5b505af1158015614b50573d6000803e3d6000fd5b505050506040513d601f19601f82011682018060405250810190614b7491906156d6565b90508015614c4357600860009054906101000a900473ffffffffffffffffffffffffffffffffffffffff1673ffffffffffffffffffffffffffffffffffffffff1663ec4be22d836040518263ffffffff1660e01b8152600401614bd79190616111565b600060405180830381600087803b158015614bf157600080fd5b505af1158015614c05573d6000803e3d6000fd5b505050507f80195cc573b02cc48460cbca6e6e4cc85ddb91959d946e1c3025ea3d87942dc38383604051614c3a929190616186565b60405180910390a15b505050565b6000614c8a83836040518060400160405280601e81526020017f536166654d6174683a207375627472616374696f6e206f766572666c6f7700008152506140d2565b905092915050565b505050565b60008083118290614cde576040517f08c379a0000000000000000000000000000000000000000000000000000000008152600401614cd59190615e6f565b60405180910390fd5b5060008385614ced919061631f565b9050809150509392505050565b6000600367ffffffffffffffff811115614d1757614d16616613565b5b604051908082528060200260200182016040528015614d455781602001602082028036833780820191505090505b5090503081600081518110614d5d57614d5c6165e4565b5b602002602001019073ffffffffffffffffffffffffffffffffffffffff16908173ffffffffffffffffffffffffffffffffffffffff1681525050600660009054906101000a900473ffffffffffffffffffffffffffffffffffffffff1673ffffffffffffffffffffffffffffffffffffffff1663ad5c46486040518163ffffffff1660e01b815260040160206040518083038186803b158015614dff57600080fd5b505afa158015614e13573d6000803e3d6000fd5b505050506040513d601f19601f82011682018060405250810190614e379190615426565b81600181518110614e4b57614e4a6165e4565b5b602002602001019073ffffffffffffffffffffffffffffffffffffffff16908173ffffffffffffffffffffffffffffffffffffffff16815250507f000000000000000000000000000000000000000000000000000000000000000081600281518110614eba57614eb96165e4565b5b602002602001019073ffffffffffffffffffffffffffffffffffffffff16908173ffffffffffffffffffffffffffffffffffffffff1681525050614f2130600660009054906101000a900473ffffffffffffffffffffffffffffffffffffffff168461360d565b600660009054906101000a900473ffffffffffffffffffffffffffffffffffffffff1673ffffffffffffffffffffffffffffffffffffffff16635c11d7958360008430426040518663ffffffff1660e01b8152600401614f8595949392919061612c565b600060405180830381600087803b158015614f9f57600080fd5b505af1158015614fb3573d6000803e3d6000fd5b505050505050565b6000600267ffffffffffffffff811115614fd857614fd7616613565b5b6040519080825280602002602001820160405280156150065781602001602082028036833780820191505090505b509050308160008151811061501e5761501d6165e4565b5b602002602001019073ffffffffffffffffffffffffffffffffffffffff16908173ffffffffffffffffffffffffffffffffffffffff1681525050600660009054906101000a900473ffffffffffffffffffffffffffffffffffffffff1673ffffffffffffffffffffffffffffffffffffffff1663ad5c46486040518163ffffffff1660e01b815260040160206040518083038186803b1580156150c057600080fd5b505afa1580156150d4573d6000803e3d6000fd5b505050506040513d601f19601f820116820180604052508101906150f89190615426565b8160018151811061510c5761510b6165e4565b5b602002602001019073ffffffffffffffffffffffffffffffffffffffff16908173ffffffffffffffffffffffffffffffffffffffff168152505061517330600660009054906101000a900473ffffffffffffffffffffffffffffffffffffffff168461360d565b600660009054906101000a900473ffffffffffffffffffffffffffffffffffffffff1673ffffffffffffffffffffffffffffffffffffffff1663791ac9478360008430426040518663ffffffff1660e01b81526004016151d795949392919061612c565b600060405180830381600087803b1580156151f157600080fd5b505af1158015615205573d6000803e3d6000fd5b505050505050565b61523a30600660009054906101000a900473ffffffffffffffffffffffffffffffffffffffff168461360d565b600660009054906101000a900473ffffffffffffffffffffffffffffffffffffffff1673ffffffffffffffffffffffffffffffffffffffff1663f305d7198230856000806000426040518863ffffffff1660e01b81526004016152a296959493929190615d8b565b6060604051808303818588803b1580156152bb57600080fd5b505af11580156152cf573d6000803e3d6000fd5b50505050506040513d601f19601f820116820180604052508101906152f4919061579d565b5050505050565b60008135905061530a81616c4c565b92915050565b60008151905061531f81616c4c565b92915050565b60008135905061533481616c63565b92915050565b60008083601f8401126153505761534f616647565b5b8235905067ffffffffffffffff81111561536d5761536c616642565b5b6020830191508360208202830111156153895761538861664c565b5b9250929050565b60008135905061539f81616c7a565b92915050565b6000815190506153b481616c7a565b92915050565b6000815190506153c981616c91565b92915050565b6000813590506153de81616ca8565b92915050565b6000815190506153f381616ca8565b92915050565b60006020828403121561540f5761540e616656565b5b600061541d848285016152fb565b91505092915050565b60006020828403121561543c5761543b616656565b5b600061544a84828501615310565b91505092915050565b60006020828403121561546957615468616656565b5b600061547784828501615325565b91505092915050565b6000806040838503121561549757615496616656565b5b60006154a5858286016152fb565b92505060206154b6858286016152fb565b9150509250929050565b6000806000606084860312156154d9576154d8616656565b5b60006154e7868287016152fb565b93505060206154f8868287016152fb565b9250506040615509868287016153cf565b9150509250925092565b6000806040838503121561552a57615529616656565b5b6000615538858286016152fb565b925050602061554985828601615390565b9150509250929050565b600080600080600080600080610100898b03121561557457615573616656565b5b60006155828b828c01615310565b98505060206155938b828c016153ba565b97505060406155a48b828c016153ba565b96505060606155b58b828c016153e4565b95505060806155c68b828c016153e4565b94505060a06155d78b828c016153e4565b93505060c06155e88b828c016153e4565b92505060e06155f98b828c016153e4565b9150509295985092959890939650565b600080604083850312156156205761561f616656565b5b600061562e858286016152fb565b925050602061563f858286016153cf565b9150509250929050565b60008060006040848603121561566257615661616656565b5b600084013567ffffffffffffffff8111156156805761567f616651565b5b61568c8682870161533a565b9350935050602061569f86828701615390565b9150509250925092565b6000602082840312156156bf576156be616656565b5b60006156cd84828501615390565b91505092915050565b6000602082840312156156ec576156eb616656565b5b60006156fa848285016153a5565b91505092915050565b60006020828403121561571957615718616656565b5b6000615727848285016153cf565b91505092915050565b60006020828403121561574657615745616656565b5b6000615754848285016153e4565b91505092915050565b6000806040838503121561577457615773616656565b5b6000615782858286016153cf565b9250506020615793858286016152fb565b9150509250929050565b6000806000606084860312156157b6576157b5616656565b5b60006157c4868287016153e4565b93505060206157d5868287016153e4565b92505060406157e6868287016153e4565b9150509250925092565b60006157fc8383615817565b60208301905092915050565b615811816163f0565b82525050565b615820816163de565b82525050565b61582f816163de565b82525050565b60006158418385616290565b935061584c82616246565b8060005b858110156158855761586282846162b2565b61586c88826157f0565b975061587783616276565b925050600181019050615850565b5085925050509392505050565b600061589d82616260565b6158a78185616290565b93506158b283616250565b8060005b838110156158e35781516158ca88826157f0565b97506158d583616283565b9250506001810190506158b6565b5085935050505092915050565b6158f981616402565b82525050565b6159088161644f565b82525050565b61591781616461565b82525050565b6159268161640e565b82525050565b61593581616473565b82525050565b60006159468261626b565b61595081856162a1565b93506159608185602086016164a9565b6159698161665b565b840191505092915050565b60006159816023836162a1565b915061598c8261666c565b604082019050919050565b60006159a4603f836162a1565b91506159af826166bb565b604082019050919050565b60006159c76026836162a1565b91506159d28261670a565b604082019050919050565b60006159ea6022836162a1565b91506159f582616759565b604082019050919050565b6000615a0d601b836162a1565b9150615a18826167a8565b602082019050919050565b6000615a30602a836162a1565b9150615a3b826167d1565b604082019050919050565b6000615a53603b836162a1565b9150615a5e82616820565b604082019050919050565b6000615a76602c836162a1565b9150615a818261686f565b604082019050919050565b6000615a996028836162a1565b9150615aa4826168be565b604082019050919050565b6000615abc6034836162a1565b9150615ac78261690d565b604082019050919050565b6000615adf604c836162a1565b9150615aea8261695c565b606082019050919050565b6000615b026031836162a1565b9150615b0d826169d1565b604082019050919050565b6000615b256021836162a1565b9150615b3082616a20565b604082019050919050565b6000615b486020836162a1565b9150615b5382616a6f565b602082019050919050565b6000615b6b600f836162a1565b9150615b7682616a98565b602082019050919050565b6000615b8e6025836162a1565b9150615b9982616ac1565b604082019050919050565b6000615bb16024836162a1565b9150615bbc82616b10565b604082019050919050565b6000615bd46049836162a1565b9150615bdf82616b5f565b606082019050919050565b6000615bf76013836162a1565b9150615c0282616bd4565b602082019050919050565b6000615c1a6033836162a1565b9150615c2582616bfd565b604082019050919050565b615c3981616438565b82525050565b615c4881616442565b82525050565b6000602082019050615c636000830184615826565b92915050565b6000604082019050615c7e6000830185615808565b615c8b60208301846158f0565b9392505050565b6000604082019050615ca76000830185615808565b615cb46020830184615c30565b9392505050565b6000604082019050615cd06000830185615826565b615cdd6020830184615826565b9392505050565b600061010082019050615cfa600083018b615826565b615d07602083018a61591d565b615d14604083018961591d565b615d216060830188615c30565b615d2e6080830187615c30565b615d3b60a0830186615c30565b615d4860c0830185615c30565b615d5560e0830184615c30565b9998505050505050505050565b6000604082019050615d776000830185615826565b615d846020830184615c30565b9392505050565b600060c082019050615da06000830189615826565b615dad6020830188615c30565b615dba604083018761592c565b615dc7606083018661592c565b615dd46080830185615826565b615de160a0830184615c30565b979650505050505050565b60006040820190508181036000830152615e07818587615835565b9050615e1660208301846158f0565b949350505050565b6000602082019050615e3360008301846158f0565b92915050565b6000602082019050615e4e60008301846158ff565b92915050565b6000602082019050615e69600083018461590e565b92915050565b60006020820190508181036000830152615e89818461593b565b905092915050565b60006020820190508181036000830152615eaa81615974565b9050919050565b60006020820190508181036000830152615eca81615997565b9050919050565b60006020820190508181036000830152615eea816159ba565b9050919050565b60006020820190508181036000830152615f0a816159dd565b9050919050565b60006020820190508181036000830152615f2a81615a00565b9050919050565b60006020820190508181036000830152615f4a81615a23565b9050919050565b60006020820190508181036000830152615f6a81615a46565b9050919050565b60006020820190508181036000830152615f8a81615a69565b9050919050565b60006020820190508181036000830152615faa81615a8c565b9050919050565b60006020820190508181036000830152615fca81615aaf565b9050919050565b60006020820190508181036000830152615fea81615ad2565b9050919050565b6000602082019050818103600083015261600a81615af5565b9050919050565b6000602082019050818103600083015261602a81615b18565b9050919050565b6000602082019050818103600083015261604a81615b3b565b9050919050565b6000602082019050818103600083015261606a81615b5e565b9050919050565b6000602082019050818103600083015261608a81615b81565b9050919050565b600060208201905081810360008301526160aa81615ba4565b9050919050565b600060208201905081810360008301526160ca81615bc7565b9050919050565b600060208201905081810360008301526160ea81615bea565b9050919050565b6000602082019050818103600083015261610a81615c0d565b9050919050565b60006020820190506161266000830184615c30565b92915050565b600060a0820190506161416000830188615c30565b61614e602083018761592c565b81810360408301526161608186615892565b905061616f6060830185615826565b61617c6080830184615c30565b9695505050505050565b600060408201905061619b6000830185615c30565b6161a86020830184615c30565b9392505050565b60006060820190506161c46000830186615c30565b6161d16020830185615c30565b6161de6040830184615c30565b949350505050565b60006080820190506161fb6000830187615c30565b6162086020830186615c30565b6162156040830185615c30565b6162226060830184615c30565b95945050505050565b60006020820190506162406000830184615c3f565b92915050565b6000819050919050565b6000819050602082019050919050565b600081519050919050565b600081519050919050565b6000602082019050919050565b6000602082019050919050565b600082825260208201905092915050565b600082825260208201905092915050565b60006162c160208401846152fb565b905092915050565b60006162d482616438565b91506162df83616438565b9250827fffffffffffffffffffffffffffffffffffffffffffffffffffffffffffffffff0382111561631457616313616557565b5b828201905092915050565b600061632a82616438565b915061633583616438565b92508261634557616344616586565b5b828204905092915050565b600061635b82616438565b915061636683616438565b9250817fffffffffffffffffffffffffffffffffffffffffffffffffffffffffffffffff048311821515161561639f5761639e616557565b5b828202905092915050565b60006163b582616438565b91506163c083616438565b9250828210156163d3576163d2616557565b5b828203905092915050565b60006163e982616418565b9050919050565b60006163fb82616418565b9050919050565b60008115159050919050565b6000819050919050565b600073ffffffffffffffffffffffffffffffffffffffff82169050919050565b6000819050919050565b600060ff82169050919050565b600061645a82616485565b9050919050565b600061646c82616485565b9050919050565b600061647e82616438565b9050919050565b600061649082616497565b9050919050565b60006164a282616418565b9050919050565b60005b838110156164c75780820151818401526020810190506164ac565b838111156164d6576000848401525b50505050565b600060028204905060018216806164f457607f821691505b60208210811415616508576165076165b5565b5b50919050565b600061651982616438565b91507fffffffffffffffffffffffffffffffffffffffffffffffffffffffffffffffff82141561654c5761654b616557565b5b600182019050919050565b7f4e487b7100000000000000000000000000000000000000000000000000000000600052601160045260246000fd5b7f4e487b7100000000000000000000000000000000000000000000000000000000600052601260045260246000fd5b7f4e487b7100000000000000000000000000000000000000000000000000000000600052602260045260246000fd5b7f4e487b7100000000000000000000000000000000000000000000000000000000600052603260045260246000fd5b7f4e487b7100000000000000000000000000000000000000000000000000000000600052604160045260246000fd5b600080fd5b600080fd5b600080fd5b600080fd5b600080fd5b6000601f19601f8301169050919050565b7f45524332303a207472616e7366657220746f20746865207a65726f206164647260008201527f6573730000000000000000000000000000000000000000000000000000000000602082015250565b7f50534849423a204175746f6d61746564206d61726b6574206d616b657220706160008201527f697220697320616c72656164792073657420746f20746861742076616c756500602082015250565b7f4f776e61626c653a206e6577206f776e657220697320746865207a65726f206160008201527f6464726573730000000000000000000000000000000000000000000000000000602082015250565b7f45524332303a20617070726f766520746f20746865207a65726f20616464726560008201527f7373000000000000000000000000000000000000000000000000000000000000602082015250565b7f536166654d6174683a206164646974696f6e206f766572666c6f770000000000600082015250565b7f50534849423a2054686520726f7574657220616c72656164792068617320746860008201527f6174206164647265737300000000000000000000000000000000000000000000602082015250565b7f50534849423a20676173466f7250726f63657373696e67206d7573742062652060008201527f6265747765656e203230302c30303020616e64203530302c3030300000000000602082015250565b7f50534849423a2043616e6e6f742075706461746520436c61696d57616974207460008201527f6f2073616d652076616c75650000000000000000000000000000000000000000602082015250565b7f5472616e7366657220616d6f756e74206578636565647320746865206d61785460008201527f78416d6f756e742e000000000000000000000000000000000000000000000000602082015250565b7f50534849423a20546865206469766964656e6420747261636b657220616c726560008201527f6164792068617320746861742061646472657373000000000000000000000000602082015250565b7f50534849423a205468652050616e63616b655377617020706169722063616e6e60008201527f6f742062652072656d6f7665642066726f6d206175746f6d617465644d61726b60208201527f65744d616b657250616972730000000000000000000000000000000000000000604082015250565b7f50534849423a204163636f756e7420697320616c72656164792074686520766160008201527f6c7565206f6620276578636c7564656427000000000000000000000000000000602082015250565b7f536166654d6174683a206d756c7469706c69636174696f6e206f766572666c6f60008201527f7700000000000000000000000000000000000000000000000000000000000000602082015250565b7f4f776e61626c653a2063616c6c6572206973206e6f7420746865206f776e6572600082015250565b7f4e6565642073746172742073616c650000000000000000000000000000000000600082015250565b7f45524332303a207472616e736665722066726f6d20746865207a65726f20616460008201527f6472657373000000000000000000000000000000000000000000000000000000602082015250565b7f45524332303a20617070726f76652066726f6d20746865207a65726f2061646460008201527f7265737300000000000000000000000000000000000000000000000000000000602082015250565b7f50534849423a20546865206e6577206469766964656e6420747261636b65722060008201527f6d757374206265206f776e65642062792074686520505348494220746f6b656e60208201527f20636f6e74726163740000000000000000000000000000000000000000000000604082015250565b7f45524332303a20496e20626c61636b6c69737400000000000000000000000000600082015250565b7f50534849423a2043616e6e6f742075706461746520676173466f7250726f636560008201527f7373696e6720746f2073616d652076616c756500000000000000000000000000602082015250565b616c55816163de565b8114616c6057600080fd5b50565b616c6c816163f0565b8114616c7757600080fd5b50565b616c8381616402565b8114616c8e57600080fd5b50565b616c9a8161640e565b8114616ca557600080fd5b50565b616cb181616438565b8114616cbc57600080fd5b5056fe45524332303a207472616e7366657220616d6f756e7420657863656564732062616c616e636545524332303a207472616e7366657220616d6f756e74206578636565647320616c6c6f77616e636545524332303a2064656372656173656420616c6c6f77616e63652062656c6f77207a65726fa26469706673582212205494d310c63ed1cd754801368eceefe82c9a0d0b70d9a288e9448fb9c7f1c73c64736f6c6343000807003360c0604052732859e4544c4bb03966803b044a93563bd2d0dd4d73ffffffffffffffffffffffffffffffffffffffff1660809073ffffffffffffffffffffffffffffffffffffffff1660601b8152503480156200005b57600080fd5b506040518060400160405280601581526020017f50534849425f4469766964656e5f547261636b657200000000000000000000008152506040518060400160405280601681526020017f50534849425f4469766964656e645f547261636b65720000000000000000000081525081818160039080519060200190620000e2929190620001dd565b508060049080519060200190620000fb929190620001dd565b505050600062000110620001d560201b60201c565b905080600560006101000a81548173ffffffffffffffffffffffffffffffffffffffff021916908373ffffffffffffffffffffffffffffffffffffffff1602179055508073ffffffffffffffffffffffffffffffffffffffff16600073ffffffffffffffffffffffffffffffffffffffff167f8be0079c531659141344cd1fd0a4f28419497f9722a3daafe3b4186f6b6457e060405160405180910390a3505050610e106011819055506c193e5939a08ce9dbd48000000060a08181525050620002f2565b600033905090565b828054620001eb906200028d565b90600052602060002090601f0160209004810192826200020f57600085556200025b565b82601f106200022a57805160ff19168380011785556200025b565b828001600101855582156200025b579182015b828111156200025a5782518255916020019190600101906200023d565b5b5090506200026a91906200026e565b5090565b5b80821115620002895760008160009055506001016200026f565b5090565b60006002820490506001821680620002a657607f821691505b60208210811415620002bd57620002bc620002c3565b5b50919050565b7f4e487b7100000000000000000000000000000000000000000000000000000000600052602260045260246000fd5b60805160601c60a051613db062000329600039600081816113ef01526115ac01526000818161149a015261248d0152613db06000f3fe608060405234801561001057600080fd5b506004361061021c5760003560e01c80638da5cb5b11610125578063dd62ed3e116100ad578063e98030c71161007c578063e98030c7146106ac578063ec4be22d146106c8578063f2fde38b146106e4578063fbcbc0f114610700578063ffb2c479146107375761021c565b8063dd62ed3e14610624578063e24b85e714610654578063e30443bc14610672578063e7841ec01461068e5761021c565b8063a8b9d240116100f4578063a8b9d24014610546578063a9059cbb14610576578063aafd847a146105a6578063bc4c4b37146105d6578063be10b614146106065761021c565b80638da5cb5b146104aa57806391b89fba146104c857806395d89b41146104f8578063a457c2d7146105165761021c565b806331e79db0116101a85780636a474002116101775780636a4740021461042a5780636f2789ec1461043457806370a0823114610452578063715018a61461048257806385a6b3ae1461048c5761021c565b806331e79db01461037757806339509351146103935780634e7b827f146103c35780635183d6fd146103f35761021c565b8063226cfa3d116101ef578063226cfa3d146102ab57806323b872dd146102db57806327ce01471461030b5780633009a6091461033b578063313ce567146103595761021c565b806306fdde0314610221578063095ea7b31461023f57806309bbedde1461026f57806318160ddd1461028d575b600080fd5b610229610769565b6040516102369190613188565b60405180910390f35b61025960048036038101906102549190612d4c565b6107fb565b604051610266919061316d565b60405180910390f35b610277610819565b60405161028491906133f7565b60405180910390f35b610295610829565b6040516102a291906133f7565b60405180910390f35b6102c560048036038101906102c09190612bdf565b610833565b6040516102d291906133f7565b60405180910390f35b6102f560048036038101906102f09190612cf9565b61084b565b604051610302919061316d565b60405180910390f35b61032560048036038101906103209190612bdf565b610924565b60405161033291906133f7565b60405180910390f35b6103436109c7565b60405161035091906133f7565b60405180910390f35b6103616109cd565b60405161036e9190613449565b60405180910390f35b610391600480360381019061038c9190612bdf565b6109d6565b005b6103ad60048036038101906103a89190612d4c565b610bd9565b6040516103ba919061316d565b60405180910390f35b6103dd60048036038101906103d89190612bdf565b610c8c565b6040516103ea919061316d565b60405180910390f35b61040d60048036038101906104089190612de6565b610cac565b6040516104219897969594939291906130ef565b60405180910390f35b610432610e3f565b005b61043c610e82565b60405161044991906133f7565b60405180910390f35b61046c60048036038101906104679190612bdf565b610e88565b60405161047991906133f7565b60405180910390f35b61048a610ed0565b005b610494611028565b6040516104a191906133f7565b60405180910390f35b6104b261102e565b6040516104bf91906130ab565b60405180910390f35b6104e260048036038101906104dd9190612bdf565b611058565b6040516104ef91906133f7565b60405180910390f35b61050061106a565b60405161050d9190613188565b60405180910390f35b610530600480360381019061052b9190612d4c565b6110fc565b60405161053d919061316d565b60405180910390f35b610560600480360381019061055b9190612bdf565b6111c9565b60405161056d91906133f7565b60405180910390f35b610590600480360381019061058b9190612d4c565b61122c565b60405161059d919061316d565b60405180910390f35b6105c060048036038101906105bb9190612bdf565b61124a565b6040516105cd91906133f7565b60405180910390f35b6105f060048036038101906105eb9190612c39565b611293565b6040516105fd919061316d565b60405180910390f35b61060e6113ed565b60405161061b91906133f7565b60405180910390f35b61063e60048036038101906106399190612cb9565b611411565b60405161064b91906133f7565b60405180910390f35b61065c611498565b60405161066991906130ab565b60405180910390f35b61068c60048036038101906106879190612c79565b6114bc565b005b6106966116d7565b6040516106a391906133f7565b60405180910390f35b6106c660048036038101906106c19190612de6565b6116e1565b005b6106e260048036038101906106dd9190612de6565b61184b565b005b6106fe60048036038101906106f99190612bdf565b6119bc565b005b61071a60048036038101906107159190612bdf565b611b83565b60405161072e9897969594939291906130ef565b60405180910390f35b610751600480360381019061074c9190612de6565b611d71565b60405161076093929190613412565b60405180910390f35b60606003805461077890613797565b80601f01602080910402602001604051908101604052809291908181526020018280546107a490613797565b80156107f15780601f106107c6576101008083540402835291602001916107f1565b820191906000526020600020905b8154815290600101906020018083116107d457829003601f168201915b5050505050905090565b600061080f610808611f03565b8484611f0b565b6001905092915050565b6000600a60000180549050905090565b6000600254905090565b60106020528060005260406000206000915090505481565b60006108588484846120d6565b61091984610864611f03565b61091485604051806060016040528060288152602001613d2e60289139600160008b73ffffffffffffffffffffffffffffffffffffffff1673ffffffffffffffffffffffffffffffffffffffff16815260200190815260200160002060006108ca611f03565b73ffffffffffffffffffffffffffffffffffffffff1673ffffffffffffffffffffffffffffffffffffffff1681526020019081526020016000205461211c9092919063ffffffff16565b611f0b565b600190509392505050565b60007001000000000000000000000000000000006109b66109b1600760008673ffffffffffffffffffffffffffffffffffffffff1673ffffffffffffffffffffffffffffffffffffffff168152602001908152602001600020546109a361099e61098d88610e88565b60065461218090919063ffffffff16565b6121fb565b61221890919063ffffffff16565b612263565b6109c0919061356a565b9050919050565b600e5481565b60006012905090565b6109de611f03565b73ffffffffffffffffffffffffffffffffffffffff16600560009054906101000a900473ffffffffffffffffffffffffffffffffffffffff1673ffffffffffffffffffffffffffffffffffffffff1614610a6d576040517f08c379a0000000000000000000000000000000000000000000000000000000008152600401610a649061328a565b60405180910390fd5b600f60008273ffffffffffffffffffffffffffffffffffffffff1673ffffffffffffffffffffffffffffffffffffffff16815260200190815260200160002060009054906101000a900460ff1615610ac457600080fd5b6001600f60008373ffffffffffffffffffffffffffffffffffffffff1673ffffffffffffffffffffffffffffffffffffffff16815260200190815260200160002060006101000a81548160ff021916908315150217905550610b2781600061227a565b600a73__$bec2f33bc8cb9dcbb654427b9d41ecdae6$__634c60db9c9091836040518363ffffffff1660e01b8152600401610b63929190613345565b60006040518083038186803b158015610b7b57600080fd5b505af4158015610b8f573d6000803e3d6000fd5b505050508073ffffffffffffffffffffffffffffffffffffffff167fa878b31040b2e6d0a9a3d3361209db3908ba62014b0dca52adbaee451d128b2560405160405180910390a250565b6000610c82610be6611f03565b84610c7d8560016000610bf7611f03565b73ffffffffffffffffffffffffffffffffffffffff1673ffffffffffffffffffffffffffffffffffffffff16815260200190815260200160002060008973ffffffffffffffffffffffffffffffffffffffff1673ffffffffffffffffffffffffffffffffffffffff168152602001908152602001600020546122e790919063ffffffff16565b611f0b565b6001905092915050565b600f6020528060005260406000206000915054906101000a900460ff1681565b600080600080600080600080600a73__$bec2f33bc8cb9dcbb654427b9d41ecdae6$__63deb3d89690916040518263ffffffff1660e01b8152600401610cf2919061332a565b60206040518083038186803b158015610d0a57600080fd5b505af4158015610d1e573d6000803e3d6000fd5b505050506040513d601f19601f82011682018060405250810190610d429190612e13565b8910610d895760007fffffffffffffffffffffffffffffffffffffffffffffffffffffffffffffffff80600080600080600097509750975097509750975097509750610e34565b6000600a73__$bec2f33bc8cb9dcbb654427b9d41ecdae6$__63d1aa9e7e90918c6040518363ffffffff1660e01b8152600401610dc79291906133ce565b60206040518083038186803b158015610ddf57600080fd5b505af4158015610df3573d6000803e3d6000fd5b505050506040513d601f19601f82011682018060405250810190610e179190612c0c565b9050610e2281611b83565b98509850985098509850985098509850505b919395975091939597565b6000610e80576040517f08c379a0000000000000000000000000000000000000000000000000000000008152600401610e779061324a565b60405180910390fd5b565b60115481565b60008060008373ffffffffffffffffffffffffffffffffffffffff1673ffffffffffffffffffffffffffffffffffffffff168152602001908152602001600020549050919050565b610ed8611f03565b73ffffffffffffffffffffffffffffffffffffffff16600560009054906101000a900473ffffffffffffffffffffffffffffffffffffffff1673ffffffffffffffffffffffffffffffffffffffff1614610f67576040517f08c379a0000000000000000000000000000000000000000000000000000000008152600401610f5e9061328a565b60405180910390fd5b600073ffffffffffffffffffffffffffffffffffffffff16600560009054906101000a900473ffffffffffffffffffffffffffffffffffffffff1673ffffffffffffffffffffffffffffffffffffffff167f8be0079c531659141344cd1fd0a4f28419497f9722a3daafe3b4186f6b6457e060405160405180910390a36000600560006101000a81548173ffffffffffffffffffffffffffffffffffffffff021916908373ffffffffffffffffffffffffffffffffffffffff160217905550565b60095481565b6000600560009054906101000a900473ffffffffffffffffffffffffffffffffffffffff16905090565b6000611063826111c9565b9050919050565b60606004805461107990613797565b80601f01602080910402602001604051908101604052809291908181526020018280546110a590613797565b80156110f25780601f106110c7576101008083540402835291602001916110f2565b820191906000526020600020905b8154815290600101906020018083116110d557829003601f168201915b5050505050905090565b60006111bf611109611f03565b846111ba85604051806060016040528060258152602001613d566025913960016000611133611f03565b73ffffffffffffffffffffffffffffffffffffffff1673ffffffffffffffffffffffffffffffffffffffff16815260200190815260200160002060008a73ffffffffffffffffffffffffffffffffffffffff1673ffffffffffffffffffffffffffffffffffffffff1681526020019081526020016000205461211c9092919063ffffffff16565b611f0b565b6001905092915050565b6000611225600860008473ffffffffffffffffffffffffffffffffffffffff1673ffffffffffffffffffffffffffffffffffffffff1681526020019081526020016000205461121784610924565b61234590919063ffffffff16565b9050919050565b6000611240611239611f03565b84846120d6565b6001905092915050565b6000600860008373ffffffffffffffffffffffffffffffffffffffff1673ffffffffffffffffffffffffffffffffffffffff168152602001908152602001600020549050919050565b600061129d611f03565b73ffffffffffffffffffffffffffffffffffffffff16600560009054906101000a900473ffffffffffffffffffffffffffffffffffffffff1673ffffffffffffffffffffffffffffffffffffffff161461132c576040517f08c379a00000000000000000000000000000000000000000000000000000000081526004016113239061328a565b60405180910390fd5b60006113378461238f565b905060008111156113e15742601060008673ffffffffffffffffffffffffffffffffffffffff1673ffffffffffffffffffffffffffffffffffffffff168152602001908152602001600020819055508215158473ffffffffffffffffffffffffffffffffffffffff167fa2c38e2d2fb7e3e1912d937fd1ca11ed6d51864dee4cfa7a7bf02becd7acf092836040516113cf91906133f7565b60405180910390a360019150506113e7565b60009150505b92915050565b7f000000000000000000000000000000000000000000000000000000000000000081565b6000600160008473ffffffffffffffffffffffffffffffffffffffff1673ffffffffffffffffffffffffffffffffffffffff16815260200190815260200160002060008373ffffffffffffffffffffffffffffffffffffffff1673ffffffffffffffffffffffffffffffffffffffff16815260200190815260200160002054905092915050565b7f000000000000000000000000000000000000000000000000000000000000000081565b6114c4611f03565b73ffffffffffffffffffffffffffffffffffffffff16600560009054906101000a900473ffffffffffffffffffffffffffffffffffffffff1673ffffffffffffffffffffffffffffffffffffffff1614611553576040517f08c379a000000000000000000000000000000000000000000000000000000000815260040161154a9061328a565b60405180910390fd5b600f60008373ffffffffffffffffffffffffffffffffffffffff1673ffffffffffffffffffffffffffffffffffffffff16815260200190815260200160002060009054906101000a900460ff16156115aa576116d3565b7f0000000000000000000000000000000000000000000000000000000000000000811061164e576115db828261227a565b600a73__$bec2f33bc8cb9dcbb654427b9d41ecdae6$__63bc2b405c909184846040518463ffffffff1660e01b815260040161161993929190613397565b60006040518083038186803b15801561163157600080fd5b505af4158015611645573d6000803e3d6000fd5b505050506116c6565b61165982600061227a565b600a73__$bec2f33bc8cb9dcbb654427b9d41ecdae6$__634c60db9c9091846040518363ffffffff1660e01b815260040161169592919061336e565b60006040518083038186803b1580156116ad57600080fd5b505af41580156116c1573d6000803e3d6000fd5b505050505b6116d1826001611293565b505b5050565b6000600e54905090565b6116e9611f03565b73ffffffffffffffffffffffffffffffffffffffff16600560009054906101000a900473ffffffffffffffffffffffffffffffffffffffff1673ffffffffffffffffffffffffffffffffffffffff1614611778576040517f08c379a000000000000000000000000000000000000000000000000000000000815260040161176f9061328a565b60405180910390fd5b610e10811015801561178d5750620151808111155b6117cc576040517f08c379a00000000000000000000000000000000000000000000000000000000081526004016117c3906131aa565b60405180910390fd5b601154811415611811576040517f08c379a00000000000000000000000000000000000000000000000000000000081526004016118089061322a565b60405180910390fd5b601154817f474ea64804364a1e29a4487ddb63c3342a2dd826ccd8acf48825e680a0e6f20f60405160405180910390a38060118190555050565b611853611f03565b73ffffffffffffffffffffffffffffffffffffffff16600560009054906101000a900473ffffffffffffffffffffffffffffffffffffffff1673ffffffffffffffffffffffffffffffffffffffff16146118e2576040517f08c379a00000000000000000000000000000000000000000000000000000000081526004016118d99061328a565b60405180910390fd5b60006118ec610829565b116118f657600080fd5b60008111156119b95761194961190a610829565b61192e7001000000000000000000000000000000008461218090919063ffffffff16565b611938919061356a565b6006546122e790919063ffffffff16565b6006819055503373ffffffffffffffffffffffffffffffffffffffff167fa493a9229478c3fcd73f66d2cdeb7f94fd0f341da924d1054236d784541165118260405161199591906133f7565b60405180910390a26119b2816009546122e790919063ffffffff16565b6009819055505b50565b6119c4611f03565b73ffffffffffffffffffffffffffffffffffffffff16600560009054906101000a900473ffffffffffffffffffffffffffffffffffffffff1673ffffffffffffffffffffffffffffffffffffffff1614611a53576040517f08c379a0000000000000000000000000000000000000000000000000000000008152600401611a4a9061328a565b60405180910390fd5b600073ffffffffffffffffffffffffffffffffffffffff168173ffffffffffffffffffffffffffffffffffffffff161415611ac3576040517f08c379a0000000000000000000000000000000000000000000000000000000008152600401611aba906131ca565b60405180910390fd5b8073ffffffffffffffffffffffffffffffffffffffff16600560009054906101000a900473ffffffffffffffffffffffffffffffffffffffff1673ffffffffffffffffffffffffffffffffffffffff167f8be0079c531659141344cd1fd0a4f28419497f9722a3daafe3b4186f6b6457e060405160405180910390a380600560006101000a81548173ffffffffffffffffffffffffffffffffffffffff021916908373ffffffffffffffffffffffffffffffffffffffff16021790555050565b600080600080600080600080889750600a73__$bec2f33bc8cb9dcbb654427b9d41ecdae6$__6317e142d190918a6040518363ffffffff1660e01b8152600401611bce929190613345565b60206040518083038186803b158015611be657600080fd5b505af4158015611bfa573d6000803e3d6000fd5b505050506040513d601f19601f82011682018060405250810190611c1e9190612db9565b96507fffffffffffffffffffffffffffffffffffffffffffffffffffffffffffffffff955060008712611cc357600e54871115611c7157611c6a600e54886125f490919063ffffffff16565b9550611cc2565b6000600e54600a6000018054905011611c8b576000611ca9565b611ca8600e54600a6000018054905061234590919063ffffffff16565b5b9050611cbe818961221890919063ffffffff16565b9650505b5b611ccc886111c9565b9450611cd788610924565b9350601060008973ffffffffffffffffffffffffffffffffffffffff1673ffffffffffffffffffffffffffffffffffffffff16815260200190815260200160002054925060008311611d2a576000611d40565b611d3f601154846122e790919063ffffffff16565b5b9150428211611d50576000611d64565b611d63428361234590919063ffffffff16565b5b9050919395975091939597565b600080600080600a6000018054905090506000811415611d9d57600080600e5493509350935050611efc565b6000600e5490506000805a90506000805b8984108015611dbc57508582105b15611ee3578480611dcc906137c9565b955050600a600001805490508510611de357600094505b6000600a6000018681548110611dfc57611dfb61389f565b5b9060005260206000200160009054906101000a900473ffffffffffffffffffffffffffffffffffffffff169050611e71601060008373ffffffffffffffffffffffffffffffffffffffff1673ffffffffffffffffffffffffffffffffffffffff1681526020019081526020016000205461263f565b15611e9657611e81816001611293565b15611e95578180611e91906137c9565b9250505b5b8280611ea1906137c9565b93505060005a905080851115611ed957611ed6611ec7828761234590919063ffffffff16565b876122e790919063ffffffff16565b95505b8094505050611dae565b84600e819055508181600e549850985098505050505050505b9193909250565b600033905090565b600073ffffffffffffffffffffffffffffffffffffffff168373ffffffffffffffffffffffffffffffffffffffff161415611f7b576040517f08c379a0000000000000000000000000000000000000000000000000000000008152600401611f72906132ca565b60405180910390fd5b600073ffffffffffffffffffffffffffffffffffffffff168273ffffffffffffffffffffffffffffffffffffffff161415611feb576040517f08c379a0000000000000000000000000000000000000000000000000000000008152600401611fe2906131ea565b60405180910390fd5b80600160008573ffffffffffffffffffffffffffffffffffffffff1673ffffffffffffffffffffffffffffffffffffffff16815260200190815260200160002060008473ffffffffffffffffffffffffffffffffffffffff1673ffffffffffffffffffffffffffffffffffffffff168152602001908152602001600020819055508173ffffffffffffffffffffffffffffffffffffffff168373ffffffffffffffffffffffffffffffffffffffff167f8c5be1e5ebec7d5bd14f71427d1e84f3dd0314c0f7b2291e5b200ac8c7c3b925836040516120c991906133f7565b60405180910390a3505050565b6000612117576040517f08c379a000000000000000000000000000000000000000000000000000000000815260040161210e906132ea565b60405180910390fd5b505050565b6000838311158290612164576040517f08c379a000000000000000000000000000000000000000000000000000000000815260040161215b9190613188565b60405180910390fd5b50600083856121739190613689565b9050809150509392505050565b60008083141561219357600090506121f5565b600082846121a1919061359b565b90508284826121b0919061356a565b146121f0576040517f08c379a00000000000000000000000000000000000000000000000000000000081526004016121e79061326a565b60405180910390fd5b809150505b92915050565b600080829050600081121561220f57600080fd5b80915050919050565b60008082846122279190613480565b90506000831215801561223a5750838112155b80612250575060008312801561224f57508381125b5b61225957600080fd5b8091505092915050565b60008082121561227257600080fd5b819050919050565b600061228583610e88565b9050808211156122b65760006122a4828461234590919063ffffffff16565b90506122b08482612672565b506122e2565b808210156122e15760006122d3838361234590919063ffffffff16565b90506122df8482612731565b505b5b505050565b60008082846122f69190613514565b90508381101561233b576040517f08c379a00000000000000000000000000000000000000000000000000000000081526004016123329061320a565b60405180910390fd5b8091505092915050565b600061238783836040518060400160405280601e81526020017f536166654d6174683a207375627472616374696f6e206f766572666c6f77000081525061211c565b905092915050565b60008061239b836111c9565b905060008111156125e9576123f881600860008673ffffffffffffffffffffffffffffffffffffffff1673ffffffffffffffffffffffffffffffffffffffff168152602001908152602001600020546122e790919063ffffffff16565b600860008573ffffffffffffffffffffffffffffffffffffffff1673ffffffffffffffffffffffffffffffffffffffff168152602001908152602001600020819055508273ffffffffffffffffffffffffffffffffffffffff167fee503bee2bb6a87e57bc57db795f98137327401a0e7b7ce42e37926cc1a9ca4d8260405161248191906133f7565b60405180910390a260007f000000000000000000000000000000000000000000000000000000000000000073ffffffffffffffffffffffffffffffffffffffff1663a9059cbb85846040518363ffffffff1660e01b81526004016124e69291906130c6565b602060405180830381600087803b15801561250057600080fd5b505af1158015612514573d6000803e3d6000fd5b505050506040513d601f19601f820116820180604052508101906125389190612d8c565b9050806125df5761259182600860008773ffffffffffffffffffffffffffffffffffffffff1673ffffffffffffffffffffffffffffffffffffffff1681526020019081526020016000205461234590919063ffffffff16565b600860008673ffffffffffffffffffffffffffffffffffffffff1673ffffffffffffffffffffffffffffffffffffffff168152602001908152602001600020819055506000925050506125ef565b81925050506125ef565b60009150505b919050565b600080828461260391906135f5565b9050600083121580156126165750838113155b8061262c575060008312801561262b57508381135b5b61263557600080fd5b8091505092915050565b600042821115612652576000905061266d565b601154612668834261234590919063ffffffff16565b101590505b919050565b61267c82826127f0565b6126ea61269c6126978360065461218090919063ffffffff16565b6121fb565b600760008573ffffffffffffffffffffffffffffffffffffffff1673ffffffffffffffffffffffffffffffffffffffff168152602001908152602001600020546125f490919063ffffffff16565b600760008473ffffffffffffffffffffffffffffffffffffffff1673ffffffffffffffffffffffffffffffffffffffff168152602001908152602001600020819055505050565b61273b8282612984565b6127a961275b6127568360065461218090919063ffffffff16565b6121fb565b600760008573ffffffffffffffffffffffffffffffffffffffff1673ffffffffffffffffffffffffffffffffffffffff1681526020019081526020016000205461221890919063ffffffff16565b600760008473ffffffffffffffffffffffffffffffffffffffff1673ffffffffffffffffffffffffffffffffffffffff168152602001908152602001600020819055505050565b600073ffffffffffffffffffffffffffffffffffffffff168273ffffffffffffffffffffffffffffffffffffffff161415612860576040517f08c379a00000000000000000000000000000000000000000000000000000000081526004016128579061330a565b60405180910390fd5b61286c60008383612b32565b612881816002546122e790919063ffffffff16565b6002819055506128d8816000808573ffffffffffffffffffffffffffffffffffffffff1673ffffffffffffffffffffffffffffffffffffffff168152602001908152602001600020546122e790919063ffffffff16565b6000808473ffffffffffffffffffffffffffffffffffffffff1673ffffffffffffffffffffffffffffffffffffffff168152602001908152602001600020819055508173ffffffffffffffffffffffffffffffffffffffff16600073ffffffffffffffffffffffffffffffffffffffff167fddf252ad1be2c89b69c2b068fc378daa952ba7f163c4a11628f55a4df523b3ef8360405161297891906133f7565b60405180910390a35050565b600073ffffffffffffffffffffffffffffffffffffffff168273ffffffffffffffffffffffffffffffffffffffff1614156129f4576040517f08c379a00000000000000000000000000000000000000000000000000000000081526004016129eb906132aa565b60405180910390fd5b612a0082600083612b32565b612a6b81604051806060016040528060228152602001613d0c602291396000808673ffffffffffffffffffffffffffffffffffffffff1673ffffffffffffffffffffffffffffffffffffffff1681526020019081526020016000205461211c9092919063ffffffff16565b6000808473ffffffffffffffffffffffffffffffffffffffff1673ffffffffffffffffffffffffffffffffffffffff16815260200190815260200160002081905550612ac28160025461234590919063ffffffff16565b600281905550600073ffffffffffffffffffffffffffffffffffffffff168273ffffffffffffffffffffffffffffffffffffffff167fddf252ad1be2c89b69c2b068fc378daa952ba7f163c4a11628f55a4df523b3ef83604051612b2691906133f7565b60405180910390a35050565b505050565b600081359050612b4681613c98565b92915050565b600081519050612b5b81613c98565b92915050565b600081359050612b7081613caf565b92915050565b600081359050612b8581613cc6565b92915050565b600081519050612b9a81613cc6565b92915050565b600081519050612baf81613cdd565b92915050565b600081359050612bc481613cf4565b92915050565b600081519050612bd981613cf4565b92915050565b600060208284031215612bf557612bf46138ce565b5b6000612c0384828501612b37565b91505092915050565b600060208284031215612c2257612c216138ce565b5b6000612c3084828501612b4c565b91505092915050565b60008060408385031215612c5057612c4f6138ce565b5b6000612c5e85828601612b61565b9250506020612c6f85828601612b76565b9150509250929050565b60008060408385031215612c9057612c8f6138ce565b5b6000612c9e85828601612b61565b9250506020612caf85828601612bb5565b9150509250929050565b60008060408385031215612cd057612ccf6138ce565b5b6000612cde85828601612b37565b9250506020612cef85828601612b37565b9150509250929050565b600080600060608486031215612d1257612d116138ce565b5b6000612d2086828701612b37565b9350506020612d3186828701612b37565b9250506040612d4286828701612bb5565b9150509250925092565b60008060408385031215612d6357612d626138ce565b5b6000612d7185828601612b37565b9250506020612d8285828601612bb5565b9150509250929050565b600060208284031215612da257612da16138ce565b5b6000612db084828501612b8b565b91505092915050565b600060208284031215612dcf57612dce6138ce565b5b6000612ddd84828501612ba0565b91505092915050565b600060208284031215612dfc57612dfb6138ce565b5b6000612e0a84828501612bb5565b91505092915050565b600060208284031215612e2957612e286138ce565b5b6000612e3784828501612bca565b91505092915050565b612e498161372e565b82525050565b612e588161372e565b82525050565b612e67816136bd565b82525050565b612e76816136bd565b82525050565b612e85816136e1565b82525050565b612e94816136ed565b82525050565b6000612ea582613464565b612eaf818561346f565b9350612ebf818560208601613764565b612ec8816138d3565b840191505092915050565b6000612ee0604b8361346f565b9150612eeb826138e4565b606082019050919050565b6000612f0360268361346f565b9150612f0e82613959565b604082019050919050565b6000612f2660228361346f565b9150612f31826139a8565b604082019050919050565b6000612f49601b8361346f565b9150612f54826139f7565b602082019050919050565b6000612f6c603d8361346f565b9150612f7782613a20565b604082019050919050565b6000612f8f60678361346f565b9150612f9a82613a6f565b608082019050919050565b6000612fb260218361346f565b9150612fbd82613b0a565b604082019050919050565b6000612fd560208361346f565b9150612fe082613b59565b602082019050919050565b6000612ff860218361346f565b915061300382613b82565b604082019050919050565b600061301b60248361346f565b915061302682613bd1565b604082019050919050565b600061303e602c8361346f565b915061304982613c20565b604082019050919050565b6000613061601f8361346f565b915061306c82613c6f565b602082019050919050565b8082525050565b61308781613717565b82525050565b61309681613717565b82525050565b6130a581613721565b82525050565b60006020820190506130c06000830184612e5e565b92915050565b60006040820190506130db6000830185612e40565b6130e8602083018461307e565b9392505050565b600061010082019050613105600083018b612e5e565b613112602083018a612e8b565b61311f6040830189612e8b565b61312c606083018861307e565b613139608083018761307e565b61314660a083018661307e565b61315360c083018561307e565b61316060e083018461307e565b9998505050505050505050565b60006020820190506131826000830184612e7c565b92915050565b600060208201905081810360008301526131a28184612e9a565b905092915050565b600060208201905081810360008301526131c381612ed3565b9050919050565b600060208201905081810360008301526131e381612ef6565b9050919050565b6000602082019050818103600083015261320381612f19565b9050919050565b6000602082019050818103600083015261322381612f3c565b9050919050565b6000602082019050818103600083015261324381612f5f565b9050919050565b6000602082019050818103600083015261326381612f82565b9050919050565b6000602082019050818103600083015261328381612fa5565b9050919050565b600060208201905081810360008301526132a381612fc8565b9050919050565b600060208201905081810360008301526132c381612feb565b9050919050565b600060208201905081810360008301526132e38161300e565b9050919050565b6000602082019050818103600083015261330381613031565b9050919050565b6000602082019050818103600083015261332381613054565b9050919050565b600060208201905061333f6000830184613077565b92915050565b600060408201905061335a6000830185613077565b6133676020830184612e6d565b9392505050565b60006040820190506133836000830185613077565b6133906020830184612e4f565b9392505050565b60006060820190506133ac6000830186613077565b6133b96020830185612e4f565b6133c6604083018461308d565b949350505050565b60006040820190506133e36000830185613077565b6133f0602083018461308d565b9392505050565b600060208201905061340c600083018461307e565b92915050565b6000606082019050613427600083018661307e565b613434602083018561307e565b613441604083018461307e565b949350505050565b600060208201905061345e600083018461309c565b92915050565b600081519050919050565b600082825260208201905092915050565b600061348b826136ed565b9150613496836136ed565b9250817f7fffffffffffffffffffffffffffffffffffffffffffffffffffffffffffffff038313600083121516156134d1576134d0613812565b5b817f800000000000000000000000000000000000000000000000000000000000000003831260008312161561350957613508613812565b5b828201905092915050565b600061351f82613717565b915061352a83613717565b9250827fffffffffffffffffffffffffffffffffffffffffffffffffffffffffffffffff0382111561355f5761355e613812565b5b828201905092915050565b600061357582613717565b915061358083613717565b9250826135905761358f613841565b5b828204905092915050565b60006135a682613717565b91506135b183613717565b9250817fffffffffffffffffffffffffffffffffffffffffffffffffffffffffffffffff04831182151516156135ea576135e9613812565b5b828202905092915050565b6000613600826136ed565b915061360b836136ed565b9250827f80000000000000000000000000000000000000000000000000000000000000000182126000841215161561364657613645613812565b5b827f7fffffffffffffffffffffffffffffffffffffffffffffffffffffffffffffff01821360008412161561367e5761367d613812565b5b828203905092915050565b600061369482613717565b915061369f83613717565b9250828210156136b2576136b1613812565b5b828203905092915050565b60006136c8826136f7565b9050919050565b60006136da826136f7565b9050919050565b60008115159050919050565b6000819050919050565b600073ffffffffffffffffffffffffffffffffffffffff82169050919050565b6000819050919050565b600060ff82169050919050565b600061373982613740565b9050919050565b600061374b82613752565b9050919050565b600061375d826136f7565b9050919050565b60005b83811015613782578082015181840152602081019050613767565b83811115613791576000848401525b50505050565b600060028204905060018216806137af57607f821691505b602082108114156137c3576137c2613870565b5b50919050565b60006137d482613717565b91507fffffffffffffffffffffffffffffffffffffffffffffffffffffffffffffffff82141561380757613806613812565b5b600182019050919050565b7f4e487b7100000000000000000000000000000000000000000000000000000000600052601160045260246000fd5b7f4e487b7100000000000000000000000000000000000000000000000000000000600052601260045260246000fd5b7f4e487b7100000000000000000000000000000000000000000000000000000000600052602260045260246000fd5b7f4e487b7100000000000000000000000000000000000000000000000000000000600052603260045260246000fd5b600080fd5b6000601f19601f8301169050919050565b7f50534849425f4469766964656e645f547261636b65723a20636c61696d57616960008201527f74206d757374206265207570646174656420746f206265747765656e2031206160208201527f6e6420323420686f757273000000000000000000000000000000000000000000604082015250565b7f4f776e61626c653a206e6577206f776e657220697320746865207a65726f206160008201527f6464726573730000000000000000000000000000000000000000000000000000602082015250565b7f45524332303a20617070726f766520746f20746865207a65726f20616464726560008201527f7373000000000000000000000000000000000000000000000000000000000000602082015250565b7f536166654d6174683a206164646974696f6e206f766572666c6f770000000000600082015250565b7f50534849425f4469766964656e645f547261636b65723a2043616e6e6f74207560008201527f706461746520636c61696d5761697420746f2073616d652076616c7565000000602082015250565b7f50534849425f4469766964656e645f547261636b65723a20776974686472617760008201527f4469766964656e642064697361626c65642e20557365207468652027636c616960208201527f6d272066756e6374696f6e206f6e20746865206d61696e20505348494220636f60408201527f6e74726163742e00000000000000000000000000000000000000000000000000606082015250565b7f536166654d6174683a206d756c7469706c69636174696f6e206f766572666c6f60008201527f7700000000000000000000000000000000000000000000000000000000000000602082015250565b7f4f776e61626c653a2063616c6c6572206973206e6f7420746865206f776e6572600082015250565b7f45524332303a206275726e2066726f6d20746865207a65726f2061646472657360008201527f7300000000000000000000000000000000000000000000000000000000000000602082015250565b7f45524332303a20617070726f76652066726f6d20746865207a65726f2061646460008201527f7265737300000000000000000000000000000000000000000000000000000000602082015250565b7f50534849425f4469766964656e645f547261636b65723a204e6f207472616e7360008201527f6665727320616c6c6f7765640000000000000000000000000000000000000000602082015250565b7f45524332303a206d696e7420746f20746865207a65726f206164647265737300600082015250565b613ca1816136bd565b8114613cac57600080fd5b50565b613cb8816136cf565b8114613cc357600080fd5b50565b613ccf816136e1565b8114613cda57600080fd5b50565b613ce6816136ed565b8114613cf157600080fd5b50565b613cfd81613717565b8114613d0857600080fd5b5056fe45524332303a206275726e20616d6f756e7420657863656564732062616c616e636545524332303a207472616e7366657220616d6f756e74206578636565647320616c6c6f77616e636545524332303a2064656372656173656420616c6c6f77616e63652062656c6f77207a65726fa2646970667358221220948a29e150e8e365f4916588df587f7ea06776a15196191d03e206a461c09cd064736f6c63430008070033",
  "linkReferences": {
    "contracts/Test.sol": {
      "IterableMapping": [
        {
          "length": 20,
          "start": 37098
        },
        {
          "length": 20,
          "start": 37499
        },
        {
          "length": 20,
          "start": 37710
        },
        {
          "length": 20,
          "start": 39838
        },
        {
          "length": 20,
          "start": 39964
        },
        {
          "length": 20,
          "start": 41301
        }
      ]
    }
  },
  "deployedLinkReferences": {}
}